{
	"scripts/test.sol": {
		"Certification": {
			"abi": [
				{
					"anonymous": false,
					"inputs": [
						{
							"indexed": false,
							"internalType": "uint256",
							"name": "id",
							"type": "uint256"
						},
						{
							"indexed": false,
							"internalType": "string",
							"name": "name",
							"type": "string"
						},
						{
							"indexed": false,
							"internalType": "string",
							"name": "certificationDate",
							"type": "string"
						},
						{
							"indexed": false,
							"internalType": "address",
							"name": "certifiedBy",
							"type": "address"
						}
					],
					"name": "PieceCertified",
					"type": "event"
				},
				{
					"inputs": [
						{
							"internalType": "string",
							"name": "_name",
							"type": "string"
						},
						{
							"internalType": "string",
							"name": "_certificationDate",
							"type": "string"
						}
					],
					"name": "certifyPiece",
					"outputs": [],
					"stateMutability": "nonpayable",
					"type": "function"
				},
				{
					"inputs": [
						{
							"internalType": "uint256",
							"name": "_id",
							"type": "uint256"
						}
					],
					"name": "getPiece",
					"outputs": [
						{
							"internalType": "string",
							"name": "",
							"type": "string"
						},
						{
							"internalType": "string",
							"name": "",
							"type": "string"
						},
						{
							"internalType": "address",
							"name": "",
							"type": "address"
						}
					],
					"stateMutability": "view",
					"type": "function"
				},
				{
					"inputs": [],
					"name": "pieceCount",
					"outputs": [
						{
							"internalType": "uint256",
							"name": "",
							"type": "uint256"
						}
					],
					"stateMutability": "view",
					"type": "function"
				},
				{
					"inputs": [
						{
							"internalType": "uint256",
							"name": "",
							"type": "uint256"
						}
					],
					"name": "pieces",
					"outputs": [
						{
							"internalType": "uint256",
							"name": "id",
							"type": "uint256"
						},
						{
							"internalType": "string",
							"name": "name",
							"type": "string"
						},
						{
							"internalType": "string",
							"name": "certificationDate",
							"type": "string"
						},
						{
							"internalType": "address",
							"name": "certifiedBy",
							"type": "address"
						}
					],
					"stateMutability": "view",
					"type": "function"
				}
			],
			"devdoc": {
				"kind": "dev",
				"methods": {},
				"version": 1
			},
			"evm": {
				"assembly": "    /* \"scripts/test.sol\":62:890  contract Certification {... */\n  mstore(0x40, 0x80)\n  callvalue\n  dup1\n  iszero\n  tag_1\n  jumpi\n  0x00\n  dup1\n  revert\ntag_1:\n  pop\n  dataSize(sub_0)\n  dup1\n  dataOffset(sub_0)\n  0x00\n  codecopy\n  0x00\n  return\nstop\n\nsub_0: assembly {\n        /* \"scripts/test.sol\":62:890  contract Certification {... */\n      mstore(0x40, 0x80)\n      callvalue\n      dup1\n      iszero\n      tag_1\n      jumpi\n      0x00\n      dup1\n      revert\n    tag_1:\n      pop\n      jumpi(tag_2, lt(calldatasize, 0x04))\n      shr(0xe0, calldataload(0x00))\n      dup1\n      0x4a5c4dfe\n      eq\n      tag_3\n      jumpi\n      dup1\n      0x6b45c9f2\n      eq\n      tag_4\n      jumpi\n      dup1\n      0x8f64be30\n      eq\n      tag_5\n      jumpi\n      dup1\n      0xa0544ed1\n      eq\n      tag_6\n      jumpi\n    tag_2:\n      0x00\n      dup1\n      revert\n        /* \"scripts/test.sol\":269:291  uint public pieceCount */\n    tag_3:\n      tag_7\n      tag_8\n      jump\t// in\n    tag_7:\n      mload(0x40)\n      tag_9\n      swap2\n      swap1\n      tag_10\n      jump\t// in\n    tag_9:\n      mload(0x40)\n      dup1\n      swap2\n      sub\n      swap1\n      return\n        /* \"scripts/test.sol\":690:887  function getPiece(uint _id) public view returns (string memory, string memory, address) {... */\n    tag_4:\n      tag_11\n      0x04\n      dup1\n      calldatasize\n      sub\n      dup2\n      add\n      swap1\n      tag_12\n      swap2\n      swap1\n      tag_13\n      jump\t// in\n    tag_12:\n      tag_14\n      jump\t// in\n    tag_11:\n      mload(0x40)\n      tag_15\n      swap4\n      swap3\n      swap2\n      swap1\n      tag_16\n      jump\t// in\n    tag_15:\n      mload(0x40)\n      dup1\n      swap2\n      sub\n      swap1\n      return\n        /* \"scripts/test.sol\":226:262  mapping(uint => Piece) public pieces */\n    tag_5:\n      tag_17\n      0x04\n      dup1\n      calldatasize\n      sub\n      dup2\n      add\n      swap1\n      tag_18\n      swap2\n      swap1\n      tag_13\n      jump\t// in\n    tag_18:\n      tag_19\n      jump\t// in\n    tag_17:\n      mload(0x40)\n      tag_20\n      swap5\n      swap4\n      swap3\n      swap2\n      swap1\n      tag_21\n      jump\t// in\n    tag_20:\n      mload(0x40)\n      dup1\n      swap2\n      sub\n      swap1\n      return\n        /* \"scripts/test.sol\":398:682  function certifyPiece(string memory _name, string memory _certificationDate) public {... */\n    tag_6:\n      tag_22\n      0x04\n      dup1\n      calldatasize\n      sub\n      dup2\n      add\n      swap1\n      tag_23\n      swap2\n      swap1\n      tag_24\n      jump\t// in\n    tag_23:\n      tag_25\n      jump\t// in\n    tag_22:\n      stop\n        /* \"scripts/test.sol\":269:291  uint public pieceCount */\n    tag_8:\n      sload(0x01)\n      dup2\n      jump\t// out\n        /* \"scripts/test.sol\":690:887  function getPiece(uint _id) public view returns (string memory, string memory, address) {... */\n    tag_14:\n        /* \"scripts/test.sol\":739:752  string memory */\n      0x60\n        /* \"scripts/test.sol\":754:767  string memory */\n      dup1\n        /* \"scripts/test.sol\":769:776  address */\n      0x00\n        /* \"scripts/test.sol\":789:803  Piece memory p */\n      dup1\n        /* \"scripts/test.sol\":806:812  pieces */\n      0x00\n        /* \"scripts/test.sol\":806:817  pieces[_id] */\n      dup1\n        /* \"scripts/test.sol\":813:816  _id */\n      dup7\n        /* \"scripts/test.sol\":806:817  pieces[_id] */\n      dup2\n      mstore\n      0x20\n      add\n      swap1\n      dup2\n      mstore\n      0x20\n      add\n      0x00\n      keccak256\n        /* \"scripts/test.sol\":789:817  Piece memory p = pieces[_id] */\n      mload(0x40)\n      dup1\n      0x80\n      add\n      0x40\n      mstore\n      swap1\n      dup2\n      0x00\n      dup3\n      add\n      sload\n      dup2\n      mstore\n      0x20\n      add\n      0x01\n      dup3\n      add\n      dup1\n      sload\n      tag_27\n      swap1\n      tag_28\n      jump\t// in\n    tag_27:\n      dup1\n      0x1f\n      add\n      0x20\n      dup1\n      swap2\n      div\n      mul\n      0x20\n      add\n      mload(0x40)\n      swap1\n      dup2\n      add\n      0x40\n      mstore\n      dup1\n      swap3\n      swap2\n      swap1\n      dup2\n      dup2\n      mstore\n      0x20\n      add\n      dup3\n      dup1\n      sload\n      tag_29\n      swap1\n      tag_28\n      jump\t// in\n    tag_29:\n      dup1\n      iszero\n      tag_30\n      jumpi\n      dup1\n      0x1f\n      lt\n      tag_31\n      jumpi\n      0x0100\n      dup1\n      dup4\n      sload\n      div\n      mul\n      dup4\n      mstore\n      swap2\n      0x20\n      add\n      swap2\n      jump(tag_30)\n    tag_31:\n      dup3\n      add\n      swap2\n      swap1\n      0x00\n      mstore\n      keccak256(0x00, 0x20)\n      swap1\n    tag_32:\n      dup2\n      sload\n      dup2\n      mstore\n      swap1\n      0x01\n      add\n      swap1\n      0x20\n      add\n      dup1\n      dup4\n      gt\n      tag_32\n      jumpi\n      dup3\n      swap1\n      sub\n      0x1f\n      and\n      dup3\n      add\n      swap2\n    tag_30:\n      pop\n      pop\n      pop\n      pop\n      pop\n      dup2\n      mstore\n      0x20\n      add\n      0x02\n      dup3\n      add\n      dup1\n      sload\n      tag_33\n      swap1\n      tag_28\n      jump\t// in\n    tag_33:\n      dup1\n      0x1f\n      add\n      0x20\n      dup1\n      swap2\n      div\n      mul\n      0x20\n      add\n      mload(0x40)\n      swap1\n      dup2\n      add\n      0x40\n      mstore\n      dup1\n      swap3\n      swap2\n      swap1\n      dup2\n      dup2\n      mstore\n      0x20\n      add\n      dup3\n      dup1\n      sload\n      tag_34\n      swap1\n      tag_28\n      jump\t// in\n    tag_34:\n      dup1\n      iszero\n      tag_35\n      jumpi\n      dup1\n      0x1f\n      lt\n      tag_36\n      jumpi\n      0x0100\n      dup1\n      dup4\n      sload\n      div\n      mul\n      dup4\n      mstore\n      swap2\n      0x20\n      add\n      swap2\n      jump(tag_35)\n    tag_36:\n      dup3\n      add\n      swap2\n      swap1\n      0x00\n      mstore\n      keccak256(0x00, 0x20)\n      swap1\n    tag_37:\n      dup2\n      sload\n      dup2\n      mstore\n      swap1\n      0x01\n      add\n      swap1\n      0x20\n      add\n      dup1\n      dup4\n      gt\n      tag_37\n      jumpi\n      dup3\n      swap1\n      sub\n      0x1f\n      and\n      dup3\n      add\n      swap2\n    tag_35:\n      pop\n      pop\n      pop\n      pop\n      pop\n      dup2\n      mstore\n      0x20\n      add\n      0x03\n      dup3\n      add\n      0x00\n      swap1\n      sload\n      swap1\n      0x0100\n      exp\n      swap1\n      div\n      0xffffffffffffffffffffffffffffffffffffffff\n      and\n      0xffffffffffffffffffffffffffffffffffffffff\n      and\n      0xffffffffffffffffffffffffffffffffffffffff\n      and\n      dup2\n      mstore\n      pop\n      pop\n      swap1\n      pop\n        /* \"scripts/test.sol\":836:837  p */\n      dup1\n        /* \"scripts/test.sol\":836:842  p.name */\n      0x20\n      add\n      mload\n        /* \"scripts/test.sol\":844:845  p */\n      dup2\n        /* \"scripts/test.sol\":844:863  p.certificationDate */\n      0x40\n      add\n      mload\n        /* \"scripts/test.sol\":865:866  p */\n      dup3\n        /* \"scripts/test.sol\":865:878  p.certifiedBy */\n      0x60\n      add\n      mload\n        /* \"scripts/test.sol\":828:879  return (p.name, p.certificationDate, p.certifiedBy) */\n      swap4\n      pop\n      swap4\n      pop\n      swap4\n      pop\n      pop\n        /* \"scripts/test.sol\":690:887  function getPiece(uint _id) public view returns (string memory, string memory, address) {... */\n      swap2\n      swap4\n      swap1\n      swap3\n      pop\n      jump\t// out\n        /* \"scripts/test.sol\":226:262  mapping(uint => Piece) public pieces */\n    tag_19:\n      mstore(0x20, 0x00)\n      dup1\n      0x00\n      mstore\n      keccak256(0x00, 0x40)\n      0x00\n      swap2\n      pop\n      swap1\n      pop\n      dup1\n      0x00\n      add\n      sload\n      swap1\n      dup1\n      0x01\n      add\n      dup1\n      sload\n      tag_38\n      swap1\n      tag_28\n      jump\t// in\n    tag_38:\n      dup1\n      0x1f\n      add\n      0x20\n      dup1\n      swap2\n      div\n      mul\n      0x20\n      add\n      mload(0x40)\n      swap1\n      dup2\n      add\n      0x40\n      mstore\n      dup1\n      swap3\n      swap2\n      swap1\n      dup2\n      dup2\n      mstore\n      0x20\n      add\n      dup3\n      dup1\n      sload\n      tag_39\n      swap1\n      tag_28\n      jump\t// in\n    tag_39:\n      dup1\n      iszero\n      tag_40\n      jumpi\n      dup1\n      0x1f\n      lt\n      tag_41\n      jumpi\n      0x0100\n      dup1\n      dup4\n      sload\n      div\n      mul\n      dup4\n      mstore\n      swap2\n      0x20\n      add\n      swap2\n      jump(tag_40)\n    tag_41:\n      dup3\n      add\n      swap2\n      swap1\n      0x00\n      mstore\n      keccak256(0x00, 0x20)\n      swap1\n    tag_42:\n      dup2\n      sload\n      dup2\n      mstore\n      swap1\n      0x01\n      add\n      swap1\n      0x20\n      add\n      dup1\n      dup4\n      gt\n      tag_42\n      jumpi\n      dup3\n      swap1\n      sub\n      0x1f\n      and\n      dup3\n      add\n      swap2\n    tag_40:\n      pop\n      pop\n      pop\n      pop\n      pop\n      swap1\n      dup1\n      0x02\n      add\n      dup1\n      sload\n      tag_43\n      swap1\n      tag_28\n      jump\t// in\n    tag_43:\n      dup1\n      0x1f\n      add\n      0x20\n      dup1\n      swap2\n      div\n      mul\n      0x20\n      add\n      mload(0x40)\n      swap1\n      dup2\n      add\n      0x40\n      mstore\n      dup1\n      swap3\n      swap2\n      swap1\n      dup2\n      dup2\n      mstore\n      0x20\n      add\n      dup3\n      dup1\n      sload\n      tag_44\n      swap1\n      tag_28\n      jump\t// in\n    tag_44:\n      dup1\n      iszero\n      tag_45\n      jumpi\n      dup1\n      0x1f\n      lt\n      tag_46\n      jumpi\n      0x0100\n      dup1\n      dup4\n      sload\n      div\n      mul\n      dup4\n      mstore\n      swap2\n      0x20\n      add\n      swap2\n      jump(tag_45)\n    tag_46:\n      dup3\n      add\n      swap2\n      swap1\n      0x00\n      mstore\n      keccak256(0x00, 0x20)\n      swap1\n    tag_47:\n      dup2\n      sload\n      dup2\n      mstore\n      swap1\n      0x01\n      add\n      swap1\n      0x20\n      add\n      dup1\n      dup4\n      gt\n      tag_47\n      jumpi\n      dup3\n      swap1\n      sub\n      0x1f\n      and\n      dup3\n      add\n      swap2\n    tag_45:\n      pop\n      pop\n      pop\n      pop\n      pop\n      swap1\n      dup1\n      0x03\n      add\n      0x00\n      swap1\n      sload\n      swap1\n      0x0100\n      exp\n      swap1\n      div\n      0xffffffffffffffffffffffffffffffffffffffff\n      and\n      swap1\n      pop\n      dup5\n      jump\t// out\n        /* \"scripts/test.sol\":398:682  function certifyPiece(string memory _name, string memory _certificationDate) public {... */\n    tag_25:\n        /* \"scripts/test.sol\":493:503  pieceCount */\n      0x01\n      0x00\n        /* \"scripts/test.sol\":493:505  pieceCount++ */\n      dup2\n      sload\n      dup1\n      swap3\n      swap2\n      swap1\n      tag_49\n      swap1\n      tag_50\n      jump\t// in\n    tag_49:\n      swap2\n      swap1\n      pop\n      sstore\n      pop\n        /* \"scripts/test.sol\":537:593  Piece(pieceCount, _name, _certificationDate, msg.sender) */\n      mload(0x40)\n      dup1\n      0x80\n      add\n      0x40\n      mstore\n      dup1\n        /* \"scripts/test.sol\":543:553  pieceCount */\n      sload(0x01)\n        /* \"scripts/test.sol\":537:593  Piece(pieceCount, _name, _certificationDate, msg.sender) */\n      dup2\n      mstore\n      0x20\n      add\n        /* \"scripts/test.sol\":555:560  _name */\n      dup4\n        /* \"scripts/test.sol\":537:593  Piece(pieceCount, _name, _certificationDate, msg.sender) */\n      dup2\n      mstore\n      0x20\n      add\n        /* \"scripts/test.sol\":562:580  _certificationDate */\n      dup3\n        /* \"scripts/test.sol\":537:593  Piece(pieceCount, _name, _certificationDate, msg.sender) */\n      dup2\n      mstore\n      0x20\n      add\n        /* \"scripts/test.sol\":582:592  msg.sender */\n      caller\n        /* \"scripts/test.sol\":537:593  Piece(pieceCount, _name, _certificationDate, msg.sender) */\n      0xffffffffffffffffffffffffffffffffffffffff\n      and\n      dup2\n      mstore\n      pop\n        /* \"scripts/test.sol\":516:522  pieces */\n      0x00\n        /* \"scripts/test.sol\":516:534  pieces[pieceCount] */\n      dup1\n        /* \"scripts/test.sol\":523:533  pieceCount */\n      sload(0x01)\n        /* \"scripts/test.sol\":516:534  pieces[pieceCount] */\n      dup2\n      mstore\n      0x20\n      add\n      swap1\n      dup2\n      mstore\n      0x20\n      add\n      0x00\n      keccak256\n        /* \"scripts/test.sol\":516:593  pieces[pieceCount] = Piece(pieceCount, _name, _certificationDate, msg.sender) */\n      0x00\n      dup3\n      add\n      mload\n      dup2\n      0x00\n      add\n      sstore\n      0x20\n      dup3\n      add\n      mload\n      dup2\n      0x01\n      add\n      swap1\n      dup2\n      tag_51\n      swap2\n      swap1\n      tag_52\n      jump\t// in\n    tag_51:\n      pop\n      0x40\n      dup3\n      add\n      mload\n      dup2\n      0x02\n      add\n      swap1\n      dup2\n      tag_53\n      swap2\n      swap1\n      tag_52\n      jump\t// in\n    tag_53:\n      pop\n      0x60\n      dup3\n      add\n      mload\n      dup2\n      0x03\n      add\n      exp(0x0100, 0x00)\n      dup2\n      sload\n      dup2\n      0xffffffffffffffffffffffffffffffffffffffff\n      mul\n      not\n      and\n      swap1\n      dup4\n      0xffffffffffffffffffffffffffffffffffffffff\n      and\n      mul\n      or\n      swap1\n      sstore\n      pop\n      swap1\n      pop\n      pop\n        /* \"scripts/test.sol\":609:674  PieceCertified(pieceCount, _name, _certificationDate, msg.sender) */\n      0xccb038bebb776284ac3749c98d8ae61befe713a6f19d8c073bd45910f04a0897\n        /* \"scripts/test.sol\":624:634  pieceCount */\n      sload(0x01)\n        /* \"scripts/test.sol\":636:641  _name */\n      dup4\n        /* \"scripts/test.sol\":643:661  _certificationDate */\n      dup4\n        /* \"scripts/test.sol\":663:673  msg.sender */\n      caller\n        /* \"scripts/test.sol\":609:674  PieceCertified(pieceCount, _name, _certificationDate, msg.sender) */\n      mload(0x40)\n      tag_54\n      swap5\n      swap4\n      swap3\n      swap2\n      swap1\n      tag_21\n      jump\t// in\n    tag_54:\n      mload(0x40)\n      dup1\n      swap2\n      sub\n      swap1\n      log1\n        /* \"scripts/test.sol\":398:682  function certifyPiece(string memory _name, string memory _certificationDate) public {... */\n      pop\n      pop\n      jump\t// out\n        /* \"#utility.yul\":7:84   */\n    tag_55:\n        /* \"#utility.yul\":44:51   */\n      0x00\n        /* \"#utility.yul\":73:78   */\n      dup2\n        /* \"#utility.yul\":62:78   */\n      swap1\n      pop\n        /* \"#utility.yul\":7:84   */\n      swap2\n      swap1\n      pop\n      jump\t// out\n        /* \"#utility.yul\":90:208   */\n    tag_56:\n        /* \"#utility.yul\":177:201   */\n      tag_99\n        /* \"#utility.yul\":195:200   */\n      dup2\n        /* \"#utility.yul\":177:201   */\n      tag_55\n      jump\t// in\n    tag_99:\n        /* \"#utility.yul\":172:175   */\n      dup3\n        /* \"#utility.yul\":165:202   */\n      mstore\n        /* \"#utility.yul\":90:208   */\n      pop\n      pop\n      jump\t// out\n        /* \"#utility.yul\":214:436   */\n    tag_10:\n        /* \"#utility.yul\":307:311   */\n      0x00\n        /* \"#utility.yul\":345:347   */\n      0x20\n        /* \"#utility.yul\":334:343   */\n      dup3\n        /* \"#utility.yul\":330:348   */\n      add\n        /* \"#utility.yul\":322:348   */\n      swap1\n      pop\n        /* \"#utility.yul\":358:429   */\n      tag_101\n        /* \"#utility.yul\":426:427   */\n      0x00\n        /* \"#utility.yul\":415:424   */\n      dup4\n        /* \"#utility.yul\":411:428   */\n      add\n        /* \"#utility.yul\":402:408   */\n      dup5\n        /* \"#utility.yul\":358:429   */\n      tag_56\n      jump\t// in\n    tag_101:\n        /* \"#utility.yul\":214:436   */\n      swap3\n      swap2\n      pop\n      pop\n      jump\t// out\n        /* \"#utility.yul\":442:517   */\n    tag_57:\n        /* \"#utility.yul\":475:481   */\n      0x00\n        /* \"#utility.yul\":508:510   */\n      0x40\n        /* \"#utility.yul\":502:511   */\n      mload\n        /* \"#utility.yul\":492:511   */\n      swap1\n      pop\n        /* \"#utility.yul\":442:517   */\n      swap1\n      jump\t// out\n        /* \"#utility.yul\":523:640   */\n    tag_58:\n        /* \"#utility.yul\":632:633   */\n      0x00\n        /* \"#utility.yul\":629:630   */\n      dup1\n        /* \"#utility.yul\":622:634   */\n      revert\n        /* \"#utility.yul\":646:763   */\n    tag_59:\n        /* \"#utility.yul\":755:756   */\n      0x00\n        /* \"#utility.yul\":752:753   */\n      dup1\n        /* \"#utility.yul\":745:757   */\n      revert\n        /* \"#utility.yul\":769:891   */\n    tag_60:\n        /* \"#utility.yul\":842:866   */\n      tag_106\n        /* \"#utility.yul\":860:865   */\n      dup2\n        /* \"#utility.yul\":842:866   */\n      tag_55\n      jump\t// in\n    tag_106:\n        /* \"#utility.yul\":835:840   */\n      dup2\n        /* \"#utility.yul\":832:867   */\n      eq\n        /* \"#utility.yul\":822:885   */\n      tag_107\n      jumpi\n        /* \"#utility.yul\":881:882   */\n      0x00\n        /* \"#utility.yul\":878:879   */\n      dup1\n        /* \"#utility.yul\":871:883   */\n      revert\n        /* \"#utility.yul\":822:885   */\n    tag_107:\n        /* \"#utility.yul\":769:891   */\n      pop\n      jump\t// out\n        /* \"#utility.yul\":897:1036   */\n    tag_61:\n        /* \"#utility.yul\":943:948   */\n      0x00\n        /* \"#utility.yul\":981:987   */\n      dup2\n        /* \"#utility.yul\":968:988   */\n      calldataload\n        /* \"#utility.yul\":959:988   */\n      swap1\n      pop\n        /* \"#utility.yul\":997:1030   */\n      tag_109\n        /* \"#utility.yul\":1024:1029   */\n      dup2\n        /* \"#utility.yul\":997:1030   */\n      tag_60\n      jump\t// in\n    tag_109:\n        /* \"#utility.yul\":897:1036   */\n      swap3\n      swap2\n      pop\n      pop\n      jump\t// out\n        /* \"#utility.yul\":1042:1371   */\n    tag_13:\n        /* \"#utility.yul\":1101:1107   */\n      0x00\n        /* \"#utility.yul\":1150:1152   */\n      0x20\n        /* \"#utility.yul\":1138:1147   */\n      dup3\n        /* \"#utility.yul\":1129:1136   */\n      dup5\n        /* \"#utility.yul\":1125:1148   */\n      sub\n        /* \"#utility.yul\":1121:1153   */\n      slt\n        /* \"#utility.yul\":1118:1237   */\n      iszero\n      tag_111\n      jumpi\n        /* \"#utility.yul\":1156:1235   */\n      tag_112\n      tag_58\n      jump\t// in\n    tag_112:\n        /* \"#utility.yul\":1118:1237   */\n    tag_111:\n        /* \"#utility.yul\":1276:1277   */\n      0x00\n        /* \"#utility.yul\":1301:1354   */\n      tag_113\n        /* \"#utility.yul\":1346:1353   */\n      dup5\n        /* \"#utility.yul\":1337:1343   */\n      dup3\n        /* \"#utility.yul\":1326:1335   */\n      dup6\n        /* \"#utility.yul\":1322:1344   */\n      add\n        /* \"#utility.yul\":1301:1354   */\n      tag_61\n      jump\t// in\n    tag_113:\n        /* \"#utility.yul\":1291:1354   */\n      swap2\n      pop\n        /* \"#utility.yul\":1247:1364   */\n      pop\n        /* \"#utility.yul\":1042:1371   */\n      swap3\n      swap2\n      pop\n      pop\n      jump\t// out\n        /* \"#utility.yul\":1377:1476   */\n    tag_62:\n        /* \"#utility.yul\":1429:1435   */\n      0x00\n        /* \"#utility.yul\":1463:1468   */\n      dup2\n        /* \"#utility.yul\":1457:1469   */\n      mload\n        /* \"#utility.yul\":1447:1469   */\n      swap1\n      pop\n        /* \"#utility.yul\":1377:1476   */\n      swap2\n      swap1\n      pop\n      jump\t// out\n        /* \"#utility.yul\":1482:1651   */\n    tag_63:\n        /* \"#utility.yul\":1566:1577   */\n      0x00\n        /* \"#utility.yul\":1600:1606   */\n      dup3\n        /* \"#utility.yul\":1595:1598   */\n      dup3\n        /* \"#utility.yul\":1588:1607   */\n      mstore\n        /* \"#utility.yul\":1640:1644   */\n      0x20\n        /* \"#utility.yul\":1635:1638   */\n      dup3\n        /* \"#utility.yul\":1631:1645   */\n      add\n        /* \"#utility.yul\":1616:1645   */\n      swap1\n      pop\n        /* \"#utility.yul\":1482:1651   */\n      swap3\n      swap2\n      pop\n      pop\n      jump\t// out\n        /* \"#utility.yul\":1657:1796   */\n    tag_64:\n        /* \"#utility.yul\":1746:1752   */\n      dup3\n        /* \"#utility.yul\":1741:1744   */\n      dup2\n        /* \"#utility.yul\":1736:1739   */\n      dup4\n        /* \"#utility.yul\":1730:1753   */\n      mcopy\n        /* \"#utility.yul\":1787:1788   */\n      0x00\n        /* \"#utility.yul\":1778:1784   */\n      dup4\n        /* \"#utility.yul\":1773:1776   */\n      dup4\n        /* \"#utility.yul\":1769:1785   */\n      add\n        /* \"#utility.yul\":1762:1789   */\n      mstore\n        /* \"#utility.yul\":1657:1796   */\n      pop\n      pop\n      pop\n      jump\t// out\n        /* \"#utility.yul\":1802:1904   */\n    tag_65:\n        /* \"#utility.yul\":1843:1849   */\n      0x00\n        /* \"#utility.yul\":1894:1896   */\n      0x1f\n        /* \"#utility.yul\":1890:1897   */\n      not\n        /* \"#utility.yul\":1885:1887   */\n      0x1f\n        /* \"#utility.yul\":1878:1883   */\n      dup4\n        /* \"#utility.yul\":1874:1888   */\n      add\n        /* \"#utility.yul\":1870:1898   */\n      and\n        /* \"#utility.yul\":1860:1898   */\n      swap1\n      pop\n        /* \"#utility.yul\":1802:1904   */\n      swap2\n      swap1\n      pop\n      jump\t// out\n        /* \"#utility.yul\":1910:2287   */\n    tag_66:\n        /* \"#utility.yul\":1998:2001   */\n      0x00\n        /* \"#utility.yul\":2026:2065   */\n      tag_119\n        /* \"#utility.yul\":2059:2064   */\n      dup3\n        /* \"#utility.yul\":2026:2065   */\n      tag_62\n      jump\t// in\n    tag_119:\n        /* \"#utility.yul\":2081:2152   */\n      tag_120\n        /* \"#utility.yul\":2145:2151   */\n      dup2\n        /* \"#utility.yul\":2140:2143   */\n      dup6\n        /* \"#utility.yul\":2081:2152   */\n      tag_63\n      jump\t// in\n    tag_120:\n        /* \"#utility.yul\":2074:2152   */\n      swap4\n      pop\n        /* \"#utility.yul\":2161:2226   */\n      tag_121\n        /* \"#utility.yul\":2219:2225   */\n      dup2\n        /* \"#utility.yul\":2214:2217   */\n      dup6\n        /* \"#utility.yul\":2207:2211   */\n      0x20\n        /* \"#utility.yul\":2200:2205   */\n      dup7\n        /* \"#utility.yul\":2196:2212   */\n      add\n        /* \"#utility.yul\":2161:2226   */\n      tag_64\n      jump\t// in\n    tag_121:\n        /* \"#utility.yul\":2251:2280   */\n      tag_122\n        /* \"#utility.yul\":2273:2279   */\n      dup2\n        /* \"#utility.yul\":2251:2280   */\n      tag_65\n      jump\t// in\n    tag_122:\n        /* \"#utility.yul\":2246:2249   */\n      dup5\n        /* \"#utility.yul\":2242:2281   */\n      add\n        /* \"#utility.yul\":2235:2281   */\n      swap2\n      pop\n        /* \"#utility.yul\":2002:2287   */\n      pop\n        /* \"#utility.yul\":1910:2287   */\n      swap3\n      swap2\n      pop\n      pop\n      jump\t// out\n        /* \"#utility.yul\":2293:2419   */\n    tag_67:\n        /* \"#utility.yul\":2330:2337   */\n      0x00\n        /* \"#utility.yul\":2370:2412   */\n      0xffffffffffffffffffffffffffffffffffffffff\n        /* \"#utility.yul\":2363:2368   */\n      dup3\n        /* \"#utility.yul\":2359:2413   */\n      and\n        /* \"#utility.yul\":2348:2413   */\n      swap1\n      pop\n        /* \"#utility.yul\":2293:2419   */\n      swap2\n      swap1\n      pop\n      jump\t// out\n        /* \"#utility.yul\":2425:2521   */\n    tag_68:\n        /* \"#utility.yul\":2462:2469   */\n      0x00\n        /* \"#utility.yul\":2491:2515   */\n      tag_125\n        /* \"#utility.yul\":2509:2514   */\n      dup3\n        /* \"#utility.yul\":2491:2515   */\n      tag_67\n      jump\t// in\n    tag_125:\n        /* \"#utility.yul\":2480:2515   */\n      swap1\n      pop\n        /* \"#utility.yul\":2425:2521   */\n      swap2\n      swap1\n      pop\n      jump\t// out\n        /* \"#utility.yul\":2527:2645   */\n    tag_69:\n        /* \"#utility.yul\":2614:2638   */\n      tag_127\n        /* \"#utility.yul\":2632:2637   */\n      dup2\n        /* \"#utility.yul\":2614:2638   */\n      tag_68\n      jump\t// in\n    tag_127:\n        /* \"#utility.yul\":2609:2612   */\n      dup3\n        /* \"#utility.yul\":2602:2639   */\n      mstore\n        /* \"#utility.yul\":2527:2645   */\n      pop\n      pop\n      jump\t// out\n        /* \"#utility.yul\":2651:3275   */\n    tag_16:\n        /* \"#utility.yul\":2840:2844   */\n      0x00\n        /* \"#utility.yul\":2878:2880   */\n      0x60\n        /* \"#utility.yul\":2867:2876   */\n      dup3\n        /* \"#utility.yul\":2863:2881   */\n      add\n        /* \"#utility.yul\":2855:2881   */\n      swap1\n      pop\n        /* \"#utility.yul\":2927:2936   */\n      dup2\n        /* \"#utility.yul\":2921:2925   */\n      dup2\n        /* \"#utility.yul\":2917:2937   */\n      sub\n        /* \"#utility.yul\":2913:2914   */\n      0x00\n        /* \"#utility.yul\":2902:2911   */\n      dup4\n        /* \"#utility.yul\":2898:2915   */\n      add\n        /* \"#utility.yul\":2891:2938   */\n      mstore\n        /* \"#utility.yul\":2955:3033   */\n      tag_129\n        /* \"#utility.yul\":3028:3032   */\n      dup2\n        /* \"#utility.yul\":3019:3025   */\n      dup7\n        /* \"#utility.yul\":2955:3033   */\n      tag_66\n      jump\t// in\n    tag_129:\n        /* \"#utility.yul\":2947:3033   */\n      swap1\n      pop\n        /* \"#utility.yul\":3080:3089   */\n      dup2\n        /* \"#utility.yul\":3074:3078   */\n      dup2\n        /* \"#utility.yul\":3070:3090   */\n      sub\n        /* \"#utility.yul\":3065:3067   */\n      0x20\n        /* \"#utility.yul\":3054:3063   */\n      dup4\n        /* \"#utility.yul\":3050:3068   */\n      add\n        /* \"#utility.yul\":3043:3091   */\n      mstore\n        /* \"#utility.yul\":3108:3186   */\n      tag_130\n        /* \"#utility.yul\":3181:3185   */\n      dup2\n        /* \"#utility.yul\":3172:3178   */\n      dup6\n        /* \"#utility.yul\":3108:3186   */\n      tag_66\n      jump\t// in\n    tag_130:\n        /* \"#utility.yul\":3100:3186   */\n      swap1\n      pop\n        /* \"#utility.yul\":3196:3268   */\n      tag_131\n        /* \"#utility.yul\":3264:3266   */\n      0x40\n        /* \"#utility.yul\":3253:3262   */\n      dup4\n        /* \"#utility.yul\":3249:3267   */\n      add\n        /* \"#utility.yul\":3240:3246   */\n      dup5\n        /* \"#utility.yul\":3196:3268   */\n      tag_69\n      jump\t// in\n    tag_131:\n        /* \"#utility.yul\":2651:3275   */\n      swap5\n      swap4\n      pop\n      pop\n      pop\n      pop\n      jump\t// out\n        /* \"#utility.yul\":3281:4016   */\n    tag_21:\n        /* \"#utility.yul\":3498:3502   */\n      0x00\n        /* \"#utility.yul\":3536:3539   */\n      0x80\n        /* \"#utility.yul\":3525:3534   */\n      dup3\n        /* \"#utility.yul\":3521:3540   */\n      add\n        /* \"#utility.yul\":3513:3540   */\n      swap1\n      pop\n        /* \"#utility.yul\":3550:3621   */\n      tag_133\n        /* \"#utility.yul\":3618:3619   */\n      0x00\n        /* \"#utility.yul\":3607:3616   */\n      dup4\n        /* \"#utility.yul\":3603:3620   */\n      add\n        /* \"#utility.yul\":3594:3600   */\n      dup8\n        /* \"#utility.yul\":3550:3621   */\n      tag_56\n      jump\t// in\n    tag_133:\n        /* \"#utility.yul\":3668:3677   */\n      dup2\n        /* \"#utility.yul\":3662:3666   */\n      dup2\n        /* \"#utility.yul\":3658:3678   */\n      sub\n        /* \"#utility.yul\":3653:3655   */\n      0x20\n        /* \"#utility.yul\":3642:3651   */\n      dup4\n        /* \"#utility.yul\":3638:3656   */\n      add\n        /* \"#utility.yul\":3631:3679   */\n      mstore\n        /* \"#utility.yul\":3696:3774   */\n      tag_134\n        /* \"#utility.yul\":3769:3773   */\n      dup2\n        /* \"#utility.yul\":3760:3766   */\n      dup7\n        /* \"#utility.yul\":3696:3774   */\n      tag_66\n      jump\t// in\n    tag_134:\n        /* \"#utility.yul\":3688:3774   */\n      swap1\n      pop\n        /* \"#utility.yul\":3821:3830   */\n      dup2\n        /* \"#utility.yul\":3815:3819   */\n      dup2\n        /* \"#utility.yul\":3811:3831   */\n      sub\n        /* \"#utility.yul\":3806:3808   */\n      0x40\n        /* \"#utility.yul\":3795:3804   */\n      dup4\n        /* \"#utility.yul\":3791:3809   */\n      add\n        /* \"#utility.yul\":3784:3832   */\n      mstore\n        /* \"#utility.yul\":3849:3927   */\n      tag_135\n        /* \"#utility.yul\":3922:3926   */\n      dup2\n        /* \"#utility.yul\":3913:3919   */\n      dup6\n        /* \"#utility.yul\":3849:3927   */\n      tag_66\n      jump\t// in\n    tag_135:\n        /* \"#utility.yul\":3841:3927   */\n      swap1\n      pop\n        /* \"#utility.yul\":3937:4009   */\n      tag_136\n        /* \"#utility.yul\":4005:4007   */\n      0x60\n        /* \"#utility.yul\":3994:4003   */\n      dup4\n        /* \"#utility.yul\":3990:4008   */\n      add\n        /* \"#utility.yul\":3981:3987   */\n      dup5\n        /* \"#utility.yul\":3937:4009   */\n      tag_69\n      jump\t// in\n    tag_136:\n        /* \"#utility.yul\":3281:4016   */\n      swap6\n      swap5\n      pop\n      pop\n      pop\n      pop\n      pop\n      jump\t// out\n        /* \"#utility.yul\":4022:4139   */\n    tag_70:\n        /* \"#utility.yul\":4131:4132   */\n      0x00\n        /* \"#utility.yul\":4128:4129   */\n      dup1\n        /* \"#utility.yul\":4121:4133   */\n      revert\n        /* \"#utility.yul\":4145:4262   */\n    tag_71:\n        /* \"#utility.yul\":4254:4255   */\n      0x00\n        /* \"#utility.yul\":4251:4252   */\n      dup1\n        /* \"#utility.yul\":4244:4256   */\n      revert\n        /* \"#utility.yul\":4268:4448   */\n    tag_72:\n        /* \"#utility.yul\":4316:4393   */\n      0x4e487b7100000000000000000000000000000000000000000000000000000000\n        /* \"#utility.yul\":4313:4314   */\n      0x00\n        /* \"#utility.yul\":4306:4394   */\n      mstore\n        /* \"#utility.yul\":4413:4417   */\n      0x41\n        /* \"#utility.yul\":4410:4411   */\n      0x04\n        /* \"#utility.yul\":4403:4418   */\n      mstore\n        /* \"#utility.yul\":4437:4441   */\n      0x24\n        /* \"#utility.yul\":4434:4435   */\n      0x00\n        /* \"#utility.yul\":4427:4442   */\n      revert\n        /* \"#utility.yul\":4454:4735   */\n    tag_73:\n        /* \"#utility.yul\":4537:4564   */\n      tag_141\n        /* \"#utility.yul\":4559:4563   */\n      dup3\n        /* \"#utility.yul\":4537:4564   */\n      tag_65\n      jump\t// in\n    tag_141:\n        /* \"#utility.yul\":4529:4535   */\n      dup2\n        /* \"#utility.yul\":4525:4565   */\n      add\n        /* \"#utility.yul\":4667:4673   */\n      dup2\n        /* \"#utility.yul\":4655:4665   */\n      dup2\n        /* \"#utility.yul\":4652:4674   */\n      lt\n        /* \"#utility.yul\":4631:4649   */\n      0xffffffffffffffff\n        /* \"#utility.yul\":4619:4629   */\n      dup3\n        /* \"#utility.yul\":4616:4650   */\n      gt\n        /* \"#utility.yul\":4613:4675   */\n      or\n        /* \"#utility.yul\":4610:4698   */\n      iszero\n      tag_142\n      jumpi\n        /* \"#utility.yul\":4678:4696   */\n      tag_143\n      tag_72\n      jump\t// in\n    tag_143:\n        /* \"#utility.yul\":4610:4698   */\n    tag_142:\n        /* \"#utility.yul\":4718:4728   */\n      dup1\n        /* \"#utility.yul\":4714:4716   */\n      0x40\n        /* \"#utility.yul\":4707:4729   */\n      mstore\n        /* \"#utility.yul\":4497:4735   */\n      pop\n        /* \"#utility.yul\":4454:4735   */\n      pop\n      pop\n      jump\t// out\n        /* \"#utility.yul\":4741:4870   */\n    tag_74:\n        /* \"#utility.yul\":4775:4781   */\n      0x00\n        /* \"#utility.yul\":4802:4822   */\n      tag_145\n      tag_57\n      jump\t// in\n    tag_145:\n        /* \"#utility.yul\":4792:4822   */\n      swap1\n      pop\n        /* \"#utility.yul\":4831:4864   */\n      tag_146\n        /* \"#utility.yul\":4859:4863   */\n      dup3\n        /* \"#utility.yul\":4851:4857   */\n      dup3\n        /* \"#utility.yul\":4831:4864   */\n      tag_73\n      jump\t// in\n    tag_146:\n        /* \"#utility.yul\":4741:4870   */\n      swap2\n      swap1\n      pop\n      jump\t// out\n        /* \"#utility.yul\":4876:5184   */\n    tag_75:\n        /* \"#utility.yul\":4938:4942   */\n      0x00\n        /* \"#utility.yul\":5028:5046   */\n      0xffffffffffffffff\n        /* \"#utility.yul\":5020:5026   */\n      dup3\n        /* \"#utility.yul\":5017:5047   */\n      gt\n        /* \"#utility.yul\":5014:5070   */\n      iszero\n      tag_148\n      jumpi\n        /* \"#utility.yul\":5050:5068   */\n      tag_149\n      tag_72\n      jump\t// in\n    tag_149:\n        /* \"#utility.yul\":5014:5070   */\n    tag_148:\n        /* \"#utility.yul\":5088:5117   */\n      tag_150\n        /* \"#utility.yul\":5110:5116   */\n      dup3\n        /* \"#utility.yul\":5088:5117   */\n      tag_65\n      jump\t// in\n    tag_150:\n        /* \"#utility.yul\":5080:5117   */\n      swap1\n      pop\n        /* \"#utility.yul\":5172:5176   */\n      0x20\n        /* \"#utility.yul\":5166:5170   */\n      dup2\n        /* \"#utility.yul\":5162:5177   */\n      add\n        /* \"#utility.yul\":5154:5177   */\n      swap1\n      pop\n        /* \"#utility.yul\":4876:5184   */\n      swap2\n      swap1\n      pop\n      jump\t// out\n        /* \"#utility.yul\":5190:5338   */\n    tag_76:\n        /* \"#utility.yul\":5288:5294   */\n      dup3\n        /* \"#utility.yul\":5283:5286   */\n      dup2\n        /* \"#utility.yul\":5278:5281   */\n      dup4\n        /* \"#utility.yul\":5265:5295   */\n      calldatacopy\n        /* \"#utility.yul\":5329:5330   */\n      0x00\n        /* \"#utility.yul\":5320:5326   */\n      dup4\n        /* \"#utility.yul\":5315:5318   */\n      dup4\n        /* \"#utility.yul\":5311:5327   */\n      add\n        /* \"#utility.yul\":5304:5331   */\n      mstore\n        /* \"#utility.yul\":5190:5338   */\n      pop\n      pop\n      pop\n      jump\t// out\n        /* \"#utility.yul\":5344:5769   */\n    tag_77:\n        /* \"#utility.yul\":5422:5427   */\n      0x00\n        /* \"#utility.yul\":5447:5513   */\n      tag_153\n        /* \"#utility.yul\":5463:5512   */\n      tag_154\n        /* \"#utility.yul\":5505:5511   */\n      dup5\n        /* \"#utility.yul\":5463:5512   */\n      tag_75\n      jump\t// in\n    tag_154:\n        /* \"#utility.yul\":5447:5513   */\n      tag_74\n      jump\t// in\n    tag_153:\n        /* \"#utility.yul\":5438:5513   */\n      swap1\n      pop\n        /* \"#utility.yul\":5536:5542   */\n      dup3\n        /* \"#utility.yul\":5529:5534   */\n      dup2\n        /* \"#utility.yul\":5522:5543   */\n      mstore\n        /* \"#utility.yul\":5574:5578   */\n      0x20\n        /* \"#utility.yul\":5567:5572   */\n      dup2\n        /* \"#utility.yul\":5563:5579   */\n      add\n        /* \"#utility.yul\":5612:5615   */\n      dup5\n        /* \"#utility.yul\":5603:5609   */\n      dup5\n        /* \"#utility.yul\":5598:5601   */\n      dup5\n        /* \"#utility.yul\":5594:5610   */\n      add\n        /* \"#utility.yul\":5591:5616   */\n      gt\n        /* \"#utility.yul\":5588:5700   */\n      iszero\n      tag_155\n      jumpi\n        /* \"#utility.yul\":5619:5698   */\n      tag_156\n      tag_71\n      jump\t// in\n    tag_156:\n        /* \"#utility.yul\":5588:5700   */\n    tag_155:\n        /* \"#utility.yul\":5709:5763   */\n      tag_157\n        /* \"#utility.yul\":5756:5762   */\n      dup5\n        /* \"#utility.yul\":5751:5754   */\n      dup3\n        /* \"#utility.yul\":5746:5749   */\n      dup6\n        /* \"#utility.yul\":5709:5763   */\n      tag_76\n      jump\t// in\n    tag_157:\n        /* \"#utility.yul\":5428:5769   */\n      pop\n        /* \"#utility.yul\":5344:5769   */\n      swap4\n      swap3\n      pop\n      pop\n      pop\n      jump\t// out\n        /* \"#utility.yul\":5789:6129   */\n    tag_78:\n        /* \"#utility.yul\":5845:5850   */\n      0x00\n        /* \"#utility.yul\":5894:5897   */\n      dup3\n        /* \"#utility.yul\":5887:5891   */\n      0x1f\n        /* \"#utility.yul\":5879:5885   */\n      dup4\n        /* \"#utility.yul\":5875:5892   */\n      add\n        /* \"#utility.yul\":5871:5898   */\n      slt\n        /* \"#utility.yul\":5861:5983   */\n      tag_159\n      jumpi\n        /* \"#utility.yul\":5902:5981   */\n      tag_160\n      tag_70\n      jump\t// in\n    tag_160:\n        /* \"#utility.yul\":5861:5983   */\n    tag_159:\n        /* \"#utility.yul\":6019:6025   */\n      dup2\n        /* \"#utility.yul\":6006:6026   */\n      calldataload\n        /* \"#utility.yul\":6044:6123   */\n      tag_161\n        /* \"#utility.yul\":6119:6122   */\n      dup5\n        /* \"#utility.yul\":6111:6117   */\n      dup3\n        /* \"#utility.yul\":6104:6108   */\n      0x20\n        /* \"#utility.yul\":6096:6102   */\n      dup7\n        /* \"#utility.yul\":6092:6109   */\n      add\n        /* \"#utility.yul\":6044:6123   */\n      tag_77\n      jump\t// in\n    tag_161:\n        /* \"#utility.yul\":6035:6123   */\n      swap2\n      pop\n        /* \"#utility.yul\":5851:6129   */\n      pop\n        /* \"#utility.yul\":5789:6129   */\n      swap3\n      swap2\n      pop\n      pop\n      jump\t// out\n        /* \"#utility.yul\":6135:6969   */\n    tag_24:\n        /* \"#utility.yul\":6223:6229   */\n      0x00\n        /* \"#utility.yul\":6231:6237   */\n      dup1\n        /* \"#utility.yul\":6280:6282   */\n      0x40\n        /* \"#utility.yul\":6268:6277   */\n      dup4\n        /* \"#utility.yul\":6259:6266   */\n      dup6\n        /* \"#utility.yul\":6255:6278   */\n      sub\n        /* \"#utility.yul\":6251:6283   */\n      slt\n        /* \"#utility.yul\":6248:6367   */\n      iszero\n      tag_163\n      jumpi\n        /* \"#utility.yul\":6286:6365   */\n      tag_164\n      tag_58\n      jump\t// in\n    tag_164:\n        /* \"#utility.yul\":6248:6367   */\n    tag_163:\n        /* \"#utility.yul\":6434:6435   */\n      0x00\n        /* \"#utility.yul\":6423:6432   */\n      dup4\n        /* \"#utility.yul\":6419:6436   */\n      add\n        /* \"#utility.yul\":6406:6437   */\n      calldataload\n        /* \"#utility.yul\":6464:6482   */\n      0xffffffffffffffff\n        /* \"#utility.yul\":6456:6462   */\n      dup2\n        /* \"#utility.yul\":6453:6483   */\n      gt\n        /* \"#utility.yul\":6450:6567   */\n      iszero\n      tag_165\n      jumpi\n        /* \"#utility.yul\":6486:6565   */\n      tag_166\n      tag_59\n      jump\t// in\n    tag_166:\n        /* \"#utility.yul\":6450:6567   */\n    tag_165:\n        /* \"#utility.yul\":6591:6654   */\n      tag_167\n        /* \"#utility.yul\":6646:6653   */\n      dup6\n        /* \"#utility.yul\":6637:6643   */\n      dup3\n        /* \"#utility.yul\":6626:6635   */\n      dup7\n        /* \"#utility.yul\":6622:6644   */\n      add\n        /* \"#utility.yul\":6591:6654   */\n      tag_78\n      jump\t// in\n    tag_167:\n        /* \"#utility.yul\":6581:6654   */\n      swap3\n      pop\n        /* \"#utility.yul\":6377:6664   */\n      pop\n        /* \"#utility.yul\":6731:6733   */\n      0x20\n        /* \"#utility.yul\":6720:6729   */\n      dup4\n        /* \"#utility.yul\":6716:6734   */\n      add\n        /* \"#utility.yul\":6703:6735   */\n      calldataload\n        /* \"#utility.yul\":6762:6780   */\n      0xffffffffffffffff\n        /* \"#utility.yul\":6754:6760   */\n      dup2\n        /* \"#utility.yul\":6751:6781   */\n      gt\n        /* \"#utility.yul\":6748:6865   */\n      iszero\n      tag_168\n      jumpi\n        /* \"#utility.yul\":6784:6863   */\n      tag_169\n      tag_59\n      jump\t// in\n    tag_169:\n        /* \"#utility.yul\":6748:6865   */\n    tag_168:\n        /* \"#utility.yul\":6889:6952   */\n      tag_170\n        /* \"#utility.yul\":6944:6951   */\n      dup6\n        /* \"#utility.yul\":6935:6941   */\n      dup3\n        /* \"#utility.yul\":6924:6933   */\n      dup7\n        /* \"#utility.yul\":6920:6942   */\n      add\n        /* \"#utility.yul\":6889:6952   */\n      tag_78\n      jump\t// in\n    tag_170:\n        /* \"#utility.yul\":6879:6952   */\n      swap2\n      pop\n        /* \"#utility.yul\":6674:6962   */\n      pop\n        /* \"#utility.yul\":6135:6969   */\n      swap3\n      pop\n      swap3\n      swap1\n      pop\n      jump\t// out\n        /* \"#utility.yul\":6975:7155   */\n    tag_79:\n        /* \"#utility.yul\":7023:7100   */\n      0x4e487b7100000000000000000000000000000000000000000000000000000000\n        /* \"#utility.yul\":7020:7021   */\n      0x00\n        /* \"#utility.yul\":7013:7101   */\n      mstore\n        /* \"#utility.yul\":7120:7124   */\n      0x22\n        /* \"#utility.yul\":7117:7118   */\n      0x04\n        /* \"#utility.yul\":7110:7125   */\n      mstore\n        /* \"#utility.yul\":7144:7148   */\n      0x24\n        /* \"#utility.yul\":7141:7142   */\n      0x00\n        /* \"#utility.yul\":7134:7149   */\n      revert\n        /* \"#utility.yul\":7161:7481   */\n    tag_28:\n        /* \"#utility.yul\":7205:7211   */\n      0x00\n        /* \"#utility.yul\":7242:7243   */\n      0x02\n        /* \"#utility.yul\":7236:7240   */\n      dup3\n        /* \"#utility.yul\":7232:7244   */\n      div\n        /* \"#utility.yul\":7222:7244   */\n      swap1\n      pop\n        /* \"#utility.yul\":7289:7290   */\n      0x01\n        /* \"#utility.yul\":7283:7287   */\n      dup3\n        /* \"#utility.yul\":7279:7291   */\n      and\n        /* \"#utility.yul\":7310:7328   */\n      dup1\n        /* \"#utility.yul\":7300:7381   */\n      tag_173\n      jumpi\n        /* \"#utility.yul\":7366:7370   */\n      0x7f\n        /* \"#utility.yul\":7358:7364   */\n      dup3\n        /* \"#utility.yul\":7354:7371   */\n      and\n        /* \"#utility.yul\":7344:7371   */\n      swap2\n      pop\n        /* \"#utility.yul\":7300:7381   */\n    tag_173:\n        /* \"#utility.yul\":7428:7430   */\n      0x20\n        /* \"#utility.yul\":7420:7426   */\n      dup3\n        /* \"#utility.yul\":7417:7431   */\n      lt\n        /* \"#utility.yul\":7397:7415   */\n      dup2\n        /* \"#utility.yul\":7394:7432   */\n      sub\n        /* \"#utility.yul\":7391:7475   */\n      tag_174\n      jumpi\n        /* \"#utility.yul\":7447:7465   */\n      tag_175\n      tag_79\n      jump\t// in\n    tag_175:\n        /* \"#utility.yul\":7391:7475   */\n    tag_174:\n        /* \"#utility.yul\":7212:7481   */\n      pop\n        /* \"#utility.yul\":7161:7481   */\n      swap2\n      swap1\n      pop\n      jump\t// out\n        /* \"#utility.yul\":7487:7667   */\n    tag_80:\n        /* \"#utility.yul\":7535:7612   */\n      0x4e487b7100000000000000000000000000000000000000000000000000000000\n        /* \"#utility.yul\":7532:7533   */\n      0x00\n        /* \"#utility.yul\":7525:7613   */\n      mstore\n        /* \"#utility.yul\":7632:7636   */\n      0x11\n        /* \"#utility.yul\":7629:7630   */\n      0x04\n        /* \"#utility.yul\":7622:7637   */\n      mstore\n        /* \"#utility.yul\":7656:7660   */\n      0x24\n        /* \"#utility.yul\":7653:7654   */\n      0x00\n        /* \"#utility.yul\":7646:7661   */\n      revert\n        /* \"#utility.yul\":7673:7906   */\n    tag_50:\n        /* \"#utility.yul\":7712:7715   */\n      0x00\n        /* \"#utility.yul\":7735:7759   */\n      tag_178\n        /* \"#utility.yul\":7753:7758   */\n      dup3\n        /* \"#utility.yul\":7735:7759   */\n      tag_55\n      jump\t// in\n    tag_178:\n        /* \"#utility.yul\":7726:7759   */\n      swap2\n      pop\n        /* \"#utility.yul\":7781:7847   */\n      0xffffffffffffffffffffffffffffffffffffffffffffffffffffffffffffffff\n        /* \"#utility.yul\":7774:7779   */\n      dup3\n        /* \"#utility.yul\":7771:7848   */\n      sub\n        /* \"#utility.yul\":7768:7871   */\n      tag_179\n      jumpi\n        /* \"#utility.yul\":7851:7869   */\n      tag_180\n      tag_80\n      jump\t// in\n    tag_180:\n        /* \"#utility.yul\":7768:7871   */\n    tag_179:\n        /* \"#utility.yul\":7898:7899   */\n      0x01\n        /* \"#utility.yul\":7891:7896   */\n      dup3\n        /* \"#utility.yul\":7887:7900   */\n      add\n        /* \"#utility.yul\":7880:7900   */\n      swap1\n      pop\n        /* \"#utility.yul\":7673:7906   */\n      swap2\n      swap1\n      pop\n      jump\t// out\n        /* \"#utility.yul\":7912:8053   */\n    tag_81:\n        /* \"#utility.yul\":7961:7965   */\n      0x00\n        /* \"#utility.yul\":7984:7987   */\n      dup2\n        /* \"#utility.yul\":7976:7987   */\n      swap1\n      pop\n        /* \"#utility.yul\":8007:8010   */\n      dup2\n        /* \"#utility.yul\":8004:8005   */\n      0x00\n        /* \"#utility.yul\":7997:8011   */\n      mstore\n        /* \"#utility.yul\":8041:8045   */\n      0x20\n        /* \"#utility.yul\":8038:8039   */\n      0x00\n        /* \"#utility.yul\":8028:8046   */\n      keccak256\n        /* \"#utility.yul\":8020:8046   */\n      swap1\n      pop\n        /* \"#utility.yul\":7912:8053   */\n      swap2\n      swap1\n      pop\n      jump\t// out\n        /* \"#utility.yul\":8059:8152   */\n    tag_82:\n        /* \"#utility.yul\":8096:8102   */\n      0x00\n        /* \"#utility.yul\":8143:8145   */\n      0x20\n        /* \"#utility.yul\":8138:8140   */\n      0x1f\n        /* \"#utility.yul\":8131:8136   */\n      dup4\n        /* \"#utility.yul\":8127:8141   */\n      add\n        /* \"#utility.yul\":8123:8146   */\n      div\n        /* \"#utility.yul\":8113:8146   */\n      swap1\n      pop\n        /* \"#utility.yul\":8059:8152   */\n      swap2\n      swap1\n      pop\n      jump\t// out\n        /* \"#utility.yul\":8158:8265   */\n    tag_83:\n        /* \"#utility.yul\":8202:8210   */\n      0x00\n        /* \"#utility.yul\":8252:8257   */\n      dup3\n        /* \"#utility.yul\":8246:8250   */\n      dup3\n        /* \"#utility.yul\":8242:8258   */\n      shl\n        /* \"#utility.yul\":8221:8258   */\n      swap1\n      pop\n        /* \"#utility.yul\":8158:8265   */\n      swap3\n      swap2\n      pop\n      pop\n      jump\t// out\n        /* \"#utility.yul\":8271:8664   */\n    tag_84:\n        /* \"#utility.yul\":8340:8346   */\n      0x00\n        /* \"#utility.yul\":8390:8391   */\n      0x08\n        /* \"#utility.yul\":8378:8388   */\n      dup4\n        /* \"#utility.yul\":8374:8392   */\n      mul\n        /* \"#utility.yul\":8413:8510   */\n      tag_185\n        /* \"#utility.yul\":8443:8509   */\n      0xffffffffffffffffffffffffffffffffffffffffffffffffffffffffffffffff\n        /* \"#utility.yul\":8432:8441   */\n      dup3\n        /* \"#utility.yul\":8413:8510   */\n      tag_83\n      jump\t// in\n    tag_185:\n        /* \"#utility.yul\":8531:8570   */\n      tag_186\n        /* \"#utility.yul\":8561:8569   */\n      dup7\n        /* \"#utility.yul\":8550:8559   */\n      dup4\n        /* \"#utility.yul\":8531:8570   */\n      tag_83\n      jump\t// in\n    tag_186:\n        /* \"#utility.yul\":8519:8570   */\n      swap6\n      pop\n        /* \"#utility.yul\":8603:8607   */\n      dup1\n        /* \"#utility.yul\":8599:8608   */\n      not\n        /* \"#utility.yul\":8592:8597   */\n      dup5\n        /* \"#utility.yul\":8588:8609   */\n      and\n        /* \"#utility.yul\":8579:8609   */\n      swap4\n      pop\n        /* \"#utility.yul\":8652:8656   */\n      dup1\n        /* \"#utility.yul\":8642:8650   */\n      dup7\n        /* \"#utility.yul\":8638:8657   */\n      and\n        /* \"#utility.yul\":8631:8636   */\n      dup5\n        /* \"#utility.yul\":8628:8658   */\n      or\n        /* \"#utility.yul\":8618:8658   */\n      swap3\n      pop\n        /* \"#utility.yul\":8347:8664   */\n      pop\n      pop\n        /* \"#utility.yul\":8271:8664   */\n      swap4\n      swap3\n      pop\n      pop\n      pop\n      jump\t// out\n        /* \"#utility.yul\":8670:8730   */\n    tag_85:\n        /* \"#utility.yul\":8698:8701   */\n      0x00\n        /* \"#utility.yul\":8719:8724   */\n      dup2\n        /* \"#utility.yul\":8712:8724   */\n      swap1\n      pop\n        /* \"#utility.yul\":8670:8730   */\n      swap2\n      swap1\n      pop\n      jump\t// out\n        /* \"#utility.yul\":8736:8878   */\n    tag_86:\n        /* \"#utility.yul\":8786:8795   */\n      0x00\n        /* \"#utility.yul\":8819:8872   */\n      tag_189\n        /* \"#utility.yul\":8837:8871   */\n      tag_190\n        /* \"#utility.yul\":8846:8870   */\n      tag_191\n        /* \"#utility.yul\":8864:8869   */\n      dup5\n        /* \"#utility.yul\":8846:8870   */\n      tag_55\n      jump\t// in\n    tag_191:\n        /* \"#utility.yul\":8837:8871   */\n      tag_85\n      jump\t// in\n    tag_190:\n        /* \"#utility.yul\":8819:8872   */\n      tag_55\n      jump\t// in\n    tag_189:\n        /* \"#utility.yul\":8806:8872   */\n      swap1\n      pop\n        /* \"#utility.yul\":8736:8878   */\n      swap2\n      swap1\n      pop\n      jump\t// out\n        /* \"#utility.yul\":8884:8959   */\n    tag_87:\n        /* \"#utility.yul\":8927:8930   */\n      0x00\n        /* \"#utility.yul\":8948:8953   */\n      dup2\n        /* \"#utility.yul\":8941:8953   */\n      swap1\n      pop\n        /* \"#utility.yul\":8884:8959   */\n      swap2\n      swap1\n      pop\n      jump\t// out\n        /* \"#utility.yul\":8965:9234   */\n    tag_88:\n        /* \"#utility.yul\":9075:9114   */\n      tag_194\n        /* \"#utility.yul\":9106:9113   */\n      dup4\n        /* \"#utility.yul\":9075:9114   */\n      tag_86\n      jump\t// in\n    tag_194:\n        /* \"#utility.yul\":9136:9227   */\n      tag_195\n        /* \"#utility.yul\":9185:9226   */\n      tag_196\n        /* \"#utility.yul\":9209:9225   */\n      dup3\n        /* \"#utility.yul\":9185:9226   */\n      tag_87\n      jump\t// in\n    tag_196:\n        /* \"#utility.yul\":9177:9183   */\n      dup5\n        /* \"#utility.yul\":9170:9174   */\n      dup5\n        /* \"#utility.yul\":9164:9175   */\n      sload\n        /* \"#utility.yul\":9136:9227   */\n      tag_84\n      jump\t// in\n    tag_195:\n        /* \"#utility.yul\":9130:9134   */\n      dup3\n        /* \"#utility.yul\":9123:9228   */\n      sstore\n        /* \"#utility.yul\":9041:9234   */\n      pop\n        /* \"#utility.yul\":8965:9234   */\n      pop\n      pop\n      pop\n      jump\t// out\n        /* \"#utility.yul\":9240:9313   */\n    tag_89:\n        /* \"#utility.yul\":9285:9288   */\n      0x00\n        /* \"#utility.yul\":9240:9313   */\n      swap1\n      jump\t// out\n        /* \"#utility.yul\":9319:9508   */\n    tag_90:\n        /* \"#utility.yul\":9396:9428   */\n      tag_199\n      tag_89\n      jump\t// in\n    tag_199:\n        /* \"#utility.yul\":9437:9502   */\n      tag_200\n        /* \"#utility.yul\":9495:9501   */\n      dup2\n        /* \"#utility.yul\":9487:9493   */\n      dup5\n        /* \"#utility.yul\":9481:9485   */\n      dup5\n        /* \"#utility.yul\":9437:9502   */\n      tag_88\n      jump\t// in\n    tag_200:\n        /* \"#utility.yul\":9372:9508   */\n      pop\n        /* \"#utility.yul\":9319:9508   */\n      pop\n      pop\n      jump\t// out\n        /* \"#utility.yul\":9514:9700   */\n    tag_91:\n        /* \"#utility.yul\":9574:9694   */\n    tag_202:\n        /* \"#utility.yul\":9591:9594   */\n      dup2\n        /* \"#utility.yul\":9584:9589   */\n      dup2\n        /* \"#utility.yul\":9581:9595   */\n      lt\n        /* \"#utility.yul\":9574:9694   */\n      iszero\n      tag_204\n      jumpi\n        /* \"#utility.yul\":9645:9684   */\n      tag_205\n        /* \"#utility.yul\":9682:9683   */\n      0x00\n        /* \"#utility.yul\":9675:9680   */\n      dup3\n        /* \"#utility.yul\":9645:9684   */\n      tag_90\n      jump\t// in\n    tag_205:\n        /* \"#utility.yul\":9618:9619   */\n      0x01\n        /* \"#utility.yul\":9611:9616   */\n      dup2\n        /* \"#utility.yul\":9607:9620   */\n      add\n        /* \"#utility.yul\":9598:9620   */\n      swap1\n      pop\n        /* \"#utility.yul\":9574:9694   */\n      jump(tag_202)\n    tag_204:\n        /* \"#utility.yul\":9514:9700   */\n      pop\n      pop\n      jump\t// out\n        /* \"#utility.yul\":9706:10249   */\n    tag_92:\n        /* \"#utility.yul\":9807:9809   */\n      0x1f\n        /* \"#utility.yul\":9802:9805   */\n      dup3\n        /* \"#utility.yul\":9799:9810   */\n      gt\n        /* \"#utility.yul\":9796:10242   */\n      iszero\n      tag_207\n      jumpi\n        /* \"#utility.yul\":9841:9879   */\n      tag_208\n        /* \"#utility.yul\":9873:9878   */\n      dup2\n        /* \"#utility.yul\":9841:9879   */\n      tag_81\n      jump\t// in\n    tag_208:\n        /* \"#utility.yul\":9925:9954   */\n      tag_209\n        /* \"#utility.yul\":9943:9953   */\n      dup5\n        /* \"#utility.yul\":9925:9954   */\n      tag_82\n      jump\t// in\n    tag_209:\n        /* \"#utility.yul\":9915:9923   */\n      dup2\n        /* \"#utility.yul\":9911:9955   */\n      add\n        /* \"#utility.yul\":10108:10110   */\n      0x20\n        /* \"#utility.yul\":10096:10106   */\n      dup6\n        /* \"#utility.yul\":10093:10111   */\n      lt\n        /* \"#utility.yul\":10090:10139   */\n      iszero\n      tag_210\n      jumpi\n        /* \"#utility.yul\":10129:10137   */\n      dup2\n        /* \"#utility.yul\":10114:10137   */\n      swap1\n      pop\n        /* \"#utility.yul\":10090:10139   */\n    tag_210:\n        /* \"#utility.yul\":10152:10232   */\n      tag_211\n        /* \"#utility.yul\":10208:10230   */\n      tag_212\n        /* \"#utility.yul\":10226:10229   */\n      dup6\n        /* \"#utility.yul\":10208:10230   */\n      tag_82\n      jump\t// in\n    tag_212:\n        /* \"#utility.yul\":10198:10206   */\n      dup4\n        /* \"#utility.yul\":10194:10231   */\n      add\n        /* \"#utility.yul\":10181:10192   */\n      dup3\n        /* \"#utility.yul\":10152:10232   */\n      tag_91\n      jump\t// in\n    tag_211:\n        /* \"#utility.yul\":9811:10242   */\n      pop\n      pop\n        /* \"#utility.yul\":9796:10242   */\n    tag_207:\n        /* \"#utility.yul\":9706:10249   */\n      pop\n      pop\n      pop\n      jump\t// out\n        /* \"#utility.yul\":10255:10372   */\n    tag_93:\n        /* \"#utility.yul\":10309:10317   */\n      0x00\n        /* \"#utility.yul\":10359:10364   */\n      dup3\n        /* \"#utility.yul\":10353:10357   */\n      dup3\n        /* \"#utility.yul\":10349:10365   */\n      shr\n        /* \"#utility.yul\":10328:10365   */\n      swap1\n      pop\n        /* \"#utility.yul\":10255:10372   */\n      swap3\n      swap2\n      pop\n      pop\n      jump\t// out\n        /* \"#utility.yul\":10378:10547   */\n    tag_94:\n        /* \"#utility.yul\":10422:10428   */\n      0x00\n        /* \"#utility.yul\":10455:10506   */\n      tag_215\n        /* \"#utility.yul\":10503:10504   */\n      0x00\n        /* \"#utility.yul\":10499:10505   */\n      not\n        /* \"#utility.yul\":10491:10496   */\n      dup5\n        /* \"#utility.yul\":10488:10489   */\n      0x08\n        /* \"#utility.yul\":10484:10497   */\n      mul\n        /* \"#utility.yul\":10455:10506   */\n      tag_93\n      jump\t// in\n    tag_215:\n        /* \"#utility.yul\":10451:10507   */\n      not\n        /* \"#utility.yul\":10536:10540   */\n      dup1\n        /* \"#utility.yul\":10530:10534   */\n      dup4\n        /* \"#utility.yul\":10526:10541   */\n      and\n        /* \"#utility.yul\":10516:10541   */\n      swap2\n      pop\n        /* \"#utility.yul\":10429:10547   */\n      pop\n        /* \"#utility.yul\":10378:10547   */\n      swap3\n      swap2\n      pop\n      pop\n      jump\t// out\n        /* \"#utility.yul\":10552:10847   */\n    tag_95:\n        /* \"#utility.yul\":10628:10632   */\n      0x00\n        /* \"#utility.yul\":10774:10803   */\n      tag_217\n        /* \"#utility.yul\":10799:10802   */\n      dup4\n        /* \"#utility.yul\":10793:10797   */\n      dup4\n        /* \"#utility.yul\":10774:10803   */\n      tag_94\n      jump\t// in\n    tag_217:\n        /* \"#utility.yul\":10766:10803   */\n      swap2\n      pop\n        /* \"#utility.yul\":10836:10839   */\n      dup3\n        /* \"#utility.yul\":10833:10834   */\n      0x02\n        /* \"#utility.yul\":10829:10840   */\n      mul\n        /* \"#utility.yul\":10823:10827   */\n      dup3\n        /* \"#utility.yul\":10820:10841   */\n      or\n        /* \"#utility.yul\":10812:10841   */\n      swap1\n      pop\n        /* \"#utility.yul\":10552:10847   */\n      swap3\n      swap2\n      pop\n      pop\n      jump\t// out\n        /* \"#utility.yul\":10852:12247   */\n    tag_52:\n        /* \"#utility.yul\":10969:11006   */\n      tag_219\n        /* \"#utility.yul\":11002:11005   */\n      dup3\n        /* \"#utility.yul\":10969:11006   */\n      tag_62\n      jump\t// in\n    tag_219:\n        /* \"#utility.yul\":11071:11089   */\n      0xffffffffffffffff\n        /* \"#utility.yul\":11063:11069   */\n      dup2\n        /* \"#utility.yul\":11060:11090   */\n      gt\n        /* \"#utility.yul\":11057:11113   */\n      iszero\n      tag_220\n      jumpi\n        /* \"#utility.yul\":11093:11111   */\n      tag_221\n      tag_72\n      jump\t// in\n    tag_221:\n        /* \"#utility.yul\":11057:11113   */\n    tag_220:\n        /* \"#utility.yul\":11137:11175   */\n      tag_222\n        /* \"#utility.yul\":11169:11173   */\n      dup3\n        /* \"#utility.yul\":11163:11174   */\n      sload\n        /* \"#utility.yul\":11137:11175   */\n      tag_28\n      jump\t// in\n    tag_222:\n        /* \"#utility.yul\":11222:11289   */\n      tag_223\n        /* \"#utility.yul\":11282:11288   */\n      dup3\n        /* \"#utility.yul\":11274:11280   */\n      dup3\n        /* \"#utility.yul\":11268:11272   */\n      dup6\n        /* \"#utility.yul\":11222:11289   */\n      tag_92\n      jump\t// in\n    tag_223:\n        /* \"#utility.yul\":11316:11317   */\n      0x00\n        /* \"#utility.yul\":11340:11344   */\n      0x20\n        /* \"#utility.yul\":11327:11344   */\n      swap1\n      pop\n        /* \"#utility.yul\":11372:11374   */\n      0x1f\n        /* \"#utility.yul\":11364:11370   */\n      dup4\n        /* \"#utility.yul\":11361:11375   */\n      gt\n        /* \"#utility.yul\":11389:11390   */\n      0x01\n        /* \"#utility.yul\":11384:12002   */\n      dup2\n      eq\n      tag_225\n      jumpi\n        /* \"#utility.yul\":12046:12047   */\n      0x00\n        /* \"#utility.yul\":12063:12069   */\n      dup5\n        /* \"#utility.yul\":12060:12137   */\n      iszero\n      tag_226\n      jumpi\n        /* \"#utility.yul\":12112:12121   */\n      dup3\n        /* \"#utility.yul\":12107:12110   */\n      dup8\n        /* \"#utility.yul\":12103:12122   */\n      add\n        /* \"#utility.yul\":12097:12123   */\n      mload\n        /* \"#utility.yul\":12088:12123   */\n      swap1\n      pop\n        /* \"#utility.yul\":12060:12137   */\n    tag_226:\n        /* \"#utility.yul\":12163:12230   */\n      tag_227\n        /* \"#utility.yul\":12223:12229   */\n      dup6\n        /* \"#utility.yul\":12216:12221   */\n      dup3\n        /* \"#utility.yul\":12163:12230   */\n      tag_95\n      jump\t// in\n    tag_227:\n        /* \"#utility.yul\":12157:12161   */\n      dup7\n        /* \"#utility.yul\":12150:12231   */\n      sstore\n        /* \"#utility.yul\":12019:12241   */\n      pop\n        /* \"#utility.yul\":11354:12241   */\n      jump(tag_224)\n        /* \"#utility.yul\":11384:12002   */\n    tag_225:\n        /* \"#utility.yul\":11436:11440   */\n      0x1f\n        /* \"#utility.yul\":11432:11441   */\n      not\n        /* \"#utility.yul\":11424:11430   */\n      dup5\n        /* \"#utility.yul\":11420:11442   */\n      and\n        /* \"#utility.yul\":11470:11507   */\n      tag_228\n        /* \"#utility.yul\":11502:11506   */\n      dup7\n        /* \"#utility.yul\":11470:11507   */\n      tag_81\n      jump\t// in\n    tag_228:\n        /* \"#utility.yul\":11529:11530   */\n      0x00\n        /* \"#utility.yul\":11543:11751   */\n    tag_229:\n        /* \"#utility.yul\":11557:11564   */\n      dup3\n        /* \"#utility.yul\":11554:11555   */\n      dup2\n        /* \"#utility.yul\":11551:11565   */\n      lt\n        /* \"#utility.yul\":11543:11751   */\n      iszero\n      tag_231\n      jumpi\n        /* \"#utility.yul\":11636:11645   */\n      dup5\n        /* \"#utility.yul\":11631:11634   */\n      dup10\n        /* \"#utility.yul\":11627:11646   */\n      add\n        /* \"#utility.yul\":11621:11647   */\n      mload\n        /* \"#utility.yul\":11613:11619   */\n      dup3\n        /* \"#utility.yul\":11606:11648   */\n      sstore\n        /* \"#utility.yul\":11687:11688   */\n      0x01\n        /* \"#utility.yul\":11679:11685   */\n      dup3\n        /* \"#utility.yul\":11675:11689   */\n      add\n        /* \"#utility.yul\":11665:11689   */\n      swap2\n      pop\n        /* \"#utility.yul\":11734:11736   */\n      0x20\n        /* \"#utility.yul\":11723:11732   */\n      dup6\n        /* \"#utility.yul\":11719:11737   */\n      add\n        /* \"#utility.yul\":11706:11737   */\n      swap5\n      pop\n        /* \"#utility.yul\":11580:11584   */\n      0x20\n        /* \"#utility.yul\":11577:11578   */\n      dup2\n        /* \"#utility.yul\":11573:11585   */\n      add\n        /* \"#utility.yul\":11568:11585   */\n      swap1\n      pop\n        /* \"#utility.yul\":11543:11751   */\n      jump(tag_229)\n    tag_231:\n        /* \"#utility.yul\":11779:11785   */\n      dup7\n        /* \"#utility.yul\":11770:11777   */\n      dup4\n        /* \"#utility.yul\":11767:11786   */\n      lt\n        /* \"#utility.yul\":11764:11943   */\n      iszero\n      tag_232\n      jumpi\n        /* \"#utility.yul\":11837:11846   */\n      dup5\n        /* \"#utility.yul\":11832:11835   */\n      dup10\n        /* \"#utility.yul\":11828:11847   */\n      add\n        /* \"#utility.yul\":11822:11848   */\n      mload\n        /* \"#utility.yul\":11880:11928   */\n      tag_233\n        /* \"#utility.yul\":11922:11926   */\n      0x1f\n        /* \"#utility.yul\":11914:11920   */\n      dup10\n        /* \"#utility.yul\":11910:11927   */\n      and\n        /* \"#utility.yul\":11899:11908   */\n      dup3\n        /* \"#utility.yul\":11880:11928   */\n      tag_94\n      jump\t// in\n    tag_233:\n        /* \"#utility.yul\":11872:11878   */\n      dup4\n        /* \"#utility.yul\":11865:11929   */\n      sstore\n        /* \"#utility.yul\":11787:11943   */\n      pop\n        /* \"#utility.yul\":11764:11943   */\n    tag_232:\n        /* \"#utility.yul\":11989:11990   */\n      0x01\n        /* \"#utility.yul\":11985:11986   */\n      0x02\n        /* \"#utility.yul\":11977:11983   */\n      dup9\n        /* \"#utility.yul\":11973:11987   */\n      mul\n        /* \"#utility.yul\":11969:11991   */\n      add\n        /* \"#utility.yul\":11963:11967   */\n      dup9\n        /* \"#utility.yul\":11956:11992   */\n      sstore\n        /* \"#utility.yul\":11391:12002   */\n      pop\n      pop\n      pop\n        /* \"#utility.yul\":11354:12241   */\n    tag_224:\n      pop\n        /* \"#utility.yul\":10944:12247   */\n      pop\n      pop\n      pop\n        /* \"#utility.yul\":10852:12247   */\n      pop\n      pop\n      jump\t// out\n\n    auxdata: 0xa26469706673582212200d4e9d219c6c06ab46fc53b82e730c235847ff91f263244e24244d21acfb653064736f6c634300081a0033\n}\n",
				"bytecode": {
					"linkReferences": {},
					"object": "6080604052348015600e575f80fd5b50610c178061001c5f395ff3fe608060405234801561000f575f80fd5b506004361061004a575f3560e01c80634a5c4dfe1461004e5780636b45c9f21461006c5780638f64be301461009e578063a0544ed1146100d1575b5f80fd5b6100566100ed565b6040516100639190610540565b60405180910390f35b61008660048036038101906100819190610594565b6100f3565b6040516100959392919061066e565b60405180910390f35b6100b860048036038101906100b39190610594565b6102b0565b6040516100c894939291906106b1565b60405180910390f35b6100eb60048036038101906100e6919061082e565b610406565b005b60015481565b6060805f805f808681526020019081526020015f206040518060800160405290815f820154815260200160018201805461012c906108d1565b80601f0160208091040260200160405190810160405280929190818152602001828054610158906108d1565b80156101a35780601f1061017a576101008083540402835291602001916101a3565b820191905f5260205f20905b81548152906001019060200180831161018657829003601f168201915b505050505081526020016002820180546101bc906108d1565b80601f01602080910402602001604051908101604052809291908181526020018280546101e8906108d1565b80156102335780601f1061020a57610100808354040283529160200191610233565b820191905f5260205f20905b81548152906001019060200180831161021657829003601f168201915b50505050508152602001600382015f9054906101000a900473ffffffffffffffffffffffffffffffffffffffff1673ffffffffffffffffffffffffffffffffffffffff1673ffffffffffffffffffffffffffffffffffffffff16815250509050806020015181604001518260600151935093509350509193909250565b5f602052805f5260405f205f91509050805f0154908060010180546102d4906108d1565b80601f0160208091040260200160405190810160405280929190818152602001828054610300906108d1565b801561034b5780601f106103225761010080835404028352916020019161034b565b820191905f5260205f20905b81548152906001019060200180831161032e57829003601f168201915b505050505090806002018054610360906108d1565b80601f016020809104026020016040519081016040528092919081815260200182805461038c906108d1565b80156103d75780601f106103ae576101008083540402835291602001916103d7565b820191905f5260205f20905b8154815290600101906020018083116103ba57829003601f168201915b505050505090806003015f9054906101000a900473ffffffffffffffffffffffffffffffffffffffff16905084565b60015f8154809291906104189061092e565b9190505550604051806080016040528060015481526020018381526020018281526020013373ffffffffffffffffffffffffffffffffffffffff168152505f8060015481526020019081526020015f205f820151815f015560208201518160010190816104859190610b12565b50604082015181600201908161049b9190610b12565b506060820151816003015f6101000a81548173ffffffffffffffffffffffffffffffffffffffff021916908373ffffffffffffffffffffffffffffffffffffffff1602179055509050507fccb038bebb776284ac3749c98d8ae61befe713a6f19d8c073bd45910f04a089760015483833360405161051c94939291906106b1565b60405180910390a15050565b5f819050919050565b61053a81610528565b82525050565b5f6020820190506105535f830184610531565b92915050565b5f604051905090565b5f80fd5b5f80fd5b61057381610528565b811461057d575f80fd5b50565b5f8135905061058e8161056a565b92915050565b5f602082840312156105a9576105a8610562565b5b5f6105b684828501610580565b91505092915050565b5f81519050919050565b5f82825260208201905092915050565b8281835e5f83830152505050565b5f601f19601f8301169050919050565b5f610601826105bf565b61060b81856105c9565b935061061b8185602086016105d9565b610624816105e7565b840191505092915050565b5f73ffffffffffffffffffffffffffffffffffffffff82169050919050565b5f6106588261062f565b9050919050565b6106688161064e565b82525050565b5f6060820190508181035f83015261068681866105f7565b9050818103602083015261069a81856105f7565b90506106a9604083018461065f565b949350505050565b5f6080820190506106c45f830187610531565b81810360208301526106d681866105f7565b905081810360408301526106ea81856105f7565b90506106f9606083018461065f565b95945050505050565b5f80fd5b5f80fd5b7f4e487b71000000000000000000000000000000000000000000000000000000005f52604160045260245ffd5b610740826105e7565b810181811067ffffffffffffffff8211171561075f5761075e61070a565b5b80604052505050565b5f610771610559565b905061077d8282610737565b919050565b5f67ffffffffffffffff82111561079c5761079b61070a565b5b6107a5826105e7565b9050602081019050919050565b828183375f83830152505050565b5f6107d26107cd84610782565b610768565b9050828152602081018484840111156107ee576107ed610706565b5b6107f98482856107b2565b509392505050565b5f82601f83011261081557610814610702565b5b81356108258482602086016107c0565b91505092915050565b5f806040838503121561084457610843610562565b5b5f83013567ffffffffffffffff81111561086157610860610566565b5b61086d85828601610801565b925050602083013567ffffffffffffffff81111561088e5761088d610566565b5b61089a85828601610801565b9150509250929050565b7f4e487b71000000000000000000000000000000000000000000000000000000005f52602260045260245ffd5b5f60028204905060018216806108e857607f821691505b6020821081036108fb576108fa6108a4565b5b50919050565b7f4e487b71000000000000000000000000000000000000000000000000000000005f52601160045260245ffd5b5f61093882610528565b91507fffffffffffffffffffffffffffffffffffffffffffffffffffffffffffffffff820361096a57610969610901565b5b600182019050919050565b5f819050815f5260205f209050919050565b5f6020601f8301049050919050565b5f82821b905092915050565b5f600883026109d17fffffffffffffffffffffffffffffffffffffffffffffffffffffffffffffffff82610996565b6109db8683610996565b95508019841693508086168417925050509392505050565b5f819050919050565b5f610a16610a11610a0c84610528565b6109f3565b610528565b9050919050565b5f819050919050565b610a2f836109fc565b610a43610a3b82610a1d565b8484546109a2565b825550505050565b5f90565b610a57610a4b565b610a62818484610a26565b505050565b5b81811015610a8557610a7a5f82610a4f565b600181019050610a68565b5050565b601f821115610aca57610a9b81610975565b610aa484610987565b81016020851015610ab3578190505b610ac7610abf85610987565b830182610a67565b50505b505050565b5f82821c905092915050565b5f610aea5f1984600802610acf565b1980831691505092915050565b5f610b028383610adb565b9150826002028217905092915050565b610b1b826105bf565b67ffffffffffffffff811115610b3457610b3361070a565b5b610b3e82546108d1565b610b49828285610a89565b5f60209050601f831160018114610b7a575f8415610b68578287015190505b610b728582610af7565b865550610bd9565b601f198416610b8886610975565b5f5b82811015610baf57848901518255600182019150602085019450602081019050610b8a565b86831015610bcc5784890151610bc8601f891682610adb565b8355505b6001600288020188555050505b50505050505056fea26469706673582212200d4e9d219c6c06ab46fc53b82e730c235847ff91f263244e24244d21acfb653064736f6c634300081a0033",
					"opcodes": "PUSH1 0x80 PUSH1 0x40 MSTORE CALLVALUE DUP1 ISZERO PUSH1 0xE JUMPI PUSH0 DUP1 REVERT JUMPDEST POP PUSH2 0xC17 DUP1 PUSH2 0x1C PUSH0 CODECOPY PUSH0 RETURN INVALID PUSH1 0x80 PUSH1 0x40 MSTORE CALLVALUE DUP1 ISZERO PUSH2 0xF JUMPI PUSH0 DUP1 REVERT JUMPDEST POP PUSH1 0x4 CALLDATASIZE LT PUSH2 0x4A JUMPI PUSH0 CALLDATALOAD PUSH1 0xE0 SHR DUP1 PUSH4 0x4A5C4DFE EQ PUSH2 0x4E JUMPI DUP1 PUSH4 0x6B45C9F2 EQ PUSH2 0x6C JUMPI DUP1 PUSH4 0x8F64BE30 EQ PUSH2 0x9E JUMPI DUP1 PUSH4 0xA0544ED1 EQ PUSH2 0xD1 JUMPI JUMPDEST PUSH0 DUP1 REVERT JUMPDEST PUSH2 0x56 PUSH2 0xED JUMP JUMPDEST PUSH1 0x40 MLOAD PUSH2 0x63 SWAP2 SWAP1 PUSH2 0x540 JUMP JUMPDEST PUSH1 0x40 MLOAD DUP1 SWAP2 SUB SWAP1 RETURN JUMPDEST PUSH2 0x86 PUSH1 0x4 DUP1 CALLDATASIZE SUB DUP2 ADD SWAP1 PUSH2 0x81 SWAP2 SWAP1 PUSH2 0x594 JUMP JUMPDEST PUSH2 0xF3 JUMP JUMPDEST PUSH1 0x40 MLOAD PUSH2 0x95 SWAP4 SWAP3 SWAP2 SWAP1 PUSH2 0x66E JUMP JUMPDEST PUSH1 0x40 MLOAD DUP1 SWAP2 SUB SWAP1 RETURN JUMPDEST PUSH2 0xB8 PUSH1 0x4 DUP1 CALLDATASIZE SUB DUP2 ADD SWAP1 PUSH2 0xB3 SWAP2 SWAP1 PUSH2 0x594 JUMP JUMPDEST PUSH2 0x2B0 JUMP JUMPDEST PUSH1 0x40 MLOAD PUSH2 0xC8 SWAP5 SWAP4 SWAP3 SWAP2 SWAP1 PUSH2 0x6B1 JUMP JUMPDEST PUSH1 0x40 MLOAD DUP1 SWAP2 SUB SWAP1 RETURN JUMPDEST PUSH2 0xEB PUSH1 0x4 DUP1 CALLDATASIZE SUB DUP2 ADD SWAP1 PUSH2 0xE6 SWAP2 SWAP1 PUSH2 0x82E JUMP JUMPDEST PUSH2 0x406 JUMP JUMPDEST STOP JUMPDEST PUSH1 0x1 SLOAD DUP2 JUMP JUMPDEST PUSH1 0x60 DUP1 PUSH0 DUP1 PUSH0 DUP1 DUP7 DUP2 MSTORE PUSH1 0x20 ADD SWAP1 DUP2 MSTORE PUSH1 0x20 ADD PUSH0 KECCAK256 PUSH1 0x40 MLOAD DUP1 PUSH1 0x80 ADD PUSH1 0x40 MSTORE SWAP1 DUP2 PUSH0 DUP3 ADD SLOAD DUP2 MSTORE PUSH1 0x20 ADD PUSH1 0x1 DUP3 ADD DUP1 SLOAD PUSH2 0x12C SWAP1 PUSH2 0x8D1 JUMP JUMPDEST DUP1 PUSH1 0x1F ADD PUSH1 0x20 DUP1 SWAP2 DIV MUL PUSH1 0x20 ADD PUSH1 0x40 MLOAD SWAP1 DUP2 ADD PUSH1 0x40 MSTORE DUP1 SWAP3 SWAP2 SWAP1 DUP2 DUP2 MSTORE PUSH1 0x20 ADD DUP3 DUP1 SLOAD PUSH2 0x158 SWAP1 PUSH2 0x8D1 JUMP JUMPDEST DUP1 ISZERO PUSH2 0x1A3 JUMPI DUP1 PUSH1 0x1F LT PUSH2 0x17A JUMPI PUSH2 0x100 DUP1 DUP4 SLOAD DIV MUL DUP4 MSTORE SWAP2 PUSH1 0x20 ADD SWAP2 PUSH2 0x1A3 JUMP JUMPDEST DUP3 ADD SWAP2 SWAP1 PUSH0 MSTORE PUSH1 0x20 PUSH0 KECCAK256 SWAP1 JUMPDEST DUP2 SLOAD DUP2 MSTORE SWAP1 PUSH1 0x1 ADD SWAP1 PUSH1 0x20 ADD DUP1 DUP4 GT PUSH2 0x186 JUMPI DUP3 SWAP1 SUB PUSH1 0x1F AND DUP3 ADD SWAP2 JUMPDEST POP POP POP POP POP DUP2 MSTORE PUSH1 0x20 ADD PUSH1 0x2 DUP3 ADD DUP1 SLOAD PUSH2 0x1BC SWAP1 PUSH2 0x8D1 JUMP JUMPDEST DUP1 PUSH1 0x1F ADD PUSH1 0x20 DUP1 SWAP2 DIV MUL PUSH1 0x20 ADD PUSH1 0x40 MLOAD SWAP1 DUP2 ADD PUSH1 0x40 MSTORE DUP1 SWAP3 SWAP2 SWAP1 DUP2 DUP2 MSTORE PUSH1 0x20 ADD DUP3 DUP1 SLOAD PUSH2 0x1E8 SWAP1 PUSH2 0x8D1 JUMP JUMPDEST DUP1 ISZERO PUSH2 0x233 JUMPI DUP1 PUSH1 0x1F LT PUSH2 0x20A JUMPI PUSH2 0x100 DUP1 DUP4 SLOAD DIV MUL DUP4 MSTORE SWAP2 PUSH1 0x20 ADD SWAP2 PUSH2 0x233 JUMP JUMPDEST DUP3 ADD SWAP2 SWAP1 PUSH0 MSTORE PUSH1 0x20 PUSH0 KECCAK256 SWAP1 JUMPDEST DUP2 SLOAD DUP2 MSTORE SWAP1 PUSH1 0x1 ADD SWAP1 PUSH1 0x20 ADD DUP1 DUP4 GT PUSH2 0x216 JUMPI DUP3 SWAP1 SUB PUSH1 0x1F AND DUP3 ADD SWAP2 JUMPDEST POP POP POP POP POP DUP2 MSTORE PUSH1 0x20 ADD PUSH1 0x3 DUP3 ADD PUSH0 SWAP1 SLOAD SWAP1 PUSH2 0x100 EXP SWAP1 DIV PUSH20 0xFFFFFFFFFFFFFFFFFFFFFFFFFFFFFFFFFFFFFFFF AND PUSH20 0xFFFFFFFFFFFFFFFFFFFFFFFFFFFFFFFFFFFFFFFF AND PUSH20 0xFFFFFFFFFFFFFFFFFFFFFFFFFFFFFFFFFFFFFFFF AND DUP2 MSTORE POP POP SWAP1 POP DUP1 PUSH1 0x20 ADD MLOAD DUP2 PUSH1 0x40 ADD MLOAD DUP3 PUSH1 0x60 ADD MLOAD SWAP4 POP SWAP4 POP SWAP4 POP POP SWAP2 SWAP4 SWAP1 SWAP3 POP JUMP JUMPDEST PUSH0 PUSH1 0x20 MSTORE DUP1 PUSH0 MSTORE PUSH1 0x40 PUSH0 KECCAK256 PUSH0 SWAP2 POP SWAP1 POP DUP1 PUSH0 ADD SLOAD SWAP1 DUP1 PUSH1 0x1 ADD DUP1 SLOAD PUSH2 0x2D4 SWAP1 PUSH2 0x8D1 JUMP JUMPDEST DUP1 PUSH1 0x1F ADD PUSH1 0x20 DUP1 SWAP2 DIV MUL PUSH1 0x20 ADD PUSH1 0x40 MLOAD SWAP1 DUP2 ADD PUSH1 0x40 MSTORE DUP1 SWAP3 SWAP2 SWAP1 DUP2 DUP2 MSTORE PUSH1 0x20 ADD DUP3 DUP1 SLOAD PUSH2 0x300 SWAP1 PUSH2 0x8D1 JUMP JUMPDEST DUP1 ISZERO PUSH2 0x34B JUMPI DUP1 PUSH1 0x1F LT PUSH2 0x322 JUMPI PUSH2 0x100 DUP1 DUP4 SLOAD DIV MUL DUP4 MSTORE SWAP2 PUSH1 0x20 ADD SWAP2 PUSH2 0x34B JUMP JUMPDEST DUP3 ADD SWAP2 SWAP1 PUSH0 MSTORE PUSH1 0x20 PUSH0 KECCAK256 SWAP1 JUMPDEST DUP2 SLOAD DUP2 MSTORE SWAP1 PUSH1 0x1 ADD SWAP1 PUSH1 0x20 ADD DUP1 DUP4 GT PUSH2 0x32E JUMPI DUP3 SWAP1 SUB PUSH1 0x1F AND DUP3 ADD SWAP2 JUMPDEST POP POP POP POP POP SWAP1 DUP1 PUSH1 0x2 ADD DUP1 SLOAD PUSH2 0x360 SWAP1 PUSH2 0x8D1 JUMP JUMPDEST DUP1 PUSH1 0x1F ADD PUSH1 0x20 DUP1 SWAP2 DIV MUL PUSH1 0x20 ADD PUSH1 0x40 MLOAD SWAP1 DUP2 ADD PUSH1 0x40 MSTORE DUP1 SWAP3 SWAP2 SWAP1 DUP2 DUP2 MSTORE PUSH1 0x20 ADD DUP3 DUP1 SLOAD PUSH2 0x38C SWAP1 PUSH2 0x8D1 JUMP JUMPDEST DUP1 ISZERO PUSH2 0x3D7 JUMPI DUP1 PUSH1 0x1F LT PUSH2 0x3AE JUMPI PUSH2 0x100 DUP1 DUP4 SLOAD DIV MUL DUP4 MSTORE SWAP2 PUSH1 0x20 ADD SWAP2 PUSH2 0x3D7 JUMP JUMPDEST DUP3 ADD SWAP2 SWAP1 PUSH0 MSTORE PUSH1 0x20 PUSH0 KECCAK256 SWAP1 JUMPDEST DUP2 SLOAD DUP2 MSTORE SWAP1 PUSH1 0x1 ADD SWAP1 PUSH1 0x20 ADD DUP1 DUP4 GT PUSH2 0x3BA JUMPI DUP3 SWAP1 SUB PUSH1 0x1F AND DUP3 ADD SWAP2 JUMPDEST POP POP POP POP POP SWAP1 DUP1 PUSH1 0x3 ADD PUSH0 SWAP1 SLOAD SWAP1 PUSH2 0x100 EXP SWAP1 DIV PUSH20 0xFFFFFFFFFFFFFFFFFFFFFFFFFFFFFFFFFFFFFFFF AND SWAP1 POP DUP5 JUMP JUMPDEST PUSH1 0x1 PUSH0 DUP2 SLOAD DUP1 SWAP3 SWAP2 SWAP1 PUSH2 0x418 SWAP1 PUSH2 0x92E JUMP JUMPDEST SWAP2 SWAP1 POP SSTORE POP PUSH1 0x40 MLOAD DUP1 PUSH1 0x80 ADD PUSH1 0x40 MSTORE DUP1 PUSH1 0x1 SLOAD DUP2 MSTORE PUSH1 0x20 ADD DUP4 DUP2 MSTORE PUSH1 0x20 ADD DUP3 DUP2 MSTORE PUSH1 0x20 ADD CALLER PUSH20 0xFFFFFFFFFFFFFFFFFFFFFFFFFFFFFFFFFFFFFFFF AND DUP2 MSTORE POP PUSH0 DUP1 PUSH1 0x1 SLOAD DUP2 MSTORE PUSH1 0x20 ADD SWAP1 DUP2 MSTORE PUSH1 0x20 ADD PUSH0 KECCAK256 PUSH0 DUP3 ADD MLOAD DUP2 PUSH0 ADD SSTORE PUSH1 0x20 DUP3 ADD MLOAD DUP2 PUSH1 0x1 ADD SWAP1 DUP2 PUSH2 0x485 SWAP2 SWAP1 PUSH2 0xB12 JUMP JUMPDEST POP PUSH1 0x40 DUP3 ADD MLOAD DUP2 PUSH1 0x2 ADD SWAP1 DUP2 PUSH2 0x49B SWAP2 SWAP1 PUSH2 0xB12 JUMP JUMPDEST POP PUSH1 0x60 DUP3 ADD MLOAD DUP2 PUSH1 0x3 ADD PUSH0 PUSH2 0x100 EXP DUP2 SLOAD DUP2 PUSH20 0xFFFFFFFFFFFFFFFFFFFFFFFFFFFFFFFFFFFFFFFF MUL NOT AND SWAP1 DUP4 PUSH20 0xFFFFFFFFFFFFFFFFFFFFFFFFFFFFFFFFFFFFFFFF AND MUL OR SWAP1 SSTORE POP SWAP1 POP POP PUSH32 0xCCB038BEBB776284AC3749C98D8AE61BEFE713A6F19D8C073BD45910F04A0897 PUSH1 0x1 SLOAD DUP4 DUP4 CALLER PUSH1 0x40 MLOAD PUSH2 0x51C SWAP5 SWAP4 SWAP3 SWAP2 SWAP1 PUSH2 0x6B1 JUMP JUMPDEST PUSH1 0x40 MLOAD DUP1 SWAP2 SUB SWAP1 LOG1 POP POP JUMP JUMPDEST PUSH0 DUP2 SWAP1 POP SWAP2 SWAP1 POP JUMP JUMPDEST PUSH2 0x53A DUP2 PUSH2 0x528 JUMP JUMPDEST DUP3 MSTORE POP POP JUMP JUMPDEST PUSH0 PUSH1 0x20 DUP3 ADD SWAP1 POP PUSH2 0x553 PUSH0 DUP4 ADD DUP5 PUSH2 0x531 JUMP JUMPDEST SWAP3 SWAP2 POP POP JUMP JUMPDEST PUSH0 PUSH1 0x40 MLOAD SWAP1 POP SWAP1 JUMP JUMPDEST PUSH0 DUP1 REVERT JUMPDEST PUSH0 DUP1 REVERT JUMPDEST PUSH2 0x573 DUP2 PUSH2 0x528 JUMP JUMPDEST DUP2 EQ PUSH2 0x57D JUMPI PUSH0 DUP1 REVERT JUMPDEST POP JUMP JUMPDEST PUSH0 DUP2 CALLDATALOAD SWAP1 POP PUSH2 0x58E DUP2 PUSH2 0x56A JUMP JUMPDEST SWAP3 SWAP2 POP POP JUMP JUMPDEST PUSH0 PUSH1 0x20 DUP3 DUP5 SUB SLT ISZERO PUSH2 0x5A9 JUMPI PUSH2 0x5A8 PUSH2 0x562 JUMP JUMPDEST JUMPDEST PUSH0 PUSH2 0x5B6 DUP5 DUP3 DUP6 ADD PUSH2 0x580 JUMP JUMPDEST SWAP2 POP POP SWAP3 SWAP2 POP POP JUMP JUMPDEST PUSH0 DUP2 MLOAD SWAP1 POP SWAP2 SWAP1 POP JUMP JUMPDEST PUSH0 DUP3 DUP3 MSTORE PUSH1 0x20 DUP3 ADD SWAP1 POP SWAP3 SWAP2 POP POP JUMP JUMPDEST DUP3 DUP2 DUP4 MCOPY PUSH0 DUP4 DUP4 ADD MSTORE POP POP POP JUMP JUMPDEST PUSH0 PUSH1 0x1F NOT PUSH1 0x1F DUP4 ADD AND SWAP1 POP SWAP2 SWAP1 POP JUMP JUMPDEST PUSH0 PUSH2 0x601 DUP3 PUSH2 0x5BF JUMP JUMPDEST PUSH2 0x60B DUP2 DUP6 PUSH2 0x5C9 JUMP JUMPDEST SWAP4 POP PUSH2 0x61B DUP2 DUP6 PUSH1 0x20 DUP7 ADD PUSH2 0x5D9 JUMP JUMPDEST PUSH2 0x624 DUP2 PUSH2 0x5E7 JUMP JUMPDEST DUP5 ADD SWAP2 POP POP SWAP3 SWAP2 POP POP JUMP JUMPDEST PUSH0 PUSH20 0xFFFFFFFFFFFFFFFFFFFFFFFFFFFFFFFFFFFFFFFF DUP3 AND SWAP1 POP SWAP2 SWAP1 POP JUMP JUMPDEST PUSH0 PUSH2 0x658 DUP3 PUSH2 0x62F JUMP JUMPDEST SWAP1 POP SWAP2 SWAP1 POP JUMP JUMPDEST PUSH2 0x668 DUP2 PUSH2 0x64E JUMP JUMPDEST DUP3 MSTORE POP POP JUMP JUMPDEST PUSH0 PUSH1 0x60 DUP3 ADD SWAP1 POP DUP2 DUP2 SUB PUSH0 DUP4 ADD MSTORE PUSH2 0x686 DUP2 DUP7 PUSH2 0x5F7 JUMP JUMPDEST SWAP1 POP DUP2 DUP2 SUB PUSH1 0x20 DUP4 ADD MSTORE PUSH2 0x69A DUP2 DUP6 PUSH2 0x5F7 JUMP JUMPDEST SWAP1 POP PUSH2 0x6A9 PUSH1 0x40 DUP4 ADD DUP5 PUSH2 0x65F JUMP JUMPDEST SWAP5 SWAP4 POP POP POP POP JUMP JUMPDEST PUSH0 PUSH1 0x80 DUP3 ADD SWAP1 POP PUSH2 0x6C4 PUSH0 DUP4 ADD DUP8 PUSH2 0x531 JUMP JUMPDEST DUP2 DUP2 SUB PUSH1 0x20 DUP4 ADD MSTORE PUSH2 0x6D6 DUP2 DUP7 PUSH2 0x5F7 JUMP JUMPDEST SWAP1 POP DUP2 DUP2 SUB PUSH1 0x40 DUP4 ADD MSTORE PUSH2 0x6EA DUP2 DUP6 PUSH2 0x5F7 JUMP JUMPDEST SWAP1 POP PUSH2 0x6F9 PUSH1 0x60 DUP4 ADD DUP5 PUSH2 0x65F JUMP JUMPDEST SWAP6 SWAP5 POP POP POP POP POP JUMP JUMPDEST PUSH0 DUP1 REVERT JUMPDEST PUSH0 DUP1 REVERT JUMPDEST PUSH32 0x4E487B7100000000000000000000000000000000000000000000000000000000 PUSH0 MSTORE PUSH1 0x41 PUSH1 0x4 MSTORE PUSH1 0x24 PUSH0 REVERT JUMPDEST PUSH2 0x740 DUP3 PUSH2 0x5E7 JUMP JUMPDEST DUP2 ADD DUP2 DUP2 LT PUSH8 0xFFFFFFFFFFFFFFFF DUP3 GT OR ISZERO PUSH2 0x75F JUMPI PUSH2 0x75E PUSH2 0x70A JUMP JUMPDEST JUMPDEST DUP1 PUSH1 0x40 MSTORE POP POP POP JUMP JUMPDEST PUSH0 PUSH2 0x771 PUSH2 0x559 JUMP JUMPDEST SWAP1 POP PUSH2 0x77D DUP3 DUP3 PUSH2 0x737 JUMP JUMPDEST SWAP2 SWAP1 POP JUMP JUMPDEST PUSH0 PUSH8 0xFFFFFFFFFFFFFFFF DUP3 GT ISZERO PUSH2 0x79C JUMPI PUSH2 0x79B PUSH2 0x70A JUMP JUMPDEST JUMPDEST PUSH2 0x7A5 DUP3 PUSH2 0x5E7 JUMP JUMPDEST SWAP1 POP PUSH1 0x20 DUP2 ADD SWAP1 POP SWAP2 SWAP1 POP JUMP JUMPDEST DUP3 DUP2 DUP4 CALLDATACOPY PUSH0 DUP4 DUP4 ADD MSTORE POP POP POP JUMP JUMPDEST PUSH0 PUSH2 0x7D2 PUSH2 0x7CD DUP5 PUSH2 0x782 JUMP JUMPDEST PUSH2 0x768 JUMP JUMPDEST SWAP1 POP DUP3 DUP2 MSTORE PUSH1 0x20 DUP2 ADD DUP5 DUP5 DUP5 ADD GT ISZERO PUSH2 0x7EE JUMPI PUSH2 0x7ED PUSH2 0x706 JUMP JUMPDEST JUMPDEST PUSH2 0x7F9 DUP5 DUP3 DUP6 PUSH2 0x7B2 JUMP JUMPDEST POP SWAP4 SWAP3 POP POP POP JUMP JUMPDEST PUSH0 DUP3 PUSH1 0x1F DUP4 ADD SLT PUSH2 0x815 JUMPI PUSH2 0x814 PUSH2 0x702 JUMP JUMPDEST JUMPDEST DUP2 CALLDATALOAD PUSH2 0x825 DUP5 DUP3 PUSH1 0x20 DUP7 ADD PUSH2 0x7C0 JUMP JUMPDEST SWAP2 POP POP SWAP3 SWAP2 POP POP JUMP JUMPDEST PUSH0 DUP1 PUSH1 0x40 DUP4 DUP6 SUB SLT ISZERO PUSH2 0x844 JUMPI PUSH2 0x843 PUSH2 0x562 JUMP JUMPDEST JUMPDEST PUSH0 DUP4 ADD CALLDATALOAD PUSH8 0xFFFFFFFFFFFFFFFF DUP2 GT ISZERO PUSH2 0x861 JUMPI PUSH2 0x860 PUSH2 0x566 JUMP JUMPDEST JUMPDEST PUSH2 0x86D DUP6 DUP3 DUP7 ADD PUSH2 0x801 JUMP JUMPDEST SWAP3 POP POP PUSH1 0x20 DUP4 ADD CALLDATALOAD PUSH8 0xFFFFFFFFFFFFFFFF DUP2 GT ISZERO PUSH2 0x88E JUMPI PUSH2 0x88D PUSH2 0x566 JUMP JUMPDEST JUMPDEST PUSH2 0x89A DUP6 DUP3 DUP7 ADD PUSH2 0x801 JUMP JUMPDEST SWAP2 POP POP SWAP3 POP SWAP3 SWAP1 POP JUMP JUMPDEST PUSH32 0x4E487B7100000000000000000000000000000000000000000000000000000000 PUSH0 MSTORE PUSH1 0x22 PUSH1 0x4 MSTORE PUSH1 0x24 PUSH0 REVERT JUMPDEST PUSH0 PUSH1 0x2 DUP3 DIV SWAP1 POP PUSH1 0x1 DUP3 AND DUP1 PUSH2 0x8E8 JUMPI PUSH1 0x7F DUP3 AND SWAP2 POP JUMPDEST PUSH1 0x20 DUP3 LT DUP2 SUB PUSH2 0x8FB JUMPI PUSH2 0x8FA PUSH2 0x8A4 JUMP JUMPDEST JUMPDEST POP SWAP2 SWAP1 POP JUMP JUMPDEST PUSH32 0x4E487B7100000000000000000000000000000000000000000000000000000000 PUSH0 MSTORE PUSH1 0x11 PUSH1 0x4 MSTORE PUSH1 0x24 PUSH0 REVERT JUMPDEST PUSH0 PUSH2 0x938 DUP3 PUSH2 0x528 JUMP JUMPDEST SWAP2 POP PUSH32 0xFFFFFFFFFFFFFFFFFFFFFFFFFFFFFFFFFFFFFFFFFFFFFFFFFFFFFFFFFFFFFFFF DUP3 SUB PUSH2 0x96A JUMPI PUSH2 0x969 PUSH2 0x901 JUMP JUMPDEST JUMPDEST PUSH1 0x1 DUP3 ADD SWAP1 POP SWAP2 SWAP1 POP JUMP JUMPDEST PUSH0 DUP2 SWAP1 POP DUP2 PUSH0 MSTORE PUSH1 0x20 PUSH0 KECCAK256 SWAP1 POP SWAP2 SWAP1 POP JUMP JUMPDEST PUSH0 PUSH1 0x20 PUSH1 0x1F DUP4 ADD DIV SWAP1 POP SWAP2 SWAP1 POP JUMP JUMPDEST PUSH0 DUP3 DUP3 SHL SWAP1 POP SWAP3 SWAP2 POP POP JUMP JUMPDEST PUSH0 PUSH1 0x8 DUP4 MUL PUSH2 0x9D1 PUSH32 0xFFFFFFFFFFFFFFFFFFFFFFFFFFFFFFFFFFFFFFFFFFFFFFFFFFFFFFFFFFFFFFFF DUP3 PUSH2 0x996 JUMP JUMPDEST PUSH2 0x9DB DUP7 DUP4 PUSH2 0x996 JUMP JUMPDEST SWAP6 POP DUP1 NOT DUP5 AND SWAP4 POP DUP1 DUP7 AND DUP5 OR SWAP3 POP POP POP SWAP4 SWAP3 POP POP POP JUMP JUMPDEST PUSH0 DUP2 SWAP1 POP SWAP2 SWAP1 POP JUMP JUMPDEST PUSH0 PUSH2 0xA16 PUSH2 0xA11 PUSH2 0xA0C DUP5 PUSH2 0x528 JUMP JUMPDEST PUSH2 0x9F3 JUMP JUMPDEST PUSH2 0x528 JUMP JUMPDEST SWAP1 POP SWAP2 SWAP1 POP JUMP JUMPDEST PUSH0 DUP2 SWAP1 POP SWAP2 SWAP1 POP JUMP JUMPDEST PUSH2 0xA2F DUP4 PUSH2 0x9FC JUMP JUMPDEST PUSH2 0xA43 PUSH2 0xA3B DUP3 PUSH2 0xA1D JUMP JUMPDEST DUP5 DUP5 SLOAD PUSH2 0x9A2 JUMP JUMPDEST DUP3 SSTORE POP POP POP POP JUMP JUMPDEST PUSH0 SWAP1 JUMP JUMPDEST PUSH2 0xA57 PUSH2 0xA4B JUMP JUMPDEST PUSH2 0xA62 DUP2 DUP5 DUP5 PUSH2 0xA26 JUMP JUMPDEST POP POP POP JUMP JUMPDEST JUMPDEST DUP2 DUP2 LT ISZERO PUSH2 0xA85 JUMPI PUSH2 0xA7A PUSH0 DUP3 PUSH2 0xA4F JUMP JUMPDEST PUSH1 0x1 DUP2 ADD SWAP1 POP PUSH2 0xA68 JUMP JUMPDEST POP POP JUMP JUMPDEST PUSH1 0x1F DUP3 GT ISZERO PUSH2 0xACA JUMPI PUSH2 0xA9B DUP2 PUSH2 0x975 JUMP JUMPDEST PUSH2 0xAA4 DUP5 PUSH2 0x987 JUMP JUMPDEST DUP2 ADD PUSH1 0x20 DUP6 LT ISZERO PUSH2 0xAB3 JUMPI DUP2 SWAP1 POP JUMPDEST PUSH2 0xAC7 PUSH2 0xABF DUP6 PUSH2 0x987 JUMP JUMPDEST DUP4 ADD DUP3 PUSH2 0xA67 JUMP JUMPDEST POP POP JUMPDEST POP POP POP JUMP JUMPDEST PUSH0 DUP3 DUP3 SHR SWAP1 POP SWAP3 SWAP2 POP POP JUMP JUMPDEST PUSH0 PUSH2 0xAEA PUSH0 NOT DUP5 PUSH1 0x8 MUL PUSH2 0xACF JUMP JUMPDEST NOT DUP1 DUP4 AND SWAP2 POP POP SWAP3 SWAP2 POP POP JUMP JUMPDEST PUSH0 PUSH2 0xB02 DUP4 DUP4 PUSH2 0xADB JUMP JUMPDEST SWAP2 POP DUP3 PUSH1 0x2 MUL DUP3 OR SWAP1 POP SWAP3 SWAP2 POP POP JUMP JUMPDEST PUSH2 0xB1B DUP3 PUSH2 0x5BF JUMP JUMPDEST PUSH8 0xFFFFFFFFFFFFFFFF DUP2 GT ISZERO PUSH2 0xB34 JUMPI PUSH2 0xB33 PUSH2 0x70A JUMP JUMPDEST JUMPDEST PUSH2 0xB3E DUP3 SLOAD PUSH2 0x8D1 JUMP JUMPDEST PUSH2 0xB49 DUP3 DUP3 DUP6 PUSH2 0xA89 JUMP JUMPDEST PUSH0 PUSH1 0x20 SWAP1 POP PUSH1 0x1F DUP4 GT PUSH1 0x1 DUP2 EQ PUSH2 0xB7A JUMPI PUSH0 DUP5 ISZERO PUSH2 0xB68 JUMPI DUP3 DUP8 ADD MLOAD SWAP1 POP JUMPDEST PUSH2 0xB72 DUP6 DUP3 PUSH2 0xAF7 JUMP JUMPDEST DUP7 SSTORE POP PUSH2 0xBD9 JUMP JUMPDEST PUSH1 0x1F NOT DUP5 AND PUSH2 0xB88 DUP7 PUSH2 0x975 JUMP JUMPDEST PUSH0 JUMPDEST DUP3 DUP2 LT ISZERO PUSH2 0xBAF JUMPI DUP5 DUP10 ADD MLOAD DUP3 SSTORE PUSH1 0x1 DUP3 ADD SWAP2 POP PUSH1 0x20 DUP6 ADD SWAP5 POP PUSH1 0x20 DUP2 ADD SWAP1 POP PUSH2 0xB8A JUMP JUMPDEST DUP7 DUP4 LT ISZERO PUSH2 0xBCC JUMPI DUP5 DUP10 ADD MLOAD PUSH2 0xBC8 PUSH1 0x1F DUP10 AND DUP3 PUSH2 0xADB JUMP JUMPDEST DUP4 SSTORE POP JUMPDEST PUSH1 0x1 PUSH1 0x2 DUP9 MUL ADD DUP9 SSTORE POP POP POP JUMPDEST POP POP POP POP POP POP JUMP INVALID LOG2 PUSH5 0x6970667358 0x22 SLT KECCAK256 0xD 0x4E SWAP14 0x21 SWAP13 PUSH13 0x6AB46FC53B82E730C235847FF SWAP2 CALLCODE PUSH4 0x244E2424 0x4D 0x21 0xAC 0xFB PUSH6 0x3064736F6C63 NUMBER STOP ADDMOD BYTE STOP CALLER "
				},
				"gasEstimates": {
					"creation": {
						"codeDepositCost": "619000",
						"executionCost": "649",
						"totalCost": "619649"
					},
					"external": {
						"certifyPiece(string,string)": "infinite",
						"getPiece(uint256)": "infinite",
						"pieceCount()": "2403",
						"pieces(uint256)": "infinite"
					}
				},
				"methodIdentifiers": {
					"certifyPiece(string,string)": "a0544ed1",
					"getPiece(uint256)": "6b45c9f2",
					"pieceCount()": "4a5c4dfe",
					"pieces(uint256)": "8f64be30"
				}
			},
			"storageLayout": {
				"storage": [
					{
						"astId": 15,
						"contract": "scripts/test.sol:Certification",
						"label": "pieces",
						"offset": 0,
						"slot": "0",
						"type": "t_mapping(t_uint256,t_struct(Piece)10_storage)"
					},
					{
						"astId": 17,
						"contract": "scripts/test.sol:Certification",
						"label": "pieceCount",
						"offset": 0,
						"slot": "1",
						"type": "t_uint256"
					}
				],
				"types": {
					"t_address": {
						"encoding": "inplace",
						"label": "address",
						"numberOfBytes": "20"
					},
					"t_mapping(t_uint256,t_struct(Piece)10_storage)": {
						"encoding": "mapping",
						"key": "t_uint256",
						"label": "mapping(uint256 => struct Certification.Piece)",
						"numberOfBytes": "32",
						"value": "t_struct(Piece)10_storage"
					},
					"t_string_storage": {
						"encoding": "bytes",
						"label": "string",
						"numberOfBytes": "32"
					},
					"t_struct(Piece)10_storage": {
						"encoding": "inplace",
						"label": "struct Certification.Piece",
						"members": [
							{
								"astId": 3,
								"contract": "scripts/test.sol:Certification",
								"label": "id",
								"offset": 0,
								"slot": "0",
								"type": "t_uint256"
							},
							{
								"astId": 5,
								"contract": "scripts/test.sol:Certification",
								"label": "name",
								"offset": 0,
								"slot": "1",
								"type": "t_string_storage"
							},
							{
								"astId": 7,
								"contract": "scripts/test.sol:Certification",
								"label": "certificationDate",
								"offset": 0,
								"slot": "2",
								"type": "t_string_storage"
							},
							{
								"astId": 9,
								"contract": "scripts/test.sol:Certification",
								"label": "certifiedBy",
								"offset": 0,
								"slot": "3",
								"type": "t_address"
							}
						],
						"numberOfBytes": "128"
					},
					"t_uint256": {
						"encoding": "inplace",
						"label": "uint256",
						"numberOfBytes": "32"
					}
				}
			},
			"userdoc": {
				"kind": "user",
				"methods": {},
				"version": 1
			}
		}
	}
}