{
	"contracts/PieceRegistry.sol": {
		"PieceRegistry": {
			"abi": [
				{
					"anonymous": false,
					"inputs": [
						{
							"indexed": true,
							"internalType": "uint32",
							"name": "id",
							"type": "uint32"
						},
						{
							"indexed": false,
							"internalType": "bytes32",
							"name": "name",
							"type": "bytes32"
						},
						{
							"indexed": false,
							"internalType": "address",
							"name": "manufacturer",
							"type": "address"
						}
					],
					"name": "PieceRegistered",
					"type": "event"
				},
				{
					"inputs": [
						{
							"internalType": "uint32",
							"name": "_id",
							"type": "uint32"
						}
					],
					"name": "getPiece",
					"outputs": [
						{
							"internalType": "bytes32",
							"name": "name",
							"type": "bytes32"
						},
						{
							"internalType": "address",
							"name": "manufacturer",
							"type": "address"
						}
					],
					"stateMutability": "view",
					"type": "function"
				},
				{
					"inputs": [],
					"name": "pieceCount",
					"outputs": [
						{
							"internalType": "uint32",
							"name": "",
							"type": "uint32"
						}
					],
					"stateMutability": "view",
					"type": "function"
				},
				{
					"inputs": [
						{
							"internalType": "uint32",
							"name": "id",
							"type": "uint32"
						},
						{
							"internalType": "bytes32",
							"name": "_name",
							"type": "bytes32"
						}
					],
					"name": "registerPiece",
					"outputs": [],
					"stateMutability": "nonpayable",
					"type": "function"
				}
			],
			"devdoc": {
				"kind": "dev",
				"methods": {},
				"version": 1
			},
			"evm": {
				"assembly": "    /* \"contracts/PieceRegistry.sol\":60:1167  contract PieceRegistry {... */\n  mstore(0x40, 0x80)\n  callvalue\n  dup1\n  iszero\n  tag_1\n  jumpi\n  0x00\n  dup1\n  revert\ntag_1:\n  pop\n  dataSize(sub_0)\n  dup1\n  dataOffset(sub_0)\n  0x00\n  codecopy\n  0x00\n  return\nstop\n\nsub_0: assembly {\n        /* \"contracts/PieceRegistry.sol\":60:1167  contract PieceRegistry {... */\n      mstore(0x40, 0x80)\n      callvalue\n      dup1\n      iszero\n      tag_1\n      jumpi\n      0x00\n      dup1\n      revert\n    tag_1:\n      pop\n      jumpi(tag_2, lt(calldatasize, 0x04))\n      shr(0xe0, calldataload(0x00))\n      dup1\n      0x1dd79913\n      eq\n      tag_3\n      jumpi\n      dup1\n      0x4a5c4dfe\n      eq\n      tag_4\n      jumpi\n      dup1\n      0x6f1df2d8\n      eq\n      tag_5\n      jumpi\n    tag_2:\n      0x00\n      dup1\n      revert\n        /* \"contracts/PieceRegistry.sol\":598:908  function registerPiece(uint32 id, bytes32 _name) external notexist(id) {... */\n    tag_3:\n      tag_6\n      0x04\n      dup1\n      calldatasize\n      sub\n      dup2\n      add\n      swap1\n      tag_7\n      swap2\n      swap1\n      tag_8\n      jump\t// in\n    tag_7:\n      tag_9\n      jump\t// in\n    tag_6:\n      stop\n        /* \"contracts/PieceRegistry.sol\":369:393  uint32 public pieceCount */\n    tag_4:\n      tag_10\n      tag_11\n      jump\t// in\n    tag_10:\n      mload(0x40)\n      tag_12\n      swap2\n      swap1\n      tag_13\n      jump\t// in\n    tag_12:\n      mload(0x40)\n      dup1\n      swap2\n      sub\n      swap1\n      return\n        /* \"contracts/PieceRegistry.sol\":916:1164  function getPiece(uint32 _id) external view returns (bytes32 name, address manufacturer) {... */\n    tag_5:\n      tag_14\n      0x04\n      dup1\n      calldatasize\n      sub\n      dup2\n      add\n      swap1\n      tag_15\n      swap2\n      swap1\n      tag_16\n      jump\t// in\n    tag_15:\n      tag_17\n      jump\t// in\n    tag_14:\n      mload(0x40)\n      tag_18\n      swap3\n      swap2\n      swap1\n      tag_19\n      jump\t// in\n    tag_18:\n      mload(0x40)\n      dup1\n      swap2\n      sub\n      swap1\n      return\n        /* \"contracts/PieceRegistry.sol\":598:908  function registerPiece(uint32 id, bytes32 _name) external notexist(id) {... */\n    tag_9:\n        /* \"contracts/PieceRegistry.sol\":665:667  id */\n      dup2\n        /* \"contracts/PieceRegistry.sol\":549:560  bytes32(\"\") */\n      0x00\n        /* \"contracts/PieceRegistry.sol\":530:560  pieces[id].name != bytes32(\"\") */\n      dup1\n      not\n      and\n        /* \"contracts/PieceRegistry.sol\":530:536  pieces */\n      0x00\n        /* \"contracts/PieceRegistry.sol\":530:540  pieces[id] */\n      dup1\n        /* \"contracts/PieceRegistry.sol\":537:539  id */\n      dup4\n        /* \"contracts/PieceRegistry.sol\":530:540  pieces[id] */\n      0xffffffff\n      and\n      0xffffffff\n      and\n      dup2\n      mstore\n      0x20\n      add\n      swap1\n      dup2\n      mstore\n      0x20\n      add\n      0x00\n      keccak256\n        /* \"contracts/PieceRegistry.sol\":530:545  pieces[id].name */\n      0x01\n      add\n      sload\n        /* \"contracts/PieceRegistry.sol\":530:560  pieces[id].name != bytes32(\"\") */\n      eq\n        /* \"contracts/PieceRegistry.sol\":527:570  if(pieces[id].name != bytes32(\"\")) revert() */\n      tag_21\n      jumpi\n        /* \"contracts/PieceRegistry.sol\":562:570  revert() */\n      0x00\n      dup1\n      revert\n        /* \"contracts/PieceRegistry.sol\":527:570  if(pieces[id].name != bytes32(\"\")) revert() */\n    tag_21:\n        /* \"contracts/PieceRegistry.sol\":680:690  pieceCount */\n      0x01\n      0x00\n        /* \"contracts/PieceRegistry.sol\":680:692  pieceCount++ */\n      dup2\n      dup2\n      swap1\n      sload\n      swap1\n      0x0100\n      exp\n      swap1\n      div\n      0xffffffff\n      and\n      dup1\n      swap3\n      swap2\n      swap1\n      tag_23\n      swap1\n      tag_24\n      jump\t// in\n    tag_23:\n      swap2\n      swap1\n      0x0100\n      exp\n      dup2\n      sload\n      dup2\n      0xffffffff\n      mul\n      not\n      and\n      swap1\n      dup4\n      0xffffffff\n      and\n      mul\n      or\n      swap1\n      sstore\n      pop\n      pop\n        /* \"contracts/PieceRegistry.sol\":724:836  Piece({... */\n      mload(0x40)\n      dup1\n      0x60\n      add\n      0x40\n      mstore\n      dup1\n        /* \"contracts/PieceRegistry.sol\":749:759  pieceCount */\n      0x01\n      0x00\n      swap1\n      sload\n      swap1\n      0x0100\n      exp\n      swap1\n      div\n      0xffffffff\n      and\n        /* \"contracts/PieceRegistry.sol\":724:836  Piece({... */\n      0xffffffff\n      and\n      dup2\n      mstore\n      0x20\n      add\n        /* \"contracts/PieceRegistry.sol\":780:785  _name */\n      dup4\n        /* \"contracts/PieceRegistry.sol\":724:836  Piece({... */\n      dup2\n      mstore\n      0x20\n      add\n        /* \"contracts/PieceRegistry.sol\":814:824  msg.sender */\n      caller\n        /* \"contracts/PieceRegistry.sol\":724:836  Piece({... */\n      0xffffffffffffffffffffffffffffffffffffffff\n      and\n      dup2\n      mstore\n      pop\n        /* \"contracts/PieceRegistry.sol\":703:709  pieces */\n      0x00\n        /* \"contracts/PieceRegistry.sol\":703:721  pieces[pieceCount] */\n      dup1\n        /* \"contracts/PieceRegistry.sol\":710:720  pieceCount */\n      0x01\n      0x00\n      swap1\n      sload\n      swap1\n      0x0100\n      exp\n      swap1\n      div\n      0xffffffff\n      and\n        /* \"contracts/PieceRegistry.sol\":703:721  pieces[pieceCount] */\n      0xffffffff\n      and\n      0xffffffff\n      and\n      dup2\n      mstore\n      0x20\n      add\n      swap1\n      dup2\n      mstore\n      0x20\n      add\n      0x00\n      keccak256\n        /* \"contracts/PieceRegistry.sol\":703:836  pieces[pieceCount] = Piece({... */\n      0x00\n      dup3\n      add\n      mload\n      dup2\n      0x00\n      add\n      exp(0x0100, 0x00)\n      dup2\n      sload\n      dup2\n      0xffffffff\n      mul\n      not\n      and\n      swap1\n      dup4\n      0xffffffff\n      and\n      mul\n      or\n      swap1\n      sstore\n      pop\n      0x20\n      dup3\n      add\n      mload\n      dup2\n      0x01\n      add\n      sstore\n      0x40\n      dup3\n      add\n      mload\n      dup2\n      0x02\n      add\n      exp(0x0100, 0x00)\n      dup2\n      sload\n      dup2\n      0xffffffffffffffffffffffffffffffffffffffff\n      mul\n      not\n      and\n      swap1\n      dup4\n      0xffffffffffffffffffffffffffffffffffffffff\n      and\n      mul\n      or\n      swap1\n      sstore\n      pop\n      swap1\n      pop\n      pop\n        /* \"contracts/PieceRegistry.sol\":870:880  pieceCount */\n      0x01\n      0x00\n      swap1\n      sload\n      swap1\n      0x0100\n      exp\n      swap1\n      div\n      0xffffffff\n      and\n        /* \"contracts/PieceRegistry.sol\":854:900  PieceRegistered(pieceCount, _name, msg.sender) */\n      0xffffffff\n      and\n      0x0ed83e9dbd4d0bbcce7d2bfa1a0d3bd09ae838068ac3d1259c4c0ff82c082ab7\n        /* \"contracts/PieceRegistry.sol\":882:887  _name */\n      dup4\n        /* \"contracts/PieceRegistry.sol\":889:899  msg.sender */\n      caller\n        /* \"contracts/PieceRegistry.sol\":854:900  PieceRegistered(pieceCount, _name, msg.sender) */\n      mload(0x40)\n      tag_25\n      swap3\n      swap2\n      swap1\n      tag_19\n      jump\t// in\n    tag_25:\n      mload(0x40)\n      dup1\n      swap2\n      sub\n      swap1\n      log2\n        /* \"contracts/PieceRegistry.sol\":598:908  function registerPiece(uint32 id, bytes32 _name) external notexist(id) {... */\n      pop\n      pop\n      pop\n      jump\t// out\n        /* \"contracts/PieceRegistry.sol\":369:393  uint32 public pieceCount */\n    tag_11:\n      0x01\n      0x00\n      swap1\n      sload\n      swap1\n      0x0100\n      exp\n      swap1\n      div\n      0xffffffff\n      and\n      dup2\n      jump\t// out\n        /* \"contracts/PieceRegistry.sol\":916:1164  function getPiece(uint32 _id) external view returns (bytes32 name, address manufacturer) {... */\n    tag_17:\n        /* \"contracts/PieceRegistry.sol\":969:981  bytes32 name */\n      0x00\n        /* \"contracts/PieceRegistry.sol\":983:1003  address manufacturer */\n      dup1\n        /* \"contracts/PieceRegistry.sol\":1042:1043  0 */\n      0x00\n        /* \"contracts/PieceRegistry.sol\":1024:1030  pieces */\n      dup1\n        /* \"contracts/PieceRegistry.sol\":1024:1035  pieces[_id] */\n      0x00\n        /* \"contracts/PieceRegistry.sol\":1031:1034  _id */\n      dup6\n        /* \"contracts/PieceRegistry.sol\":1024:1035  pieces[_id] */\n      0xffffffff\n      and\n      0xffffffff\n      and\n      dup2\n      mstore\n      0x20\n      add\n      swap1\n      dup2\n      mstore\n      0x20\n      add\n      0x00\n      keccak256\n        /* \"contracts/PieceRegistry.sol\":1024:1038  pieces[_id].id */\n      0x00\n      add\n      0x00\n      swap1\n      sload\n      swap1\n      0x0100\n      exp\n      swap1\n      div\n      0xffffffff\n      and\n        /* \"contracts/PieceRegistry.sol\":1024:1043  pieces[_id].id != 0 */\n      0xffffffff\n      and\n      sub\n        /* \"contracts/PieceRegistry.sol\":1016:1063  require(pieces[_id].id != 0, \"Piece not found\") */\n      tag_27\n      jumpi\n      mload(0x40)\n      0x08c379a000000000000000000000000000000000000000000000000000000000\n      dup2\n      mstore\n      0x04\n      add\n      tag_28\n      swap1\n      tag_29\n      jump\t// in\n    tag_28:\n      mload(0x40)\n      dup1\n      swap2\n      sub\n      swap1\n      revert\n    tag_27:\n        /* \"contracts/PieceRegistry.sol\":1074:1092  Piece memory piece */\n      0x00\n        /* \"contracts/PieceRegistry.sol\":1095:1101  pieces */\n      dup1\n        /* \"contracts/PieceRegistry.sol\":1095:1106  pieces[_id] */\n      0x00\n        /* \"contracts/PieceRegistry.sol\":1102:1105  _id */\n      dup6\n        /* \"contracts/PieceRegistry.sol\":1095:1106  pieces[_id] */\n      0xffffffff\n      and\n      0xffffffff\n      and\n      dup2\n      mstore\n      0x20\n      add\n      swap1\n      dup2\n      mstore\n      0x20\n      add\n      0x00\n      keccak256\n        /* \"contracts/PieceRegistry.sol\":1074:1106  Piece memory piece = pieces[_id] */\n      mload(0x40)\n      dup1\n      0x60\n      add\n      0x40\n      mstore\n      swap1\n      dup2\n      0x00\n      dup3\n      add\n      0x00\n      swap1\n      sload\n      swap1\n      0x0100\n      exp\n      swap1\n      div\n      0xffffffff\n      and\n      0xffffffff\n      and\n      0xffffffff\n      and\n      dup2\n      mstore\n      0x20\n      add\n      0x01\n      dup3\n      add\n      sload\n      dup2\n      mstore\n      0x20\n      add\n      0x02\n      dup3\n      add\n      0x00\n      swap1\n      sload\n      swap1\n      0x0100\n      exp\n      swap1\n      div\n      0xffffffffffffffffffffffffffffffffffffffff\n      and\n      0xffffffffffffffffffffffffffffffffffffffff\n      and\n      0xffffffffffffffffffffffffffffffffffffffff\n      and\n      dup2\n      mstore\n      pop\n      pop\n      swap1\n      pop\n        /* \"contracts/PieceRegistry.sol\":1125:1130  piece */\n      dup1\n        /* \"contracts/PieceRegistry.sol\":1125:1135  piece.name */\n      0x20\n      add\n      mload\n        /* \"contracts/PieceRegistry.sol\":1137:1142  piece */\n      dup2\n        /* \"contracts/PieceRegistry.sol\":1137:1155  piece.manufacturer */\n      0x40\n      add\n      mload\n        /* \"contracts/PieceRegistry.sol\":1117:1156  return (piece.name, piece.manufacturer) */\n      swap3\n      pop\n      swap3\n      pop\n      pop\n        /* \"contracts/PieceRegistry.sol\":916:1164  function getPiece(uint32 _id) external view returns (bytes32 name, address manufacturer) {... */\n      swap2\n      pop\n      swap2\n      jump\t// out\n        /* \"#utility.yul\":88:205   */\n    tag_31:\n        /* \"#utility.yul\":197:198   */\n      0x00\n        /* \"#utility.yul\":194:195   */\n      dup1\n        /* \"#utility.yul\":187:199   */\n      revert\n        /* \"#utility.yul\":334:427   */\n    tag_33:\n        /* \"#utility.yul\":370:377   */\n      0x00\n        /* \"#utility.yul\":410:420   */\n      0xffffffff\n        /* \"#utility.yul\":403:408   */\n      dup3\n        /* \"#utility.yul\":399:421   */\n      and\n        /* \"#utility.yul\":388:421   */\n      swap1\n      pop\n        /* \"#utility.yul\":334:427   */\n      swap2\n      swap1\n      pop\n      jump\t// out\n        /* \"#utility.yul\":433:553   */\n    tag_34:\n        /* \"#utility.yul\":505:528   */\n      tag_54\n        /* \"#utility.yul\":522:527   */\n      dup2\n        /* \"#utility.yul\":505:528   */\n      tag_33\n      jump\t// in\n    tag_54:\n        /* \"#utility.yul\":498:503   */\n      dup2\n        /* \"#utility.yul\":495:529   */\n      eq\n        /* \"#utility.yul\":485:547   */\n      tag_55\n      jumpi\n        /* \"#utility.yul\":543:544   */\n      0x00\n        /* \"#utility.yul\":540:541   */\n      dup1\n        /* \"#utility.yul\":533:545   */\n      revert\n        /* \"#utility.yul\":485:547   */\n    tag_55:\n        /* \"#utility.yul\":433:553   */\n      pop\n      jump\t// out\n        /* \"#utility.yul\":559:696   */\n    tag_35:\n        /* \"#utility.yul\":604:609   */\n      0x00\n        /* \"#utility.yul\":642:648   */\n      dup2\n        /* \"#utility.yul\":629:649   */\n      calldataload\n        /* \"#utility.yul\":620:649   */\n      swap1\n      pop\n        /* \"#utility.yul\":658:690   */\n      tag_57\n        /* \"#utility.yul\":684:689   */\n      dup2\n        /* \"#utility.yul\":658:690   */\n      tag_34\n      jump\t// in\n    tag_57:\n        /* \"#utility.yul\":559:696   */\n      swap3\n      swap2\n      pop\n      pop\n      jump\t// out\n        /* \"#utility.yul\":702:779   */\n    tag_36:\n        /* \"#utility.yul\":739:746   */\n      0x00\n        /* \"#utility.yul\":768:773   */\n      dup2\n        /* \"#utility.yul\":757:773   */\n      swap1\n      pop\n        /* \"#utility.yul\":702:779   */\n      swap2\n      swap1\n      pop\n      jump\t// out\n        /* \"#utility.yul\":785:907   */\n    tag_37:\n        /* \"#utility.yul\":858:882   */\n      tag_60\n        /* \"#utility.yul\":876:881   */\n      dup2\n        /* \"#utility.yul\":858:882   */\n      tag_36\n      jump\t// in\n    tag_60:\n        /* \"#utility.yul\":851:856   */\n      dup2\n        /* \"#utility.yul\":848:883   */\n      eq\n        /* \"#utility.yul\":838:901   */\n      tag_61\n      jumpi\n        /* \"#utility.yul\":897:898   */\n      0x00\n        /* \"#utility.yul\":894:895   */\n      dup1\n        /* \"#utility.yul\":887:899   */\n      revert\n        /* \"#utility.yul\":838:901   */\n    tag_61:\n        /* \"#utility.yul\":785:907   */\n      pop\n      jump\t// out\n        /* \"#utility.yul\":913:1052   */\n    tag_38:\n        /* \"#utility.yul\":959:964   */\n      0x00\n        /* \"#utility.yul\":997:1003   */\n      dup2\n        /* \"#utility.yul\":984:1004   */\n      calldataload\n        /* \"#utility.yul\":975:1004   */\n      swap1\n      pop\n        /* \"#utility.yul\":1013:1046   */\n      tag_63\n        /* \"#utility.yul\":1040:1045   */\n      dup2\n        /* \"#utility.yul\":1013:1046   */\n      tag_37\n      jump\t// in\n    tag_63:\n        /* \"#utility.yul\":913:1052   */\n      swap3\n      swap2\n      pop\n      pop\n      jump\t// out\n        /* \"#utility.yul\":1058:1530   */\n    tag_8:\n        /* \"#utility.yul\":1125:1131   */\n      0x00\n        /* \"#utility.yul\":1133:1139   */\n      dup1\n        /* \"#utility.yul\":1182:1184   */\n      0x40\n        /* \"#utility.yul\":1170:1179   */\n      dup4\n        /* \"#utility.yul\":1161:1168   */\n      dup6\n        /* \"#utility.yul\":1157:1180   */\n      sub\n        /* \"#utility.yul\":1153:1185   */\n      slt\n        /* \"#utility.yul\":1150:1269   */\n      iszero\n      tag_65\n      jumpi\n        /* \"#utility.yul\":1188:1267   */\n      tag_66\n      tag_31\n      jump\t// in\n    tag_66:\n        /* \"#utility.yul\":1150:1269   */\n    tag_65:\n        /* \"#utility.yul\":1308:1309   */\n      0x00\n        /* \"#utility.yul\":1333:1385   */\n      tag_67\n        /* \"#utility.yul\":1377:1384   */\n      dup6\n        /* \"#utility.yul\":1368:1374   */\n      dup3\n        /* \"#utility.yul\":1357:1366   */\n      dup7\n        /* \"#utility.yul\":1353:1375   */\n      add\n        /* \"#utility.yul\":1333:1385   */\n      tag_35\n      jump\t// in\n    tag_67:\n        /* \"#utility.yul\":1323:1385   */\n      swap3\n      pop\n        /* \"#utility.yul\":1279:1395   */\n      pop\n        /* \"#utility.yul\":1434:1436   */\n      0x20\n        /* \"#utility.yul\":1460:1513   */\n      tag_68\n        /* \"#utility.yul\":1505:1512   */\n      dup6\n        /* \"#utility.yul\":1496:1502   */\n      dup3\n        /* \"#utility.yul\":1485:1494   */\n      dup7\n        /* \"#utility.yul\":1481:1503   */\n      add\n        /* \"#utility.yul\":1460:1513   */\n      tag_38\n      jump\t// in\n    tag_68:\n        /* \"#utility.yul\":1450:1513   */\n      swap2\n      pop\n        /* \"#utility.yul\":1405:1523   */\n      pop\n        /* \"#utility.yul\":1058:1530   */\n      swap3\n      pop\n      swap3\n      swap1\n      pop\n      jump\t// out\n        /* \"#utility.yul\":1536:1651   */\n    tag_39:\n        /* \"#utility.yul\":1621:1644   */\n      tag_70\n        /* \"#utility.yul\":1638:1643   */\n      dup2\n        /* \"#utility.yul\":1621:1644   */\n      tag_33\n      jump\t// in\n    tag_70:\n        /* \"#utility.yul\":1616:1619   */\n      dup3\n        /* \"#utility.yul\":1609:1645   */\n      mstore\n        /* \"#utility.yul\":1536:1651   */\n      pop\n      pop\n      jump\t// out\n        /* \"#utility.yul\":1657:1875   */\n    tag_13:\n        /* \"#utility.yul\":1748:1752   */\n      0x00\n        /* \"#utility.yul\":1786:1788   */\n      0x20\n        /* \"#utility.yul\":1775:1784   */\n      dup3\n        /* \"#utility.yul\":1771:1789   */\n      add\n        /* \"#utility.yul\":1763:1789   */\n      swap1\n      pop\n        /* \"#utility.yul\":1799:1868   */\n      tag_72\n        /* \"#utility.yul\":1865:1866   */\n      0x00\n        /* \"#utility.yul\":1854:1863   */\n      dup4\n        /* \"#utility.yul\":1850:1867   */\n      add\n        /* \"#utility.yul\":1841:1847   */\n      dup5\n        /* \"#utility.yul\":1799:1868   */\n      tag_39\n      jump\t// in\n    tag_72:\n        /* \"#utility.yul\":1657:1875   */\n      swap3\n      swap2\n      pop\n      pop\n      jump\t// out\n        /* \"#utility.yul\":1881:2208   */\n    tag_16:\n        /* \"#utility.yul\":1939:1945   */\n      0x00\n        /* \"#utility.yul\":1988:1990   */\n      0x20\n        /* \"#utility.yul\":1976:1985   */\n      dup3\n        /* \"#utility.yul\":1967:1974   */\n      dup5\n        /* \"#utility.yul\":1963:1986   */\n      sub\n        /* \"#utility.yul\":1959:1991   */\n      slt\n        /* \"#utility.yul\":1956:2075   */\n      iszero\n      tag_74\n      jumpi\n        /* \"#utility.yul\":1994:2073   */\n      tag_75\n      tag_31\n      jump\t// in\n    tag_75:\n        /* \"#utility.yul\":1956:2075   */\n    tag_74:\n        /* \"#utility.yul\":2114:2115   */\n      0x00\n        /* \"#utility.yul\":2139:2191   */\n      tag_76\n        /* \"#utility.yul\":2183:2190   */\n      dup5\n        /* \"#utility.yul\":2174:2180   */\n      dup3\n        /* \"#utility.yul\":2163:2172   */\n      dup6\n        /* \"#utility.yul\":2159:2181   */\n      add\n        /* \"#utility.yul\":2139:2191   */\n      tag_35\n      jump\t// in\n    tag_76:\n        /* \"#utility.yul\":2129:2191   */\n      swap2\n      pop\n        /* \"#utility.yul\":2085:2201   */\n      pop\n        /* \"#utility.yul\":1881:2208   */\n      swap3\n      swap2\n      pop\n      pop\n      jump\t// out\n        /* \"#utility.yul\":2214:2332   */\n    tag_40:\n        /* \"#utility.yul\":2301:2325   */\n      tag_78\n        /* \"#utility.yul\":2319:2324   */\n      dup2\n        /* \"#utility.yul\":2301:2325   */\n      tag_36\n      jump\t// in\n    tag_78:\n        /* \"#utility.yul\":2296:2299   */\n      dup3\n        /* \"#utility.yul\":2289:2326   */\n      mstore\n        /* \"#utility.yul\":2214:2332   */\n      pop\n      pop\n      jump\t// out\n        /* \"#utility.yul\":2338:2464   */\n    tag_41:\n        /* \"#utility.yul\":2375:2382   */\n      0x00\n        /* \"#utility.yul\":2415:2457   */\n      0xffffffffffffffffffffffffffffffffffffffff\n        /* \"#utility.yul\":2408:2413   */\n      dup3\n        /* \"#utility.yul\":2404:2458   */\n      and\n        /* \"#utility.yul\":2393:2458   */\n      swap1\n      pop\n        /* \"#utility.yul\":2338:2464   */\n      swap2\n      swap1\n      pop\n      jump\t// out\n        /* \"#utility.yul\":2470:2566   */\n    tag_42:\n        /* \"#utility.yul\":2507:2514   */\n      0x00\n        /* \"#utility.yul\":2536:2560   */\n      tag_81\n        /* \"#utility.yul\":2554:2559   */\n      dup3\n        /* \"#utility.yul\":2536:2560   */\n      tag_41\n      jump\t// in\n    tag_81:\n        /* \"#utility.yul\":2525:2560   */\n      swap1\n      pop\n        /* \"#utility.yul\":2470:2566   */\n      swap2\n      swap1\n      pop\n      jump\t// out\n        /* \"#utility.yul\":2572:2690   */\n    tag_43:\n        /* \"#utility.yul\":2659:2683   */\n      tag_83\n        /* \"#utility.yul\":2677:2682   */\n      dup2\n        /* \"#utility.yul\":2659:2683   */\n      tag_42\n      jump\t// in\n    tag_83:\n        /* \"#utility.yul\":2654:2657   */\n      dup3\n        /* \"#utility.yul\":2647:2684   */\n      mstore\n        /* \"#utility.yul\":2572:2690   */\n      pop\n      pop\n      jump\t// out\n        /* \"#utility.yul\":2696:3028   */\n    tag_19:\n        /* \"#utility.yul\":2817:2821   */\n      0x00\n        /* \"#utility.yul\":2855:2857   */\n      0x40\n        /* \"#utility.yul\":2844:2853   */\n      dup3\n        /* \"#utility.yul\":2840:2858   */\n      add\n        /* \"#utility.yul\":2832:2858   */\n      swap1\n      pop\n        /* \"#utility.yul\":2868:2939   */\n      tag_85\n        /* \"#utility.yul\":2936:2937   */\n      0x00\n        /* \"#utility.yul\":2925:2934   */\n      dup4\n        /* \"#utility.yul\":2921:2938   */\n      add\n        /* \"#utility.yul\":2912:2918   */\n      dup6\n        /* \"#utility.yul\":2868:2939   */\n      tag_40\n      jump\t// in\n    tag_85:\n        /* \"#utility.yul\":2949:3021   */\n      tag_86\n        /* \"#utility.yul\":3017:3019   */\n      0x20\n        /* \"#utility.yul\":3006:3015   */\n      dup4\n        /* \"#utility.yul\":3002:3020   */\n      add\n        /* \"#utility.yul\":2993:2999   */\n      dup5\n        /* \"#utility.yul\":2949:3021   */\n      tag_43\n      jump\t// in\n    tag_86:\n        /* \"#utility.yul\":2696:3028   */\n      swap4\n      swap3\n      pop\n      pop\n      pop\n      jump\t// out\n        /* \"#utility.yul\":3034:3214   */\n    tag_44:\n        /* \"#utility.yul\":3082:3159   */\n      0x4e487b7100000000000000000000000000000000000000000000000000000000\n        /* \"#utility.yul\":3079:3080   */\n      0x00\n        /* \"#utility.yul\":3072:3160   */\n      mstore\n        /* \"#utility.yul\":3179:3183   */\n      0x11\n        /* \"#utility.yul\":3176:3177   */\n      0x04\n        /* \"#utility.yul\":3169:3184   */\n      mstore\n        /* \"#utility.yul\":3203:3207   */\n      0x24\n        /* \"#utility.yul\":3200:3201   */\n      0x00\n        /* \"#utility.yul\":3193:3208   */\n      revert\n        /* \"#utility.yul\":3220:3395   */\n    tag_24:\n        /* \"#utility.yul\":3258:3261   */\n      0x00\n        /* \"#utility.yul\":3281:3304   */\n      tag_89\n        /* \"#utility.yul\":3298:3303   */\n      dup3\n        /* \"#utility.yul\":3281:3304   */\n      tag_33\n      jump\t// in\n    tag_89:\n        /* \"#utility.yul\":3272:3304   */\n      swap2\n      pop\n        /* \"#utility.yul\":3326:3336   */\n      0xffffffff\n        /* \"#utility.yul\":3319:3324   */\n      dup3\n        /* \"#utility.yul\":3316:3337   */\n      sub\n        /* \"#utility.yul\":3313:3360   */\n      tag_90\n      jumpi\n        /* \"#utility.yul\":3340:3358   */\n      tag_91\n      tag_44\n      jump\t// in\n    tag_91:\n        /* \"#utility.yul\":3313:3360   */\n    tag_90:\n        /* \"#utility.yul\":3387:3388   */\n      0x01\n        /* \"#utility.yul\":3380:3385   */\n      dup3\n        /* \"#utility.yul\":3376:3389   */\n      add\n        /* \"#utility.yul\":3369:3389   */\n      swap1\n      pop\n        /* \"#utility.yul\":3220:3395   */\n      swap2\n      swap1\n      pop\n      jump\t// out\n        /* \"#utility.yul\":3401:3570   */\n    tag_45:\n        /* \"#utility.yul\":3485:3496   */\n      0x00\n        /* \"#utility.yul\":3519:3525   */\n      dup3\n        /* \"#utility.yul\":3514:3517   */\n      dup3\n        /* \"#utility.yul\":3507:3526   */\n      mstore\n        /* \"#utility.yul\":3559:3563   */\n      0x20\n        /* \"#utility.yul\":3554:3557   */\n      dup3\n        /* \"#utility.yul\":3550:3564   */\n      add\n        /* \"#utility.yul\":3535:3564   */\n      swap1\n      pop\n        /* \"#utility.yul\":3401:3570   */\n      swap3\n      swap2\n      pop\n      pop\n      jump\t// out\n        /* \"#utility.yul\":3576:3741   */\n    tag_46:\n        /* \"#utility.yul\":3716:3733   */\n      0x5069656365206e6f7420666f756e640000000000000000000000000000000000\n        /* \"#utility.yul\":3712:3713   */\n      0x00\n        /* \"#utility.yul\":3704:3710   */\n      dup3\n        /* \"#utility.yul\":3700:3714   */\n      add\n        /* \"#utility.yul\":3693:3734   */\n      mstore\n        /* \"#utility.yul\":3576:3741   */\n      pop\n      jump\t// out\n        /* \"#utility.yul\":3747:4113   */\n    tag_47:\n        /* \"#utility.yul\":3889:3892   */\n      0x00\n        /* \"#utility.yul\":3910:3977   */\n      tag_95\n        /* \"#utility.yul\":3974:3976   */\n      0x0f\n        /* \"#utility.yul\":3969:3972   */\n      dup4\n        /* \"#utility.yul\":3910:3977   */\n      tag_45\n      jump\t// in\n    tag_95:\n        /* \"#utility.yul\":3903:3977   */\n      swap2\n      pop\n        /* \"#utility.yul\":3986:4079   */\n      tag_96\n        /* \"#utility.yul\":4075:4078   */\n      dup3\n        /* \"#utility.yul\":3986:4079   */\n      tag_46\n      jump\t// in\n    tag_96:\n        /* \"#utility.yul\":4104:4106   */\n      0x20\n        /* \"#utility.yul\":4099:4102   */\n      dup3\n        /* \"#utility.yul\":4095:4107   */\n      add\n        /* \"#utility.yul\":4088:4107   */\n      swap1\n      pop\n        /* \"#utility.yul\":3747:4113   */\n      swap2\n      swap1\n      pop\n      jump\t// out\n        /* \"#utility.yul\":4119:4538   */\n    tag_29:\n        /* \"#utility.yul\":4285:4289   */\n      0x00\n        /* \"#utility.yul\":4323:4325   */\n      0x20\n        /* \"#utility.yul\":4312:4321   */\n      dup3\n        /* \"#utility.yul\":4308:4326   */\n      add\n        /* \"#utility.yul\":4300:4326   */\n      swap1\n      pop\n        /* \"#utility.yul\":4372:4381   */\n      dup2\n        /* \"#utility.yul\":4366:4370   */\n      dup2\n        /* \"#utility.yul\":4362:4382   */\n      sub\n        /* \"#utility.yul\":4358:4359   */\n      0x00\n        /* \"#utility.yul\":4347:4356   */\n      dup4\n        /* \"#utility.yul\":4343:4360   */\n      add\n        /* \"#utility.yul\":4336:4383   */\n      mstore\n        /* \"#utility.yul\":4400:4531   */\n      tag_98\n        /* \"#utility.yul\":4526:4530   */\n      dup2\n        /* \"#utility.yul\":4400:4531   */\n      tag_47\n      jump\t// in\n    tag_98:\n        /* \"#utility.yul\":4392:4531   */\n      swap1\n      pop\n        /* \"#utility.yul\":4119:4538   */\n      swap2\n      swap1\n      pop\n      jump\t// out\n\n    auxdata: 0xa2646970667358221220b5bbd26931026de50559e220c48efbcd8351ff9fcac1c43888d9a4103ce0998c64736f6c63430008190033\n}\n",
				"bytecode": {
					"linkReferences": {},
					"object": "6080604052348015600e575f80fd5b506106278061001c5f395ff3fe608060405234801561000f575f80fd5b506004361061003f575f3560e01c80631dd79913146100435780634a5c4dfe1461005f5780636f1df2d81461007d575b5f80fd5b61005d6004803603810190610058919061041b565b6100ae565b005b61006761025e565b6040516100749190610468565b60405180910390f35b61009760048036038101906100929190610481565b610273565b6040516100a59291906104fa565b60405180910390f35b815f8019165f808363ffffffff1663ffffffff1681526020019081526020015f2060010154146100dc575f80fd5b60015f81819054906101000a900463ffffffff16809291906100fd9061054e565b91906101000a81548163ffffffff021916908363ffffffff16021790555050604051806060016040528060015f9054906101000a900463ffffffff1663ffffffff1681526020018381526020013373ffffffffffffffffffffffffffffffffffffffff168152505f8060015f9054906101000a900463ffffffff1663ffffffff1663ffffffff1681526020019081526020015f205f820151815f015f6101000a81548163ffffffff021916908363ffffffff160217905550602082015181600101556040820151816002015f6101000a81548173ffffffffffffffffffffffffffffffffffffffff021916908373ffffffffffffffffffffffffffffffffffffffff16021790555090505060015f9054906101000a900463ffffffff1663ffffffff167f0ed83e9dbd4d0bbcce7d2bfa1a0d3bd09ae838068ac3d1259c4c0ff82c082ab783336040516102519291906104fa565b60405180910390a2505050565b60015f9054906101000a900463ffffffff1681565b5f805f805f8563ffffffff1663ffffffff1681526020019081526020015f205f015f9054906101000a900463ffffffff1663ffffffff16036102ea576040517f08c379a00000000000000000000000000000000000000000000000000000000081526004016102e1906105d3565b60405180910390fd5b5f805f8563ffffffff1663ffffffff1681526020019081526020015f206040518060600160405290815f82015f9054906101000a900463ffffffff1663ffffffff1663ffffffff16815260200160018201548152602001600282015f9054906101000a900473ffffffffffffffffffffffffffffffffffffffff1673ffffffffffffffffffffffffffffffffffffffff1673ffffffffffffffffffffffffffffffffffffffff16815250509050806020015181604001519250925050915091565b5f80fd5b5f63ffffffff82169050919050565b6103c7816103af565b81146103d1575f80fd5b50565b5f813590506103e2816103be565b92915050565b5f819050919050565b6103fa816103e8565b8114610404575f80fd5b50565b5f81359050610415816103f1565b92915050565b5f8060408385031215610431576104306103ab565b5b5f61043e858286016103d4565b925050602061044f85828601610407565b9150509250929050565b610462816103af565b82525050565b5f60208201905061047b5f830184610459565b92915050565b5f60208284031215610496576104956103ab565b5b5f6104a3848285016103d4565b91505092915050565b6104b5816103e8565b82525050565b5f73ffffffffffffffffffffffffffffffffffffffff82169050919050565b5f6104e4826104bb565b9050919050565b6104f4816104da565b82525050565b5f60408201905061050d5f8301856104ac565b61051a60208301846104eb565b9392505050565b7f4e487b71000000000000000000000000000000000000000000000000000000005f52601160045260245ffd5b5f610558826103af565b915063ffffffff820361056e5761056d610521565b5b600182019050919050565b5f82825260208201905092915050565b7f5069656365206e6f7420666f756e6400000000000000000000000000000000005f82015250565b5f6105bd600f83610579565b91506105c882610589565b602082019050919050565b5f6020820190508181035f8301526105ea816105b1565b905091905056fea2646970667358221220b5bbd26931026de50559e220c48efbcd8351ff9fcac1c43888d9a4103ce0998c64736f6c63430008190033",
					"opcodes": "PUSH1 0x80 PUSH1 0x40 MSTORE CALLVALUE DUP1 ISZERO PUSH1 0xE JUMPI PUSH0 DUP1 REVERT JUMPDEST POP PUSH2 0x627 DUP1 PUSH2 0x1C PUSH0 CODECOPY PUSH0 RETURN INVALID PUSH1 0x80 PUSH1 0x40 MSTORE CALLVALUE DUP1 ISZERO PUSH2 0xF JUMPI PUSH0 DUP1 REVERT JUMPDEST POP PUSH1 0x4 CALLDATASIZE LT PUSH2 0x3F JUMPI PUSH0 CALLDATALOAD PUSH1 0xE0 SHR DUP1 PUSH4 0x1DD79913 EQ PUSH2 0x43 JUMPI DUP1 PUSH4 0x4A5C4DFE EQ PUSH2 0x5F JUMPI DUP1 PUSH4 0x6F1DF2D8 EQ PUSH2 0x7D JUMPI JUMPDEST PUSH0 DUP1 REVERT JUMPDEST PUSH2 0x5D PUSH1 0x4 DUP1 CALLDATASIZE SUB DUP2 ADD SWAP1 PUSH2 0x58 SWAP2 SWAP1 PUSH2 0x41B JUMP JUMPDEST PUSH2 0xAE JUMP JUMPDEST STOP JUMPDEST PUSH2 0x67 PUSH2 0x25E JUMP JUMPDEST PUSH1 0x40 MLOAD PUSH2 0x74 SWAP2 SWAP1 PUSH2 0x468 JUMP JUMPDEST PUSH1 0x40 MLOAD DUP1 SWAP2 SUB SWAP1 RETURN JUMPDEST PUSH2 0x97 PUSH1 0x4 DUP1 CALLDATASIZE SUB DUP2 ADD SWAP1 PUSH2 0x92 SWAP2 SWAP1 PUSH2 0x481 JUMP JUMPDEST PUSH2 0x273 JUMP JUMPDEST PUSH1 0x40 MLOAD PUSH2 0xA5 SWAP3 SWAP2 SWAP1 PUSH2 0x4FA JUMP JUMPDEST PUSH1 0x40 MLOAD DUP1 SWAP2 SUB SWAP1 RETURN JUMPDEST DUP2 PUSH0 DUP1 NOT AND PUSH0 DUP1 DUP4 PUSH4 0xFFFFFFFF AND PUSH4 0xFFFFFFFF AND DUP2 MSTORE PUSH1 0x20 ADD SWAP1 DUP2 MSTORE PUSH1 0x20 ADD PUSH0 KECCAK256 PUSH1 0x1 ADD SLOAD EQ PUSH2 0xDC JUMPI PUSH0 DUP1 REVERT JUMPDEST PUSH1 0x1 PUSH0 DUP2 DUP2 SWAP1 SLOAD SWAP1 PUSH2 0x100 EXP SWAP1 DIV PUSH4 0xFFFFFFFF AND DUP1 SWAP3 SWAP2 SWAP1 PUSH2 0xFD SWAP1 PUSH2 0x54E JUMP JUMPDEST SWAP2 SWAP1 PUSH2 0x100 EXP DUP2 SLOAD DUP2 PUSH4 0xFFFFFFFF MUL NOT AND SWAP1 DUP4 PUSH4 0xFFFFFFFF AND MUL OR SWAP1 SSTORE POP POP PUSH1 0x40 MLOAD DUP1 PUSH1 0x60 ADD PUSH1 0x40 MSTORE DUP1 PUSH1 0x1 PUSH0 SWAP1 SLOAD SWAP1 PUSH2 0x100 EXP SWAP1 DIV PUSH4 0xFFFFFFFF AND PUSH4 0xFFFFFFFF AND DUP2 MSTORE PUSH1 0x20 ADD DUP4 DUP2 MSTORE PUSH1 0x20 ADD CALLER PUSH20 0xFFFFFFFFFFFFFFFFFFFFFFFFFFFFFFFFFFFFFFFF AND DUP2 MSTORE POP PUSH0 DUP1 PUSH1 0x1 PUSH0 SWAP1 SLOAD SWAP1 PUSH2 0x100 EXP SWAP1 DIV PUSH4 0xFFFFFFFF AND PUSH4 0xFFFFFFFF AND PUSH4 0xFFFFFFFF AND DUP2 MSTORE PUSH1 0x20 ADD SWAP1 DUP2 MSTORE PUSH1 0x20 ADD PUSH0 KECCAK256 PUSH0 DUP3 ADD MLOAD DUP2 PUSH0 ADD PUSH0 PUSH2 0x100 EXP DUP2 SLOAD DUP2 PUSH4 0xFFFFFFFF MUL NOT AND SWAP1 DUP4 PUSH4 0xFFFFFFFF AND MUL OR SWAP1 SSTORE POP PUSH1 0x20 DUP3 ADD MLOAD DUP2 PUSH1 0x1 ADD SSTORE PUSH1 0x40 DUP3 ADD MLOAD DUP2 PUSH1 0x2 ADD PUSH0 PUSH2 0x100 EXP DUP2 SLOAD DUP2 PUSH20 0xFFFFFFFFFFFFFFFFFFFFFFFFFFFFFFFFFFFFFFFF MUL NOT AND SWAP1 DUP4 PUSH20 0xFFFFFFFFFFFFFFFFFFFFFFFFFFFFFFFFFFFFFFFF AND MUL OR SWAP1 SSTORE POP SWAP1 POP POP PUSH1 0x1 PUSH0 SWAP1 SLOAD SWAP1 PUSH2 0x100 EXP SWAP1 DIV PUSH4 0xFFFFFFFF AND PUSH4 0xFFFFFFFF AND PUSH32 0xED83E9DBD4D0BBCCE7D2BFA1A0D3BD09AE838068AC3D1259C4C0FF82C082AB7 DUP4 CALLER PUSH1 0x40 MLOAD PUSH2 0x251 SWAP3 SWAP2 SWAP1 PUSH2 0x4FA JUMP JUMPDEST PUSH1 0x40 MLOAD DUP1 SWAP2 SUB SWAP1 LOG2 POP POP POP JUMP JUMPDEST PUSH1 0x1 PUSH0 SWAP1 SLOAD SWAP1 PUSH2 0x100 EXP SWAP1 DIV PUSH4 0xFFFFFFFF AND DUP2 JUMP JUMPDEST PUSH0 DUP1 PUSH0 DUP1 PUSH0 DUP6 PUSH4 0xFFFFFFFF AND PUSH4 0xFFFFFFFF AND DUP2 MSTORE PUSH1 0x20 ADD SWAP1 DUP2 MSTORE PUSH1 0x20 ADD PUSH0 KECCAK256 PUSH0 ADD PUSH0 SWAP1 SLOAD SWAP1 PUSH2 0x100 EXP SWAP1 DIV PUSH4 0xFFFFFFFF AND PUSH4 0xFFFFFFFF AND SUB PUSH2 0x2EA JUMPI PUSH1 0x40 MLOAD PUSH32 0x8C379A000000000000000000000000000000000000000000000000000000000 DUP2 MSTORE PUSH1 0x4 ADD PUSH2 0x2E1 SWAP1 PUSH2 0x5D3 JUMP JUMPDEST PUSH1 0x40 MLOAD DUP1 SWAP2 SUB SWAP1 REVERT JUMPDEST PUSH0 DUP1 PUSH0 DUP6 PUSH4 0xFFFFFFFF AND PUSH4 0xFFFFFFFF AND DUP2 MSTORE PUSH1 0x20 ADD SWAP1 DUP2 MSTORE PUSH1 0x20 ADD PUSH0 KECCAK256 PUSH1 0x40 MLOAD DUP1 PUSH1 0x60 ADD PUSH1 0x40 MSTORE SWAP1 DUP2 PUSH0 DUP3 ADD PUSH0 SWAP1 SLOAD SWAP1 PUSH2 0x100 EXP SWAP1 DIV PUSH4 0xFFFFFFFF AND PUSH4 0xFFFFFFFF AND PUSH4 0xFFFFFFFF AND DUP2 MSTORE PUSH1 0x20 ADD PUSH1 0x1 DUP3 ADD SLOAD DUP2 MSTORE PUSH1 0x20 ADD PUSH1 0x2 DUP3 ADD PUSH0 SWAP1 SLOAD SWAP1 PUSH2 0x100 EXP SWAP1 DIV PUSH20 0xFFFFFFFFFFFFFFFFFFFFFFFFFFFFFFFFFFFFFFFF AND PUSH20 0xFFFFFFFFFFFFFFFFFFFFFFFFFFFFFFFFFFFFFFFF AND PUSH20 0xFFFFFFFFFFFFFFFFFFFFFFFFFFFFFFFFFFFFFFFF AND DUP2 MSTORE POP POP SWAP1 POP DUP1 PUSH1 0x20 ADD MLOAD DUP2 PUSH1 0x40 ADD MLOAD SWAP3 POP SWAP3 POP POP SWAP2 POP SWAP2 JUMP JUMPDEST PUSH0 DUP1 REVERT JUMPDEST PUSH0 PUSH4 0xFFFFFFFF DUP3 AND SWAP1 POP SWAP2 SWAP1 POP JUMP JUMPDEST PUSH2 0x3C7 DUP2 PUSH2 0x3AF JUMP JUMPDEST DUP2 EQ PUSH2 0x3D1 JUMPI PUSH0 DUP1 REVERT JUMPDEST POP JUMP JUMPDEST PUSH0 DUP2 CALLDATALOAD SWAP1 POP PUSH2 0x3E2 DUP2 PUSH2 0x3BE JUMP JUMPDEST SWAP3 SWAP2 POP POP JUMP JUMPDEST PUSH0 DUP2 SWAP1 POP SWAP2 SWAP1 POP JUMP JUMPDEST PUSH2 0x3FA DUP2 PUSH2 0x3E8 JUMP JUMPDEST DUP2 EQ PUSH2 0x404 JUMPI PUSH0 DUP1 REVERT JUMPDEST POP JUMP JUMPDEST PUSH0 DUP2 CALLDATALOAD SWAP1 POP PUSH2 0x415 DUP2 PUSH2 0x3F1 JUMP JUMPDEST SWAP3 SWAP2 POP POP JUMP JUMPDEST PUSH0 DUP1 PUSH1 0x40 DUP4 DUP6 SUB SLT ISZERO PUSH2 0x431 JUMPI PUSH2 0x430 PUSH2 0x3AB JUMP JUMPDEST JUMPDEST PUSH0 PUSH2 0x43E DUP6 DUP3 DUP7 ADD PUSH2 0x3D4 JUMP JUMPDEST SWAP3 POP POP PUSH1 0x20 PUSH2 0x44F DUP6 DUP3 DUP7 ADD PUSH2 0x407 JUMP JUMPDEST SWAP2 POP POP SWAP3 POP SWAP3 SWAP1 POP JUMP JUMPDEST PUSH2 0x462 DUP2 PUSH2 0x3AF JUMP JUMPDEST DUP3 MSTORE POP POP JUMP JUMPDEST PUSH0 PUSH1 0x20 DUP3 ADD SWAP1 POP PUSH2 0x47B PUSH0 DUP4 ADD DUP5 PUSH2 0x459 JUMP JUMPDEST SWAP3 SWAP2 POP POP JUMP JUMPDEST PUSH0 PUSH1 0x20 DUP3 DUP5 SUB SLT ISZERO PUSH2 0x496 JUMPI PUSH2 0x495 PUSH2 0x3AB JUMP JUMPDEST JUMPDEST PUSH0 PUSH2 0x4A3 DUP5 DUP3 DUP6 ADD PUSH2 0x3D4 JUMP JUMPDEST SWAP2 POP POP SWAP3 SWAP2 POP POP JUMP JUMPDEST PUSH2 0x4B5 DUP2 PUSH2 0x3E8 JUMP JUMPDEST DUP3 MSTORE POP POP JUMP JUMPDEST PUSH0 PUSH20 0xFFFFFFFFFFFFFFFFFFFFFFFFFFFFFFFFFFFFFFFF DUP3 AND SWAP1 POP SWAP2 SWAP1 POP JUMP JUMPDEST PUSH0 PUSH2 0x4E4 DUP3 PUSH2 0x4BB JUMP JUMPDEST SWAP1 POP SWAP2 SWAP1 POP JUMP JUMPDEST PUSH2 0x4F4 DUP2 PUSH2 0x4DA JUMP JUMPDEST DUP3 MSTORE POP POP JUMP JUMPDEST PUSH0 PUSH1 0x40 DUP3 ADD SWAP1 POP PUSH2 0x50D PUSH0 DUP4 ADD DUP6 PUSH2 0x4AC JUMP JUMPDEST PUSH2 0x51A PUSH1 0x20 DUP4 ADD DUP5 PUSH2 0x4EB JUMP JUMPDEST SWAP4 SWAP3 POP POP POP JUMP JUMPDEST PUSH32 0x4E487B7100000000000000000000000000000000000000000000000000000000 PUSH0 MSTORE PUSH1 0x11 PUSH1 0x4 MSTORE PUSH1 0x24 PUSH0 REVERT JUMPDEST PUSH0 PUSH2 0x558 DUP3 PUSH2 0x3AF JUMP JUMPDEST SWAP2 POP PUSH4 0xFFFFFFFF DUP3 SUB PUSH2 0x56E JUMPI PUSH2 0x56D PUSH2 0x521 JUMP JUMPDEST JUMPDEST PUSH1 0x1 DUP3 ADD SWAP1 POP SWAP2 SWAP1 POP JUMP JUMPDEST PUSH0 DUP3 DUP3 MSTORE PUSH1 0x20 DUP3 ADD SWAP1 POP SWAP3 SWAP2 POP POP JUMP JUMPDEST PUSH32 0x5069656365206E6F7420666F756E640000000000000000000000000000000000 PUSH0 DUP3 ADD MSTORE POP JUMP JUMPDEST PUSH0 PUSH2 0x5BD PUSH1 0xF DUP4 PUSH2 0x579 JUMP JUMPDEST SWAP2 POP PUSH2 0x5C8 DUP3 PUSH2 0x589 JUMP JUMPDEST PUSH1 0x20 DUP3 ADD SWAP1 POP SWAP2 SWAP1 POP JUMP JUMPDEST PUSH0 PUSH1 0x20 DUP3 ADD SWAP1 POP DUP2 DUP2 SUB PUSH0 DUP4 ADD MSTORE PUSH2 0x5EA DUP2 PUSH2 0x5B1 JUMP JUMPDEST SWAP1 POP SWAP2 SWAP1 POP JUMP INVALID LOG2 PUSH5 0x6970667358 0x22 SLT KECCAK256 0xB5 0xBB 0xD2 PUSH10 0x31026DE50559E220C48E 0xFB 0xCD DUP4 MLOAD SELFDESTRUCT SWAP16 0xCA 0xC1 0xC4 CODESIZE DUP9 0xD9 LOG4 LT EXTCODECOPY 0xE0 SWAP10 DUP13 PUSH5 0x736F6C6343 STOP ADDMOD NOT STOP CALLER "
				},
				"gasEstimates": {
					"creation": {
						"codeDepositCost": "315000",
						"executionCost": "353",
						"totalCost": "315353"
					},
					"external": {
						"getPiece(uint32)": "9643",
						"pieceCount()": "2466",
						"registerPiece(uint32,bytes32)": "infinite"
					}
				},
				"methodIdentifiers": {
					"getPiece(uint32)": "6f1df2d8",
					"pieceCount()": "4a5c4dfe",
					"registerPiece(uint32,bytes32)": "1dd79913"
				}
			},
			"storageLayout": {
				"storage": [
					{
						"astId": 13,
						"contract": "contracts/PieceRegistry.sol:PieceRegistry",
						"label": "pieces",
						"offset": 0,
						"slot": "0",
						"type": "t_mapping(t_uint32,t_struct(Piece)8_storage)"
					},
					{
						"astId": 15,
						"contract": "contracts/PieceRegistry.sol:PieceRegistry",
						"label": "pieceCount",
						"offset": 0,
						"slot": "1",
						"type": "t_uint32"
					}
				],
				"types": {
					"t_address": {
						"encoding": "inplace",
						"label": "address",
						"numberOfBytes": "20"
					},
					"t_bytes32": {
						"encoding": "inplace",
						"label": "bytes32",
						"numberOfBytes": "32"
					},
					"t_mapping(t_uint32,t_struct(Piece)8_storage)": {
						"encoding": "mapping",
						"key": "t_uint32",
						"label": "mapping(uint32 => struct PieceRegistry.Piece)",
						"numberOfBytes": "32",
						"value": "t_struct(Piece)8_storage"
					},
					"t_struct(Piece)8_storage": {
						"encoding": "inplace",
						"label": "struct PieceRegistry.Piece",
						"members": [
							{
								"astId": 3,
								"contract": "contracts/PieceRegistry.sol:PieceRegistry",
								"label": "id",
								"offset": 0,
								"slot": "0",
								"type": "t_uint32"
							},
							{
								"astId": 5,
								"contract": "contracts/PieceRegistry.sol:PieceRegistry",
								"label": "name",
								"offset": 0,
								"slot": "1",
								"type": "t_bytes32"
							},
							{
								"astId": 7,
								"contract": "contracts/PieceRegistry.sol:PieceRegistry",
								"label": "manufacturer",
								"offset": 0,
								"slot": "2",
								"type": "t_address"
							}
						],
						"numberOfBytes": "96"
					},
					"t_uint32": {
						"encoding": "inplace",
						"label": "uint32",
						"numberOfBytes": "4"
					}
				}
			},
			"userdoc": {
				"kind": "user",
				"methods": {},
				"version": 1
			}
		}
	}
}