{
	"contracts/Certification.sol": {
		"Certification": {
			"abi": [
				{
					"anonymous": false,
					"inputs": [
						{
							"indexed": true,
							"internalType": "uint32",
							"name": "pieceId",
							"type": "uint32"
						},
						{
							"indexed": false,
							"internalType": "uint64",
							"name": "certificationDate",
							"type": "uint64"
						},
						{
							"indexed": false,
							"internalType": "address",
							"name": "certifiedBy",
							"type": "address"
						}
					],
					"name": "PieceCertified",
					"type": "event"
				},
				{
					"inputs": [
						{
							"internalType": "uint32",
							"name": "_pieceId",
							"type": "uint32"
						},
						{
							"internalType": "uint64",
							"name": "_certificationDate",
							"type": "uint64"
						}
					],
					"name": "certifyPiece",
					"outputs": [],
					"stateMutability": "nonpayable",
					"type": "function"
				},
				{
					"inputs": [
						{
							"internalType": "uint32",
							"name": "_pieceId",
							"type": "uint32"
						}
					],
					"name": "getCertificate",
					"outputs": [
						{
							"internalType": "uint64",
							"name": "certificationDate",
							"type": "uint64"
						},
						{
							"internalType": "address",
							"name": "certifiedBy",
							"type": "address"
						}
					],
					"stateMutability": "view",
					"type": "function"
				}
			],
			"devdoc": {
				"kind": "dev",
				"methods": {},
				"version": 1
			},
			"evm": {
				"assembly": "    /* \"contracts/Certification.sol\":60:1106  contract Certification {... */\n  mstore(0x40, 0x80)\n  callvalue\n  dup1\n  iszero\n  tag_1\n  jumpi\n  0x00\n  dup1\n  revert\ntag_1:\n  pop\n  dataSize(sub_0)\n  dup1\n  dataOffset(sub_0)\n  0x00\n  codecopy\n  0x00\n  return\nstop\n\nsub_0: assembly {\n        /* \"contracts/Certification.sol\":60:1106  contract Certification {... */\n      mstore(0x40, 0x80)\n      callvalue\n      dup1\n      iszero\n      tag_1\n      jumpi\n      0x00\n      dup1\n      revert\n    tag_1:\n      pop\n      jumpi(tag_2, lt(calldatasize, 0x04))\n      shr(0xe0, calldataload(0x00))\n      dup1\n      0x75141af2\n      eq\n      tag_3\n      jumpi\n      dup1\n      0xa6bd0860\n      eq\n      tag_4\n      jumpi\n    tag_2:\n      0x00\n      dup1\n      revert\n        /* \"contracts/Certification.sol\":740:1103  function getCertificate(uint32 _pieceId)... */\n    tag_3:\n      tag_5\n      0x04\n      dup1\n      calldatasize\n      sub\n      dup2\n      add\n      swap1\n      tag_6\n      swap2\n      swap1\n      tag_7\n      jump\t// in\n    tag_6:\n      tag_8\n      jump\t// in\n    tag_5:\n      mload(0x40)\n      tag_9\n      swap3\n      swap2\n      swap1\n      tag_10\n      jump\t// in\n    tag_9:\n      mload(0x40)\n      dup1\n      swap2\n      sub\n      swap1\n      return\n        /* \"contracts/Certification.sol\":425:732  function certifyPiece(uint32 _pieceId, uint64 _certificationDate) external {... */\n    tag_4:\n      tag_11\n      0x04\n      dup1\n      calldatasize\n      sub\n      dup2\n      add\n      swap1\n      tag_12\n      swap2\n      swap1\n      tag_13\n      jump\t// in\n    tag_12:\n      tag_14\n      jump\t// in\n    tag_11:\n      stop\n        /* \"contracts/Certification.sol\":740:1103  function getCertificate(uint32 _pieceId)... */\n    tag_8:\n        /* \"contracts/Certification.sol\":831:855  uint64 certificationDate */\n      0x00\n        /* \"contracts/Certification.sol\":857:876  address certifiedBy */\n      dup1\n        /* \"contracts/Certification.sol\":948:949  0 */\n      0x00\n        /* \"contracts/Certification.sol\":902:950  certificates[_pieceId].certifiedBy != address(0) */\n      0xffffffffffffffffffffffffffffffffffffffff\n      and\n        /* \"contracts/Certification.sol\":902:914  certificates */\n      0x00\n        /* \"contracts/Certification.sol\":902:924  certificates[_pieceId] */\n      dup1\n        /* \"contracts/Certification.sol\":915:923  _pieceId */\n      dup6\n        /* \"contracts/Certification.sol\":902:924  certificates[_pieceId] */\n      0xffffffff\n      and\n      0xffffffff\n      and\n      dup2\n      mstore\n      0x20\n      add\n      swap1\n      dup2\n      mstore\n      0x20\n      add\n      0x00\n      keccak256\n        /* \"contracts/Certification.sol\":902:936  certificates[_pieceId].certifiedBy */\n      0x00\n      add\n      0x08\n      swap1\n      sload\n      swap1\n      0x0100\n      exp\n      swap1\n      div\n      0xffffffffffffffffffffffffffffffffffffffff\n      and\n        /* \"contracts/Certification.sol\":902:950  certificates[_pieceId].certifiedBy != address(0) */\n      0xffffffffffffffffffffffffffffffffffffffff\n      and\n      sub\n        /* \"contracts/Certification.sol\":894:976  require(certificates[_pieceId].certifiedBy != address(0), \"Certificate not found\") */\n      tag_16\n      jumpi\n      mload(0x40)\n      0x08c379a000000000000000000000000000000000000000000000000000000000\n      dup2\n      mstore\n      0x04\n      add\n      tag_17\n      swap1\n      tag_18\n      jump\t// in\n    tag_17:\n      mload(0x40)\n      dup1\n      swap2\n      sub\n      swap1\n      revert\n    tag_16:\n        /* \"contracts/Certification.sol\":987:1010  Certificate memory cert */\n      0x00\n        /* \"contracts/Certification.sol\":1013:1025  certificates */\n      dup1\n        /* \"contracts/Certification.sol\":1013:1035  certificates[_pieceId] */\n      0x00\n        /* \"contracts/Certification.sol\":1026:1034  _pieceId */\n      dup6\n        /* \"contracts/Certification.sol\":1013:1035  certificates[_pieceId] */\n      0xffffffff\n      and\n      0xffffffff\n      and\n      dup2\n      mstore\n      0x20\n      add\n      swap1\n      dup2\n      mstore\n      0x20\n      add\n      0x00\n      keccak256\n        /* \"contracts/Certification.sol\":987:1035  Certificate memory cert = certificates[_pieceId] */\n      mload(0x40)\n      dup1\n      0x40\n      add\n      0x40\n      mstore\n      swap1\n      dup2\n      0x00\n      dup3\n      add\n      0x00\n      swap1\n      sload\n      swap1\n      0x0100\n      exp\n      swap1\n      div\n      0xffffffffffffffff\n      and\n      0xffffffffffffffff\n      and\n      0xffffffffffffffff\n      and\n      dup2\n      mstore\n      0x20\n      add\n      0x00\n      dup3\n      add\n      0x08\n      swap1\n      sload\n      swap1\n      0x0100\n      exp\n      swap1\n      div\n      0xffffffffffffffffffffffffffffffffffffffff\n      and\n      0xffffffffffffffffffffffffffffffffffffffff\n      and\n      0xffffffffffffffffffffffffffffffffffffffff\n      and\n      dup2\n      mstore\n      pop\n      pop\n      swap1\n      pop\n        /* \"contracts/Certification.sol\":1054:1058  cert */\n      dup1\n        /* \"contracts/Certification.sol\":1054:1076  cert.certificationDate */\n      0x00\n      add\n      mload\n        /* \"contracts/Certification.sol\":1078:1082  cert */\n      dup2\n        /* \"contracts/Certification.sol\":1078:1094  cert.certifiedBy */\n      0x20\n      add\n      mload\n        /* \"contracts/Certification.sol\":1046:1095  return (cert.certificationDate, cert.certifiedBy) */\n      swap3\n      pop\n      swap3\n      pop\n      pop\n        /* \"contracts/Certification.sol\":740:1103  function getCertificate(uint32 _pieceId)... */\n      swap2\n      pop\n      swap2\n      jump\t// out\n        /* \"contracts/Certification.sol\":425:732  function certifyPiece(uint32 _pieceId, uint64 _certificationDate) external {... */\n    tag_14:\n        /* \"contracts/Certification.sol\":536:650  Certificate({... */\n      mload(0x40)\n      dup1\n      0x40\n      add\n      0x40\n      mstore\n      dup1\n        /* \"contracts/Certification.sol\":582:600  _certificationDate */\n      dup3\n        /* \"contracts/Certification.sol\":536:650  Certificate({... */\n      0xffffffffffffffff\n      and\n      dup2\n      mstore\n      0x20\n      add\n        /* \"contracts/Certification.sol\":628:638  msg.sender */\n      caller\n        /* \"contracts/Certification.sol\":536:650  Certificate({... */\n      0xffffffffffffffffffffffffffffffffffffffff\n      and\n      dup2\n      mstore\n      pop\n        /* \"contracts/Certification.sol\":511:523  certificates */\n      0x00\n        /* \"contracts/Certification.sol\":511:533  certificates[_pieceId] */\n      dup1\n        /* \"contracts/Certification.sol\":524:532  _pieceId */\n      dup5\n        /* \"contracts/Certification.sol\":511:533  certificates[_pieceId] */\n      0xffffffff\n      and\n      0xffffffff\n      and\n      dup2\n      mstore\n      0x20\n      add\n      swap1\n      dup2\n      mstore\n      0x20\n      add\n      0x00\n      keccak256\n        /* \"contracts/Certification.sol\":511:650  certificates[_pieceId] = Certificate({... */\n      0x00\n      dup3\n      add\n      mload\n      dup2\n      0x00\n      add\n      exp(0x0100, 0x00)\n      dup2\n      sload\n      dup2\n      0xffffffffffffffff\n      mul\n      not\n      and\n      swap1\n      dup4\n      0xffffffffffffffff\n      and\n      mul\n      or\n      swap1\n      sstore\n      pop\n      0x20\n      dup3\n      add\n      mload\n      dup2\n      0x00\n      add\n      exp(0x0100, 0x08)\n      dup2\n      sload\n      dup2\n      0xffffffffffffffffffffffffffffffffffffffff\n      mul\n      not\n      and\n      swap1\n      dup4\n      0xffffffffffffffffffffffffffffffffffffffff\n      and\n      mul\n      or\n      swap1\n      sstore\n      pop\n      swap1\n      pop\n      pop\n        /* \"contracts/Certification.sol\":683:691  _pieceId */\n      dup2\n        /* \"contracts/Certification.sol\":668:724  PieceCertified(_pieceId, _certificationDate, msg.sender) */\n      0xffffffff\n      and\n      0xcc588945027d8f7a07c2d8c78f0f5dc48da8233b1de8f4fb447551ae82b9c8db\n        /* \"contracts/Certification.sol\":693:711  _certificationDate */\n      dup3\n        /* \"contracts/Certification.sol\":713:723  msg.sender */\n      caller\n        /* \"contracts/Certification.sol\":668:724  PieceCertified(_pieceId, _certificationDate, msg.sender) */\n      mload(0x40)\n      tag_20\n      swap3\n      swap2\n      swap1\n      tag_10\n      jump\t// in\n    tag_20:\n      mload(0x40)\n      dup1\n      swap2\n      sub\n      swap1\n      log2\n        /* \"contracts/Certification.sol\":425:732  function certifyPiece(uint32 _pieceId, uint64 _certificationDate) external {... */\n      pop\n      pop\n      jump\t// out\n        /* \"#utility.yul\":88:205   */\n    tag_22:\n        /* \"#utility.yul\":197:198   */\n      0x00\n        /* \"#utility.yul\":194:195   */\n      dup1\n        /* \"#utility.yul\":187:199   */\n      revert\n        /* \"#utility.yul\":334:427   */\n    tag_24:\n        /* \"#utility.yul\":370:377   */\n      0x00\n        /* \"#utility.yul\":410:420   */\n      0xffffffff\n        /* \"#utility.yul\":403:408   */\n      dup3\n        /* \"#utility.yul\":399:421   */\n      and\n        /* \"#utility.yul\":388:421   */\n      swap1\n      pop\n        /* \"#utility.yul\":334:427   */\n      swap2\n      swap1\n      pop\n      jump\t// out\n        /* \"#utility.yul\":433:553   */\n    tag_25:\n        /* \"#utility.yul\":505:528   */\n      tag_43\n        /* \"#utility.yul\":522:527   */\n      dup2\n        /* \"#utility.yul\":505:528   */\n      tag_24\n      jump\t// in\n    tag_43:\n        /* \"#utility.yul\":498:503   */\n      dup2\n        /* \"#utility.yul\":495:529   */\n      eq\n        /* \"#utility.yul\":485:547   */\n      tag_44\n      jumpi\n        /* \"#utility.yul\":543:544   */\n      0x00\n        /* \"#utility.yul\":540:541   */\n      dup1\n        /* \"#utility.yul\":533:545   */\n      revert\n        /* \"#utility.yul\":485:547   */\n    tag_44:\n        /* \"#utility.yul\":433:553   */\n      pop\n      jump\t// out\n        /* \"#utility.yul\":559:696   */\n    tag_26:\n        /* \"#utility.yul\":604:609   */\n      0x00\n        /* \"#utility.yul\":642:648   */\n      dup2\n        /* \"#utility.yul\":629:649   */\n      calldataload\n        /* \"#utility.yul\":620:649   */\n      swap1\n      pop\n        /* \"#utility.yul\":658:690   */\n      tag_46\n        /* \"#utility.yul\":684:689   */\n      dup2\n        /* \"#utility.yul\":658:690   */\n      tag_25\n      jump\t// in\n    tag_46:\n        /* \"#utility.yul\":559:696   */\n      swap3\n      swap2\n      pop\n      pop\n      jump\t// out\n        /* \"#utility.yul\":702:1029   */\n    tag_7:\n        /* \"#utility.yul\":760:766   */\n      0x00\n        /* \"#utility.yul\":809:811   */\n      0x20\n        /* \"#utility.yul\":797:806   */\n      dup3\n        /* \"#utility.yul\":788:795   */\n      dup5\n        /* \"#utility.yul\":784:807   */\n      sub\n        /* \"#utility.yul\":780:812   */\n      slt\n        /* \"#utility.yul\":777:896   */\n      iszero\n      tag_48\n      jumpi\n        /* \"#utility.yul\":815:894   */\n      tag_49\n      tag_22\n      jump\t// in\n    tag_49:\n        /* \"#utility.yul\":777:896   */\n    tag_48:\n        /* \"#utility.yul\":935:936   */\n      0x00\n        /* \"#utility.yul\":960:1012   */\n      tag_50\n        /* \"#utility.yul\":1004:1011   */\n      dup5\n        /* \"#utility.yul\":995:1001   */\n      dup3\n        /* \"#utility.yul\":984:993   */\n      dup6\n        /* \"#utility.yul\":980:1002   */\n      add\n        /* \"#utility.yul\":960:1012   */\n      tag_26\n      jump\t// in\n    tag_50:\n        /* \"#utility.yul\":950:1012   */\n      swap2\n      pop\n        /* \"#utility.yul\":906:1022   */\n      pop\n        /* \"#utility.yul\":702:1029   */\n      swap3\n      swap2\n      pop\n      pop\n      jump\t// out\n        /* \"#utility.yul\":1035:1136   */\n    tag_27:\n        /* \"#utility.yul\":1071:1078   */\n      0x00\n        /* \"#utility.yul\":1111:1129   */\n      0xffffffffffffffff\n        /* \"#utility.yul\":1104:1109   */\n      dup3\n        /* \"#utility.yul\":1100:1130   */\n      and\n        /* \"#utility.yul\":1089:1130   */\n      swap1\n      pop\n        /* \"#utility.yul\":1035:1136   */\n      swap2\n      swap1\n      pop\n      jump\t// out\n        /* \"#utility.yul\":1142:1257   */\n    tag_28:\n        /* \"#utility.yul\":1227:1250   */\n      tag_53\n        /* \"#utility.yul\":1244:1249   */\n      dup2\n        /* \"#utility.yul\":1227:1250   */\n      tag_27\n      jump\t// in\n    tag_53:\n        /* \"#utility.yul\":1222:1225   */\n      dup3\n        /* \"#utility.yul\":1215:1251   */\n      mstore\n        /* \"#utility.yul\":1142:1257   */\n      pop\n      pop\n      jump\t// out\n        /* \"#utility.yul\":1263:1389   */\n    tag_29:\n        /* \"#utility.yul\":1300:1307   */\n      0x00\n        /* \"#utility.yul\":1340:1382   */\n      0xffffffffffffffffffffffffffffffffffffffff\n        /* \"#utility.yul\":1333:1338   */\n      dup3\n        /* \"#utility.yul\":1329:1383   */\n      and\n        /* \"#utility.yul\":1318:1383   */\n      swap1\n      pop\n        /* \"#utility.yul\":1263:1389   */\n      swap2\n      swap1\n      pop\n      jump\t// out\n        /* \"#utility.yul\":1395:1491   */\n    tag_30:\n        /* \"#utility.yul\":1432:1439   */\n      0x00\n        /* \"#utility.yul\":1461:1485   */\n      tag_56\n        /* \"#utility.yul\":1479:1484   */\n      dup3\n        /* \"#utility.yul\":1461:1485   */\n      tag_29\n      jump\t// in\n    tag_56:\n        /* \"#utility.yul\":1450:1485   */\n      swap1\n      pop\n        /* \"#utility.yul\":1395:1491   */\n      swap2\n      swap1\n      pop\n      jump\t// out\n        /* \"#utility.yul\":1497:1615   */\n    tag_31:\n        /* \"#utility.yul\":1584:1608   */\n      tag_58\n        /* \"#utility.yul\":1602:1607   */\n      dup2\n        /* \"#utility.yul\":1584:1608   */\n      tag_30\n      jump\t// in\n    tag_58:\n        /* \"#utility.yul\":1579:1582   */\n      dup3\n        /* \"#utility.yul\":1572:1609   */\n      mstore\n        /* \"#utility.yul\":1497:1615   */\n      pop\n      pop\n      jump\t// out\n        /* \"#utility.yul\":1621:1949   */\n    tag_10:\n        /* \"#utility.yul\":1740:1744   */\n      0x00\n        /* \"#utility.yul\":1778:1780   */\n      0x40\n        /* \"#utility.yul\":1767:1776   */\n      dup3\n        /* \"#utility.yul\":1763:1781   */\n      add\n        /* \"#utility.yul\":1755:1781   */\n      swap1\n      pop\n        /* \"#utility.yul\":1791:1860   */\n      tag_60\n        /* \"#utility.yul\":1857:1858   */\n      0x00\n        /* \"#utility.yul\":1846:1855   */\n      dup4\n        /* \"#utility.yul\":1842:1859   */\n      add\n        /* \"#utility.yul\":1833:1839   */\n      dup6\n        /* \"#utility.yul\":1791:1860   */\n      tag_28\n      jump\t// in\n    tag_60:\n        /* \"#utility.yul\":1870:1942   */\n      tag_61\n        /* \"#utility.yul\":1938:1940   */\n      0x20\n        /* \"#utility.yul\":1927:1936   */\n      dup4\n        /* \"#utility.yul\":1923:1941   */\n      add\n        /* \"#utility.yul\":1914:1920   */\n      dup5\n        /* \"#utility.yul\":1870:1942   */\n      tag_31\n      jump\t// in\n    tag_61:\n        /* \"#utility.yul\":1621:1949   */\n      swap4\n      swap3\n      pop\n      pop\n      pop\n      jump\t// out\n        /* \"#utility.yul\":1955:2075   */\n    tag_32:\n        /* \"#utility.yul\":2027:2050   */\n      tag_63\n        /* \"#utility.yul\":2044:2049   */\n      dup2\n        /* \"#utility.yul\":2027:2050   */\n      tag_27\n      jump\t// in\n    tag_63:\n        /* \"#utility.yul\":2020:2025   */\n      dup2\n        /* \"#utility.yul\":2017:2051   */\n      eq\n        /* \"#utility.yul\":2007:2069   */\n      tag_64\n      jumpi\n        /* \"#utility.yul\":2065:2066   */\n      0x00\n        /* \"#utility.yul\":2062:2063   */\n      dup1\n        /* \"#utility.yul\":2055:2067   */\n      revert\n        /* \"#utility.yul\":2007:2069   */\n    tag_64:\n        /* \"#utility.yul\":1955:2075   */\n      pop\n      jump\t// out\n        /* \"#utility.yul\":2081:2218   */\n    tag_33:\n        /* \"#utility.yul\":2126:2131   */\n      0x00\n        /* \"#utility.yul\":2164:2170   */\n      dup2\n        /* \"#utility.yul\":2151:2171   */\n      calldataload\n        /* \"#utility.yul\":2142:2171   */\n      swap1\n      pop\n        /* \"#utility.yul\":2180:2212   */\n      tag_66\n        /* \"#utility.yul\":2206:2211   */\n      dup2\n        /* \"#utility.yul\":2180:2212   */\n      tag_32\n      jump\t// in\n    tag_66:\n        /* \"#utility.yul\":2081:2218   */\n      swap3\n      swap2\n      pop\n      pop\n      jump\t// out\n        /* \"#utility.yul\":2224:2694   */\n    tag_13:\n        /* \"#utility.yul\":2290:2296   */\n      0x00\n        /* \"#utility.yul\":2298:2304   */\n      dup1\n        /* \"#utility.yul\":2347:2349   */\n      0x40\n        /* \"#utility.yul\":2335:2344   */\n      dup4\n        /* \"#utility.yul\":2326:2333   */\n      dup6\n        /* \"#utility.yul\":2322:2345   */\n      sub\n        /* \"#utility.yul\":2318:2350   */\n      slt\n        /* \"#utility.yul\":2315:2434   */\n      iszero\n      tag_68\n      jumpi\n        /* \"#utility.yul\":2353:2432   */\n      tag_69\n      tag_22\n      jump\t// in\n    tag_69:\n        /* \"#utility.yul\":2315:2434   */\n    tag_68:\n        /* \"#utility.yul\":2473:2474   */\n      0x00\n        /* \"#utility.yul\":2498:2550   */\n      tag_70\n        /* \"#utility.yul\":2542:2549   */\n      dup6\n        /* \"#utility.yul\":2533:2539   */\n      dup3\n        /* \"#utility.yul\":2522:2531   */\n      dup7\n        /* \"#utility.yul\":2518:2540   */\n      add\n        /* \"#utility.yul\":2498:2550   */\n      tag_26\n      jump\t// in\n    tag_70:\n        /* \"#utility.yul\":2488:2550   */\n      swap3\n      pop\n        /* \"#utility.yul\":2444:2560   */\n      pop\n        /* \"#utility.yul\":2599:2601   */\n      0x20\n        /* \"#utility.yul\":2625:2677   */\n      tag_71\n        /* \"#utility.yul\":2669:2676   */\n      dup6\n        /* \"#utility.yul\":2660:2666   */\n      dup3\n        /* \"#utility.yul\":2649:2658   */\n      dup7\n        /* \"#utility.yul\":2645:2667   */\n      add\n        /* \"#utility.yul\":2625:2677   */\n      tag_33\n      jump\t// in\n    tag_71:\n        /* \"#utility.yul\":2615:2677   */\n      swap2\n      pop\n        /* \"#utility.yul\":2570:2687   */\n      pop\n        /* \"#utility.yul\":2224:2694   */\n      swap3\n      pop\n      swap3\n      swap1\n      pop\n      jump\t// out\n        /* \"#utility.yul\":2700:2869   */\n    tag_34:\n        /* \"#utility.yul\":2784:2795   */\n      0x00\n        /* \"#utility.yul\":2818:2824   */\n      dup3\n        /* \"#utility.yul\":2813:2816   */\n      dup3\n        /* \"#utility.yul\":2806:2825   */\n      mstore\n        /* \"#utility.yul\":2858:2862   */\n      0x20\n        /* \"#utility.yul\":2853:2856   */\n      dup3\n        /* \"#utility.yul\":2849:2863   */\n      add\n        /* \"#utility.yul\":2834:2863   */\n      swap1\n      pop\n        /* \"#utility.yul\":2700:2869   */\n      swap3\n      swap2\n      pop\n      pop\n      jump\t// out\n        /* \"#utility.yul\":2875:3046   */\n    tag_35:\n        /* \"#utility.yul\":3015:3038   */\n      0x4365727469666963617465206e6f7420666f756e640000000000000000000000\n        /* \"#utility.yul\":3011:3012   */\n      0x00\n        /* \"#utility.yul\":3003:3009   */\n      dup3\n        /* \"#utility.yul\":2999:3013   */\n      add\n        /* \"#utility.yul\":2992:3039   */\n      mstore\n        /* \"#utility.yul\":2875:3046   */\n      pop\n      jump\t// out\n        /* \"#utility.yul\":3052:3418   */\n    tag_36:\n        /* \"#utility.yul\":3194:3197   */\n      0x00\n        /* \"#utility.yul\":3215:3282   */\n      tag_75\n        /* \"#utility.yul\":3279:3281   */\n      0x15\n        /* \"#utility.yul\":3274:3277   */\n      dup4\n        /* \"#utility.yul\":3215:3282   */\n      tag_34\n      jump\t// in\n    tag_75:\n        /* \"#utility.yul\":3208:3282   */\n      swap2\n      pop\n        /* \"#utility.yul\":3291:3384   */\n      tag_76\n        /* \"#utility.yul\":3380:3383   */\n      dup3\n        /* \"#utility.yul\":3291:3384   */\n      tag_35\n      jump\t// in\n    tag_76:\n        /* \"#utility.yul\":3409:3411   */\n      0x20\n        /* \"#utility.yul\":3404:3407   */\n      dup3\n        /* \"#utility.yul\":3400:3412   */\n      add\n        /* \"#utility.yul\":3393:3412   */\n      swap1\n      pop\n        /* \"#utility.yul\":3052:3418   */\n      swap2\n      swap1\n      pop\n      jump\t// out\n        /* \"#utility.yul\":3424:3843   */\n    tag_18:\n        /* \"#utility.yul\":3590:3594   */\n      0x00\n        /* \"#utility.yul\":3628:3630   */\n      0x20\n        /* \"#utility.yul\":3617:3626   */\n      dup3\n        /* \"#utility.yul\":3613:3631   */\n      add\n        /* \"#utility.yul\":3605:3631   */\n      swap1\n      pop\n        /* \"#utility.yul\":3677:3686   */\n      dup2\n        /* \"#utility.yul\":3671:3675   */\n      dup2\n        /* \"#utility.yul\":3667:3687   */\n      sub\n        /* \"#utility.yul\":3663:3664   */\n      0x00\n        /* \"#utility.yul\":3652:3661   */\n      dup4\n        /* \"#utility.yul\":3648:3665   */\n      add\n        /* \"#utility.yul\":3641:3688   */\n      mstore\n        /* \"#utility.yul\":3705:3836   */\n      tag_78\n        /* \"#utility.yul\":3831:3835   */\n      dup2\n        /* \"#utility.yul\":3705:3836   */\n      tag_36\n      jump\t// in\n    tag_78:\n        /* \"#utility.yul\":3697:3836   */\n      swap1\n      pop\n        /* \"#utility.yul\":3424:3843   */\n      swap2\n      swap1\n      pop\n      jump\t// out\n\n    auxdata: 0xa26469706673582212209f8383e3c2159e0b975c7ca6c3b5fa8184e2af24a68adedc421c1edcda040d8e64736f6c634300081a0033\n}\n",
				"bytecode": {
					"linkReferences": {},
					"object": "6080604052348015600e575f80fd5b506105058061001c5f395ff3fe608060405234801561000f575f80fd5b5060043610610034575f3560e01c806375141af214610038578063a6bd086014610069575b5f80fd5b610052600480360381019061004d919061033c565b610085565b6040516100609291906103c8565b60405180910390f35b610083600480360381019061007e9190610419565b6101f5565b005b5f805f73ffffffffffffffffffffffffffffffffffffffff165f808563ffffffff1663ffffffff1681526020019081526020015f205f0160089054906101000a900473ffffffffffffffffffffffffffffffffffffffff1673ffffffffffffffffffffffffffffffffffffffff1603610133576040517f08c379a000000000000000000000000000000000000000000000000000000000815260040161012a906104b1565b60405180910390fd5b5f805f8563ffffffff1663ffffffff1681526020019081526020015f206040518060400160405290815f82015f9054906101000a900467ffffffffffffffff1667ffffffffffffffff1667ffffffffffffffff1681526020015f820160089054906101000a900473ffffffffffffffffffffffffffffffffffffffff1673ffffffffffffffffffffffffffffffffffffffff1673ffffffffffffffffffffffffffffffffffffffff16815250509050805f015181602001519250925050915091565b60405180604001604052808267ffffffffffffffff1681526020013373ffffffffffffffffffffffffffffffffffffffff168152505f808463ffffffff1663ffffffff1681526020019081526020015f205f820151815f015f6101000a81548167ffffffffffffffff021916908367ffffffffffffffff1602179055506020820151815f0160086101000a81548173ffffffffffffffffffffffffffffffffffffffff021916908373ffffffffffffffffffffffffffffffffffffffff1602179055509050508163ffffffff167fcc588945027d8f7a07c2d8c78f0f5dc48da8233b1de8f4fb447551ae82b9c8db82336040516102f39291906103c8565b60405180910390a25050565b5f80fd5b5f63ffffffff82169050919050565b61031b81610303565b8114610325575f80fd5b50565b5f8135905061033681610312565b92915050565b5f60208284031215610351576103506102ff565b5b5f61035e84828501610328565b91505092915050565b5f67ffffffffffffffff82169050919050565b61038381610367565b82525050565b5f73ffffffffffffffffffffffffffffffffffffffff82169050919050565b5f6103b282610389565b9050919050565b6103c2816103a8565b82525050565b5f6040820190506103db5f83018561037a565b6103e860208301846103b9565b9392505050565b6103f881610367565b8114610402575f80fd5b50565b5f81359050610413816103ef565b92915050565b5f806040838503121561042f5761042e6102ff565b5b5f61043c85828601610328565b925050602061044d85828601610405565b9150509250929050565b5f82825260208201905092915050565b7f4365727469666963617465206e6f7420666f756e6400000000000000000000005f82015250565b5f61049b601583610457565b91506104a682610467565b602082019050919050565b5f6020820190508181035f8301526104c88161048f565b905091905056fea26469706673582212209f8383e3c2159e0b975c7ca6c3b5fa8184e2af24a68adedc421c1edcda040d8e64736f6c634300081a0033",
					"opcodes": "PUSH1 0x80 PUSH1 0x40 MSTORE CALLVALUE DUP1 ISZERO PUSH1 0xE JUMPI PUSH0 DUP1 REVERT JUMPDEST POP PUSH2 0x505 DUP1 PUSH2 0x1C PUSH0 CODECOPY PUSH0 RETURN INVALID PUSH1 0x80 PUSH1 0x40 MSTORE CALLVALUE DUP1 ISZERO PUSH2 0xF JUMPI PUSH0 DUP1 REVERT JUMPDEST POP PUSH1 0x4 CALLDATASIZE LT PUSH2 0x34 JUMPI PUSH0 CALLDATALOAD PUSH1 0xE0 SHR DUP1 PUSH4 0x75141AF2 EQ PUSH2 0x38 JUMPI DUP1 PUSH4 0xA6BD0860 EQ PUSH2 0x69 JUMPI JUMPDEST PUSH0 DUP1 REVERT JUMPDEST PUSH2 0x52 PUSH1 0x4 DUP1 CALLDATASIZE SUB DUP2 ADD SWAP1 PUSH2 0x4D SWAP2 SWAP1 PUSH2 0x33C JUMP JUMPDEST PUSH2 0x85 JUMP JUMPDEST PUSH1 0x40 MLOAD PUSH2 0x60 SWAP3 SWAP2 SWAP1 PUSH2 0x3C8 JUMP JUMPDEST PUSH1 0x40 MLOAD DUP1 SWAP2 SUB SWAP1 RETURN JUMPDEST PUSH2 0x83 PUSH1 0x4 DUP1 CALLDATASIZE SUB DUP2 ADD SWAP1 PUSH2 0x7E SWAP2 SWAP1 PUSH2 0x419 JUMP JUMPDEST PUSH2 0x1F5 JUMP JUMPDEST STOP JUMPDEST PUSH0 DUP1 PUSH0 PUSH20 0xFFFFFFFFFFFFFFFFFFFFFFFFFFFFFFFFFFFFFFFF AND PUSH0 DUP1 DUP6 PUSH4 0xFFFFFFFF AND PUSH4 0xFFFFFFFF AND DUP2 MSTORE PUSH1 0x20 ADD SWAP1 DUP2 MSTORE PUSH1 0x20 ADD PUSH0 KECCAK256 PUSH0 ADD PUSH1 0x8 SWAP1 SLOAD SWAP1 PUSH2 0x100 EXP SWAP1 DIV PUSH20 0xFFFFFFFFFFFFFFFFFFFFFFFFFFFFFFFFFFFFFFFF AND PUSH20 0xFFFFFFFFFFFFFFFFFFFFFFFFFFFFFFFFFFFFFFFF AND SUB PUSH2 0x133 JUMPI PUSH1 0x40 MLOAD PUSH32 0x8C379A000000000000000000000000000000000000000000000000000000000 DUP2 MSTORE PUSH1 0x4 ADD PUSH2 0x12A SWAP1 PUSH2 0x4B1 JUMP JUMPDEST PUSH1 0x40 MLOAD DUP1 SWAP2 SUB SWAP1 REVERT JUMPDEST PUSH0 DUP1 PUSH0 DUP6 PUSH4 0xFFFFFFFF AND PUSH4 0xFFFFFFFF AND DUP2 MSTORE PUSH1 0x20 ADD SWAP1 DUP2 MSTORE PUSH1 0x20 ADD PUSH0 KECCAK256 PUSH1 0x40 MLOAD DUP1 PUSH1 0x40 ADD PUSH1 0x40 MSTORE SWAP1 DUP2 PUSH0 DUP3 ADD PUSH0 SWAP1 SLOAD SWAP1 PUSH2 0x100 EXP SWAP1 DIV PUSH8 0xFFFFFFFFFFFFFFFF AND PUSH8 0xFFFFFFFFFFFFFFFF AND PUSH8 0xFFFFFFFFFFFFFFFF AND DUP2 MSTORE PUSH1 0x20 ADD PUSH0 DUP3 ADD PUSH1 0x8 SWAP1 SLOAD SWAP1 PUSH2 0x100 EXP SWAP1 DIV PUSH20 0xFFFFFFFFFFFFFFFFFFFFFFFFFFFFFFFFFFFFFFFF AND PUSH20 0xFFFFFFFFFFFFFFFFFFFFFFFFFFFFFFFFFFFFFFFF AND PUSH20 0xFFFFFFFFFFFFFFFFFFFFFFFFFFFFFFFFFFFFFFFF AND DUP2 MSTORE POP POP SWAP1 POP DUP1 PUSH0 ADD MLOAD DUP2 PUSH1 0x20 ADD MLOAD SWAP3 POP SWAP3 POP POP SWAP2 POP SWAP2 JUMP JUMPDEST PUSH1 0x40 MLOAD DUP1 PUSH1 0x40 ADD PUSH1 0x40 MSTORE DUP1 DUP3 PUSH8 0xFFFFFFFFFFFFFFFF AND DUP2 MSTORE PUSH1 0x20 ADD CALLER PUSH20 0xFFFFFFFFFFFFFFFFFFFFFFFFFFFFFFFFFFFFFFFF AND DUP2 MSTORE POP PUSH0 DUP1 DUP5 PUSH4 0xFFFFFFFF AND PUSH4 0xFFFFFFFF AND DUP2 MSTORE PUSH1 0x20 ADD SWAP1 DUP2 MSTORE PUSH1 0x20 ADD PUSH0 KECCAK256 PUSH0 DUP3 ADD MLOAD DUP2 PUSH0 ADD PUSH0 PUSH2 0x100 EXP DUP2 SLOAD DUP2 PUSH8 0xFFFFFFFFFFFFFFFF MUL NOT AND SWAP1 DUP4 PUSH8 0xFFFFFFFFFFFFFFFF AND MUL OR SWAP1 SSTORE POP PUSH1 0x20 DUP3 ADD MLOAD DUP2 PUSH0 ADD PUSH1 0x8 PUSH2 0x100 EXP DUP2 SLOAD DUP2 PUSH20 0xFFFFFFFFFFFFFFFFFFFFFFFFFFFFFFFFFFFFFFFF MUL NOT AND SWAP1 DUP4 PUSH20 0xFFFFFFFFFFFFFFFFFFFFFFFFFFFFFFFFFFFFFFFF AND MUL OR SWAP1 SSTORE POP SWAP1 POP POP DUP2 PUSH4 0xFFFFFFFF AND PUSH32 0xCC588945027D8F7A07C2D8C78F0F5DC48DA8233B1DE8F4FB447551AE82B9C8DB DUP3 CALLER PUSH1 0x40 MLOAD PUSH2 0x2F3 SWAP3 SWAP2 SWAP1 PUSH2 0x3C8 JUMP JUMPDEST PUSH1 0x40 MLOAD DUP1 SWAP2 SUB SWAP1 LOG2 POP POP JUMP JUMPDEST PUSH0 DUP1 REVERT JUMPDEST PUSH0 PUSH4 0xFFFFFFFF DUP3 AND SWAP1 POP SWAP2 SWAP1 POP JUMP JUMPDEST PUSH2 0x31B DUP2 PUSH2 0x303 JUMP JUMPDEST DUP2 EQ PUSH2 0x325 JUMPI PUSH0 DUP1 REVERT JUMPDEST POP JUMP JUMPDEST PUSH0 DUP2 CALLDATALOAD SWAP1 POP PUSH2 0x336 DUP2 PUSH2 0x312 JUMP JUMPDEST SWAP3 SWAP2 POP POP JUMP JUMPDEST PUSH0 PUSH1 0x20 DUP3 DUP5 SUB SLT ISZERO PUSH2 0x351 JUMPI PUSH2 0x350 PUSH2 0x2FF JUMP JUMPDEST JUMPDEST PUSH0 PUSH2 0x35E DUP5 DUP3 DUP6 ADD PUSH2 0x328 JUMP JUMPDEST SWAP2 POP POP SWAP3 SWAP2 POP POP JUMP JUMPDEST PUSH0 PUSH8 0xFFFFFFFFFFFFFFFF DUP3 AND SWAP1 POP SWAP2 SWAP1 POP JUMP JUMPDEST PUSH2 0x383 DUP2 PUSH2 0x367 JUMP JUMPDEST DUP3 MSTORE POP POP JUMP JUMPDEST PUSH0 PUSH20 0xFFFFFFFFFFFFFFFFFFFFFFFFFFFFFFFFFFFFFFFF DUP3 AND SWAP1 POP SWAP2 SWAP1 POP JUMP JUMPDEST PUSH0 PUSH2 0x3B2 DUP3 PUSH2 0x389 JUMP JUMPDEST SWAP1 POP SWAP2 SWAP1 POP JUMP JUMPDEST PUSH2 0x3C2 DUP2 PUSH2 0x3A8 JUMP JUMPDEST DUP3 MSTORE POP POP JUMP JUMPDEST PUSH0 PUSH1 0x40 DUP3 ADD SWAP1 POP PUSH2 0x3DB PUSH0 DUP4 ADD DUP6 PUSH2 0x37A JUMP JUMPDEST PUSH2 0x3E8 PUSH1 0x20 DUP4 ADD DUP5 PUSH2 0x3B9 JUMP JUMPDEST SWAP4 SWAP3 POP POP POP JUMP JUMPDEST PUSH2 0x3F8 DUP2 PUSH2 0x367 JUMP JUMPDEST DUP2 EQ PUSH2 0x402 JUMPI PUSH0 DUP1 REVERT JUMPDEST POP JUMP JUMPDEST PUSH0 DUP2 CALLDATALOAD SWAP1 POP PUSH2 0x413 DUP2 PUSH2 0x3EF JUMP JUMPDEST SWAP3 SWAP2 POP POP JUMP JUMPDEST PUSH0 DUP1 PUSH1 0x40 DUP4 DUP6 SUB SLT ISZERO PUSH2 0x42F JUMPI PUSH2 0x42E PUSH2 0x2FF JUMP JUMPDEST JUMPDEST PUSH0 PUSH2 0x43C DUP6 DUP3 DUP7 ADD PUSH2 0x328 JUMP JUMPDEST SWAP3 POP POP PUSH1 0x20 PUSH2 0x44D DUP6 DUP3 DUP7 ADD PUSH2 0x405 JUMP JUMPDEST SWAP2 POP POP SWAP3 POP SWAP3 SWAP1 POP JUMP JUMPDEST PUSH0 DUP3 DUP3 MSTORE PUSH1 0x20 DUP3 ADD SWAP1 POP SWAP3 SWAP2 POP POP JUMP JUMPDEST PUSH32 0x4365727469666963617465206E6F7420666F756E640000000000000000000000 PUSH0 DUP3 ADD MSTORE POP JUMP JUMPDEST PUSH0 PUSH2 0x49B PUSH1 0x15 DUP4 PUSH2 0x457 JUMP JUMPDEST SWAP2 POP PUSH2 0x4A6 DUP3 PUSH2 0x467 JUMP JUMPDEST PUSH1 0x20 DUP3 ADD SWAP1 POP SWAP2 SWAP1 POP JUMP JUMPDEST PUSH0 PUSH1 0x20 DUP3 ADD SWAP1 POP DUP2 DUP2 SUB PUSH0 DUP4 ADD MSTORE PUSH2 0x4C8 DUP2 PUSH2 0x48F JUMP JUMPDEST SWAP1 POP SWAP2 SWAP1 POP JUMP INVALID LOG2 PUSH5 0x6970667358 0x22 SLT KECCAK256 SWAP16 DUP4 DUP4 0xE3 0xC2 ISZERO SWAP15 SIGNEXTEND SWAP8 TLOAD PUSH29 0xA6C3B5FA8184E2AF24A68ADEDC421C1EDCDA040D8E64736F6C63430008 BYTE STOP CALLER "
				},
				"gasEstimates": {
					"creation": {
						"codeDepositCost": "257000",
						"executionCost": "298",
						"totalCost": "257298"
					},
					"external": {
						"certifyPiece(uint32,uint64)": "infinite",
						"getCertificate(uint32)": "7587"
					}
				},
				"methodIdentifiers": {
					"certifyPiece(uint32,uint64)": "a6bd0860",
					"getCertificate(uint32)": "75141af2"
				}
			},
			"storageLayout": {
				"storage": [
					{
						"astId": 11,
						"contract": "contracts/Certification.sol:Certification",
						"label": "certificates",
						"offset": 0,
						"slot": "0",
						"type": "t_mapping(t_uint32,t_struct(Certificate)6_storage)"
					}
				],
				"types": {
					"t_address": {
						"encoding": "inplace",
						"label": "address",
						"numberOfBytes": "20"
					},
					"t_mapping(t_uint32,t_struct(Certificate)6_storage)": {
						"encoding": "mapping",
						"key": "t_uint32",
						"label": "mapping(uint32 => struct Certification.Certificate)",
						"numberOfBytes": "32",
						"value": "t_struct(Certificate)6_storage"
					},
					"t_struct(Certificate)6_storage": {
						"encoding": "inplace",
						"label": "struct Certification.Certificate",
						"members": [
							{
								"astId": 3,
								"contract": "contracts/Certification.sol:Certification",
								"label": "certificationDate",
								"offset": 0,
								"slot": "0",
								"type": "t_uint64"
							},
							{
								"astId": 5,
								"contract": "contracts/Certification.sol:Certification",
								"label": "certifiedBy",
								"offset": 8,
								"slot": "0",
								"type": "t_address"
							}
						],
						"numberOfBytes": "32"
					},
					"t_uint32": {
						"encoding": "inplace",
						"label": "uint32",
						"numberOfBytes": "4"
					},
					"t_uint64": {
						"encoding": "inplace",
						"label": "uint64",
						"numberOfBytes": "8"
					}
				}
			},
			"userdoc": {
				"kind": "user",
				"methods": {},
				"version": 1
			}
		}
	}
}